:100000000C9455010C947D010C947D010C947D01A0
:100010000C947D010C947D010C947D010C947D0168
:100020000C947D010C947D010C947D010C94F315CE
:100030000C947D010C947D010C947D010C947D0148
:100040000C943C100C947D010C9484030C945E037E
:100050000C947D010C947D010C947D010C947D0128
:100060000C947D010C947D015718D91BC31BBA1841
:10007000AE194A18F01AC919D91B961BD91B131BA4
:100080009C1B430054656D70657261747572653AAE
:100090002000446973636F6E6E65637465642066E7
:1000A000726F6D2063656E7472616C3A2000636FCD
:1000B000756E746572203D2000636F756E74657295
:1000C000207772697474656E2C2072657365740094
:1000D000436F6E6E656374656420746F2063656E34
:1000E0007472616C3A20000007060000030241FEB2
:1000F0000000000000000000000000000000000000
:100100000000000000000000001F061000000000BA
:1001100000000000000001010000060006000000D1
:10012000000000000000000000001F06101C00007E
:1001300000000000000000000000000000000000BF
:10014000000000001000039000FF001F061038FFA1
:10015000FF02580A05000000000000000000001027
:100160000000000000010201020102000506105417
:10017000000200000000000000000000000000007D
:1001800000000000000000000000000000190670E0
:10019000000000000000000000000000000000005F
:1001A0000000000000000000000000000000190630
:1001B00070160000000000000000000000000000B9
:1001C000000000000000000000000000000000002F
:1001D0000000240027002A0000000000250028005D
:1001E0002B00000000002300260029000404040462
:1001F00004040404020202020202030303030303D1
:1002000001020408102040800102040810200102AD
:100210000408102000000008000201000003040789
:100220000000000000000000436F6E6E656374659F
:10023000643A2000446973636F6E6E65637465642D
:100240003A2000436861726163746572697374690E
:1002500063206576656E742C2077726974656E3ADA
:1002600020004368617261637465726973746963C5
:10027000206576656E742C20737562736372696293
:10028000656400436861726163746572697374695F
:1002900063206576656E742C20756E73756273636A
:1002A0007269626564003720DE2211241FBECFEF21
:1002B000D8E0DEBFCDBF12E0A0E0B1E0E8E6FFE4A9
:1002C00002C005900D92A43BB107D9F726E0A4EB3C
:1002D000B2E001C01D92AF31B207E1F711E0C4E511
:1002E000D1E004C02197FE010E944025C335D1070B
:1002F000C9F70E94F11B0C94A7270C9400000895E5
:10030000CF92DF92EF92FF920F931F93CF93DF93E1
:100310006C017A018B01C0E0D0E0CE15DF0581F0E1
:10032000D8016D918D01D601ED91FC910190F08184
:10033000E02DC6010995892B11F02196EECF7E01A3
:10034000C701DF91CF911F910F91FF90EF90DF9048
:10035000CF9008950E945B2786E094E00E94050EEE
:1003600021E0892B09F420E0822F0895EF92FF927B
:100370000F931F93CF93DF93EC01CB01FB01A1817E
:10038000EA2EF12C411103C0A1E0B0E002C0AFEFB2
:10039000BFEF8E01035A1F4FF80120813181BC014C
:1003A0006F5F7F4FAE0DBF1DA60FB71FA617B70714
:1003B00009F1322723273227FB015191BF0125275D
:1003C000F901FF2754E0F595E7955A95E1F72E27B7
:1003D0003F27F901FE2FEE27F295F07F2E273F27CA
:1003E000F901FF2755E0EE0FFF1F5A95E1F72E2781
:1003F0003F27DCCFF80131832083442331F0FC0117
:100400003683F8012081FC0127830E94B5108E01FC
:10041000035D1F4F7E01FDE0EF0EF11CB801C70127
:100420000E949805882371F08FA58438B9F789A9AF
:100430008150823098F7DF91CF911F910F91FF90FB
:10044000EF90089561E070E080E090E00E94F60F88
:10045000E5CFEF92FF920F93CF93DF93EB01542FF1
:100460007901402F26E02A83F70121812F705295D0
:10047000507F522B5B8320812C830E94B60189819F
:1004800090E00397F70120813181820F931F9183C0
:100490008083DF91CF910F91FF90EF900895EF92BD
:1004A000FF920F931F93CF93DF93CDB7DEB765977E
:1004B0000FB6F894DEBF0FBECDBF082F142FE42E69
:1004C000F12CA701CE0102960E947827E4EBF2E01E
:1004D0001E5F11838DE082830383A701BE016E5FDF
:1004E0007F4F88EB92E00E94782784EB92E065963C
:1004F0000FB6F894DEBF0FBECDBFDF91CF911F9135
:100500000F91FF90EF900C94B5100F931F93CF9322
:10051000DF93FC01E85AFF4F408150E0A0E0B0E0DB
:1005200020E030E08C010A5A1F4F241735077CF475
:10053000F801808191818A0F9B1F1796FC01C08171
:10054000D181C617D70729F02F5F3F4FEECF80E04C
:1005500090E0DF91CF911F910F9108950F931F931A
:10056000CF93DF93EC0188819981009729F02A814C
:100570003B812617370788F48B016F5F7F4F0E94FE
:100580009526009761F0998388831B830A832C81C9
:100590003D81232B11F4FC01108281E001C080E039
:1005A000DF91CF911F910F910895EF92FF920F93DA
:1005B0001F93CF93DF93EC017B018A01BA010E9464
:1005C000AE022881398181110DC02115310519F044
:1005D000C9010E940C26198218821D821C821B826E
:1005E0001A8206C01D830C83B701C9010E9491279E
:1005F000CE01DF91CF911F910F91FF90EF90089561
:100600006115710579F0FB0101900020E9F7319740
:10061000AF01461B570BDC01ED91FC910280F38189
:10062000E02D099480E090E008958F929F92AF9220
:10063000BF92EF92FF920F931F93CF93DF93CDB7AB
:10064000DEB7A1970FB6F894DEBF0FBECDBF7C0119
:10065000FA01CB0119A2223008F42AE08E010F5DC5
:100660001F4F822E912CA12CB12CBF01A50194010A
:100670000E949224F901CA01015011096A3014F450
:10068000605D01C0695CD8016C93232B242B252B62
:1006900061F7B801C7010E940003A1960FB6F89454
:1006A000DEBF0FBECDBFDF91CF911F910F91FF90A5
:1006B000EF90BF90AF909F908F9008951F920F92F0
:1006C0000FB60F9211242F933F934F935F936F9325
:1006D0007F938F939F93AF93BF93EF93FF9386E0A6
:1006E00094E00E94D10EFF91EF91BF91AF919F9145
:1006F0008F917F916F915F914F913F912F910F90CB
:100700000FBE0F901F9018951F920F920FB60F9269
:1007100011242F938F939F93EF93FF93E0911604EF
:10072000F09117048081E0911C04F0911D0482FD7A
:1007300012C0908180911F048F5F8F7320912004DD
:10074000821751F0E0911F04F0E0EA5FFB4F958FB4
:1007500080931F0401C08081FF91EF919F918F9141
:100760002F910F900FBE0F901F901895EF92FF9250
:100770000F931F93CF93DF936115710511F480E000
:100780001CC041155105C1F07B01EC018C819D819C
:100790008A01080F191FB801CE010E94AE028823FA
:1007A00071F3288139818C819D81B701820F931F5C
:1007B0000E9491271D830C8381E0DF91CF911F91CF
:1007C0000F91FF90EF900895CF93DF93BC0186E0E7
:1007D00094E00E940003EC016AE572E086E094E098
:1007E0000E9400038C0F9D1FDF91CF910895CF923F
:1007F000DF92EF92FF920F931F93CF93DF93CDB7CA
:10080000DEB76B970FB6F894DEBF0FBECDBF8C017D
:100810001F8A1E8A198E188E1B8E1A8E40E050E099
:100820006CE572E0CE0146960E94D502198A188ABC
:100830001B8A1A8A1D8A1C8A40E050E06CE572E02F
:10084000CE0140960E94D5020A5F1F4F85E0E82E38
:10085000F12CCE0101966C01F80182918F0180315B
:1008600040F441E050E06FE772E0CE0146960E940E
:10087000B603F80180811B861A861D861C861F869A
:100880001E8640E1B60190E00E945423F6010190DB
:100890000020E9F73197AF014C195D09B601CE018F
:1008A0000A960E94D502888999890097A9F06A85DD
:1008B0007B856115710571F04A895B892E853F85BD
:1008C0004217530738F00E9491278E859F859D8B94
:1008D0008C8B10C00E940C268A859B85998B888BF7
:1008E0008C859D859B8B8A8B8E859F859D8B8C8B24
:1008F0001B861A868A859B850E940C264C895D89F9
:1009000068897989CE0146960E94B603E114F10404
:1009100041F041E050E061EB72E0CE0146960E946A
:10092000B603F1E0EF1AF10808F096CF0A8D1B8D9F
:100930000115110519F41092F40310C001311105CD
:1009400010F001E110E06E897F89A80184EF93E047
:100950000E949827F801EC50FC4F108288899989F1
:100960000E940C268E899F890E940C266B960FB6DA
:10097000F894DEBF0FBECDBFDF91CF911F910F91D5
:10098000FF90EF90DF90CF9008950F931F93CF9338
:10099000DF938C01C0E0D0E0F801EC0FFD1F649103
:1009A000662341F086E094E00E94F30E892B11F05B
:1009B0002196F2CFCE01DF91CF911F910F91089533
:1009C000CF93DF930E94C504EC016AE572E086E0F4
:1009D00094E00E9400038C0F9D1FDF91CF9108953A
:1009E000E6E0F4E0A089B18982E08C93A485B58526
:1009F0001C92A685B7858FEC8C93108EA489B5893F
:100A000086E08C93A289B3898C9180618C93A289B2
:100A1000B3898C9188608C93A289B3898C9180680A
:100A20008C930288F389E02D80818F7D80830895E7
:100A3000CF93DF93EC018091840590918505892BFC
:100A400059F48091040690E0880F991F0E94742544
:100A50009093850580938405809186052091840577
:100A600090918505E22FF92FE80FF11DE80FF11D98
:100A7000D183C083809186058F5F80938605DF9147
:100A8000CF9108958091EB0490E0880F991F0E9408
:100A90007425FC01909382058093810587E895E099
:100AA000918380838DE895E09383828382EA95E049
:100AB0009583848385EB95E0978386838BEB95E024
:100AC0009187808785E0809383050895CF93DF9396
:100AD000EC018091810590918205892B11F40E948F
:100AE0004205809183052091810590918205E22F36
:100AF000F92FE80FF11DE80FF11DD183C08380911C
:100B000083058F5F80938305DF91CF910895262F12
:100B1000269526952695820F911DFC01808990E0EF
:100B2000677002C0959587956A95E2F78170089580
:100B3000EF92FF920F931F93CF93DF93CDB7DEB762
:100B4000C254D1090FB6F894DEBF0FBECDBF8C01E1
:100B50007B012091F30330E08091F20390E0049652
:100B60002817390709F48CC0E0916C03F0916D03EC
:100B700081810E94620F20916A0330916B0301977B
:100B800019F423137BC07CC0231382C01BA20E94D4
:100B9000A9108BA18EBD00000DB407FEFDCF8EB550
:100BA00089838CA18EBD00000DB407FEFDCF8EB5EC
:100BB0008A839BA1992349F0292F30E0482F50E0E8
:100BC0004217530714F48FEF890F803208F08FE13A
:100BD000DE0113969E012E5D3F4FF9019E2F921B61
:100BE000981750F493819EBD00000DB407FEFDCF11
:100BF0009EB59D933196F2CFE0916C03F0916D0319
:100C000061E080810E948B0F2091F30330E080919E
:100C1000F20390E004962817390739F090916A039F
:100C200080916B0398130E94A9104A81442341F1DB
:100C30008091F303682F70E02091F20330E02C5F85
:100C40003F4F62177307C9F0837021E2829FC00192
:100C50001124FC01E259FC4F108250E04F5F5F4FBE
:100C6000BE016E5F7F4F81599C4F0E947827809113
:100C7000F3038F5F8093F30303C0FFCF0E94A9109B
:100C8000E091F2038091F3038E1314C080E081C0E1
:100C9000E22FE37081E28E9FF0011124EA51FD4FB3
:100CA000DE01929601900D928A95E1F72F5F2093D5
:100CB0006A036DCFE37081E28E9FF0011124E25947
:100CC000FC4FD70101900D928A95E1F78091F203D4
:100CD0008F5F8093F2032091F30330E090E004965D
:100CE0002817390739F090916A0380916B039813A4
:100CF0000E94A910F7018281863871F4F80170967C
:100D0000C801489611921782E817F907D9F7F80138
:100D100010A28781818714C08738A0F0883839F500
:100D2000F7013396D80150962BE0E20EF11C819129
:100D30008D93878117968C931797EE15FF05B9F75A
:100D400081E027C08538E1F7F70182859385F801B6
:100D500093878287F70184859585F8019587848735
:100D6000F70186859785F80197878687E9CF8938C7
:100D700039F7F70183819481F80193878287F7011E
:100D800085819681F80195878487F7018781908511
:100D9000EACFCE5BDF4F0FB6F894DEBF0FBECDBFFC
:100DA000DF91CF911F910F91FF90EF90089521EB6C
:100DB00031E0FC01318320830C94F217CF93DF9351
:100DC000EC010E94D706CE01DF91CF910C940C2646
:100DD0002F923F924F925F926F927F928F929F924B
:100DE000AF92BF92CF92DF92EF92FF920F931F9339
:100DF000CF93DF93CDB7DEB7C855D1090FB6F894BE
:100E0000DEBF0FBECDBF1C016FAF5EAF4DAF2496EE
:100E10002FAF249723961FAF0EAF23972996BFAE0F
:100E2000AEAE2997B82CFC01E35AFF4F8FEF9FEF2E
:100E3000918380832696EFAE26972796FFAE27975D
:100E40002796AEADBFAD279720E030E0612C912C06
:100E50006C2D70E063967FAF6EAF639763968EAD37
:100E60009FAD63972817390704F5ED91FD918281B5
:100E7000938183309842B1F4309711F0329702C0D9
:100E8000E0E0F0E08285882369F0939480FD63942C
:100E900084FD639485FD639482FD639483FD639474
:100EA00081FD63942F5F3F4FD9CF6EE0969EC001C6
:100EB00011240E947425F101E15BFF4F918380832F
:100EC00029968EAD9FAD29972F969FAF8EAF2F9706
:100ED0006C0100E010E0712C512C412C812CAB2DC9
:100EE000B0E02B96BFAFAEAF2B972B96EEADFFAD1C
:100EF0002B970E171F07ACF5D601ED90FD906D01F5
:100F0000F701A280B38060817181CE0101960E94B9
:100F10001F148B89833008F07394A114F8E2BF0684
:100F200011F483941BC023E0A21628E2B206B1F4A8
:100F3000E114F10419F0F701329702C0E0E0F0E0AB
:100F40008681882359F0439484FD539485FD5394FE
:100F500082FD539483FD539481FD53940F5F1F4F83
:100F6000C4CF37E0439EC00111240E947425F101D3
:100F7000EA5AFF4F91838083F997A3E1B6E0C1015C
:100F80008596119217821D928E179F07D1F78101C6
:100F9000035F1F4F10936D0300936C03FFB6F8942B
:100FA00080910506811127C0E6EFF1E08491EAE027
:100FB000F2E09491E82FF0E0EE0FFF1FE253FE4FB6
:100FC000A591B491EC91E92321F461E08AE00E94BB
:100FD0008B0F61E08AE00E94BA0F8CB580618CBDF6
:100FE0008CB580648CBD61E08DE00E94BA0F61E039
:100FF0008BE00E94BA0F809105068F5F80930506F3
:10100000FFBE10926A0310926B031092E7021092D7
:10101000E80210920803109209031092290310921B
:101020002A0310924A0310924B031092F20310927B
:10103000F30310926F0310927003109290031092BA
:1010400091031092B1031092B2031092D203109246
:10105000D30362E0D1011E968C910E94BA0F61E029
:10106000F10185850E94BA0FD10150968C918F3F76
:1010700019F060E00E94BA0F0E94861061E0F10151
:1010800085850E948B0F6EE170E080E090E00E9409
:10109000F60FD10150968C918F3F81F464E670E099
:1010A00080E090E00E94F60F81E08093B5028EE030
:1010B0008093B60284EB92E00E94B510F101818525
:1010C0009285892B29F081E0828BE45AFF4F1082B0
:1010D0007101FDE2EF0EF11CB701C8010E949805F5
:1010E000882341F0D1019F968C91813851F084384A
:1010F00099F707C061E070E080E090E00E94F60F91
:10110000EBCF1982BFADBB2331F0DD24D394EDAD1D
:10111000FEADEF2B09F4D12C2496FFAD2497FF23CD
:1011200041F0CC24C39423962EAD3FAD2397232BBF
:1011300009F4C12C27EEE22E20E0F22E00E010E0B0
:1011400023966EAD7FAD23976E5F7F4F21967FAF65
:101150006EAF2197ADACBEAC72E0A70EB11C650CB2
:10116000F7013196449150E04E5F5F4FB701CE01D9
:1011700001960E944B230130110581F48B869C86D9
:101180004D866E86D10119968D919C911A97892B67
:1011900009F4F5C48A8582608A8758C00230110537
:1011A00059F4DD2009F4EBC4888D8064888F8C8D20
:1011B00080648C8F78A24AC00330110591F4DD2041
:1011C00019F08E8980648E8BCC2009F4D8C48E856A
:1011D00080648E878A8980648A8B8A8D80648A8FF6
:1011E00035C00430110551F4F10181859285892BB8
:1011F00009F4C5C48E8181608E8328C00530110535
:1012000071F4DD2009F4BBC4ADADBEAD11968C9177
:1012100011978E834C914F8350E0B50113C0063077
:101220001105A1F4CC2009F4B7C42396EEADFFADAF
:10123000239781818E8340814F8350E021966EAD4C
:101240007FAD2197CE0108960E94782740E0BE012D
:101250006F5F7F4FC1010E94B6010F5F1F4FF1E228
:10126000EF0EF11C0730110509F07ACF1EAA1DAA56
:101270002D961FAE1EAE2D9722961FAE229711E01F
:1012800066246394712C9E012F5F3F4F5901B10179
:10129000615B7F4F69967FAF6EAF69972D968EAD7C
:1012A0009FAD2D976396AEADBFAD63978A179B0731
:1012B0000CF07EC22796EEADFFAD2797E190F1903E
:1012C0002796FFAFEEAF2797D70112968D909C908F
:1012D00013976D917C91CE0182960E941F14DCA819
:1012E0008114B8E29B06E1F48CE08D0D8A8384E0E2
:1012F0008E838F83D886D9867A866B86EFEF6E1AB7
:101300007E0A88E28C871D8681E08E874D2D50E015
:10131000BE016C5D7F4FCE010F960E947827B6C14B
:10132000F3E08F16F8E29F0609F0BAC1E114F10468
:1013300029F0270122E0421A510802C0412C512C09
:10134000D2011A96BC91BDAFF201E280F38069969A
:10135000AEADBFAD69978D919C914C012296EFADDA
:101360002297BEE0EB9F800C911C11248EE0D401EB
:101370001D928A95E9F7F40151824082FDADFF2369
:1013800069F122962FAD22972F5F22962FAF2297D9
:10139000F0FF04C0D40116961C931F5FBDADB4FFCF
:1013A00003C0F40117831F5FFDADF5FF04C0D40136
:1013B00018961C931F5FBDADB2FF03C0F4011187E7
:1013C0001F5FFDADF3FF04C0D4011A961C931F5F8D
:1013D000BDADB1FF03C0F40113871F5F8FE08D0D1A
:1013E0008A8384E0C82ECE82CF8283E08D0D8887E9
:1013F00089877A866B8688E28C8783E08D8781E097
:101400008E878DAD8E7F8F87C3010196888B998BD8
:10141000D40113969C938E931297F30132962596DE
:10142000FFAFEEAF25974D2D50E0BE016C5D7F4FB5
:10143000CE0142960E94782700E09E012B5C3F4F30
:1014400042E0B501C1010E942902FCE0FA83CE828C
:101450001F82D201ED91FC910484F585E02DC2013B
:101460000995882319F08E8182608E83BDADB1FF0E
:1014700003C08F8184608F83F10181859285892BE0
:10148000C1F061E872E0C7010E948827892B89F0CA
:1014900066E872E0C7010E948827892B51F060E955
:1014A00072E0C7010E948827892B19F08F8188601C
:1014B0008F838DAD8C7031F08E8180648E838F81AF
:1014C00080618F83FDADF4FF03C08E8180618E83C8
:1014D0002DAD25FF03C08E8180628E83D201ED91F8
:1014E000FC910480F581E02DC2010995E82ED2011E
:1014F000ED91FC910084F185E02DC2010995F82E53
:10150000E886D201ED91FC910484F585E02DC201BD
:101510000995882319F088858F5F8887F986F401FB
:1015200083818A8782818B87F2E0DF1205C08DA1DB
:101530008C878CA18D8702C01C861D8681E08E87DA
:1015400000E09E012B5C3F4F42E0B501C1010E94CB
:101550002902C12CD12C2E2D30E061963FAF2EAF49
:1015600061976F2D70E067967FAF6EAF679761965A
:101570008EAD9FAD6197C816D9060CF05EC07C0198
:10158000EC18FD089DE1E916F1041CF00CE1E02ED9
:10159000F12C83E08E0D8A83A70160E070E0CE011C
:1015A00006960E94812767968EAD9FAD67978C192E
:1015B0009D09E816F9060CF4C701181619068CF5F2
:1015C0002196BFAEAEAE2197D601AA19BB0965968A
:1015D000BFAFAEAF659721968EAD9FAD21978A19AB
:1015E0009B098E159F05ECF465966EAD7FAD6597F2
:1015F0002196EEADFFAD21976E0F7F1FD201ED91C9
:10160000FC910284F385E02DC20109952196EEAD8F
:10161000FFAD2197858331962196FFAFEEAF2197DD
:10162000DACF00E09E012B5C3F4F42E0B501C101E3
:101630000E942902CE0CDF1C9ACF8DAD807309F475
:10164000A8C08EE08A8386E48E8384E18F8383E062
:10165000888782E089872596FFAD2597FA872496AB
:101660002FAD24972B872596EEADFFAD2597D4019E
:101670001596FC93EE931497F3E06F0E711C99E2AC
:101680009C878D8781E08E871F86188A00E09E01E7
:101690002B5C3F4F42E0B501C1010E9429027DC091
:1016A000811429E2920609F078C0E114F10421F0D6
:1016B00032E0E31AF10802C0E12CF12C4CE04A833D
:1016C00084E08E838F83D701ED91FC910680F781B2
:1016D000E02DC7010995882E888789877A866B86D1
:1016E000BFEF6B1A7B0A8DA18C878CA18D8781E05F
:1016F0008E8700E09E012B5C3F4F42E0B501C101A7
:101700000E942902C12CD12CE82DF0E0FEAFEDAFF4
:101710002DAD3EADC216D3060CF03FC049018C186A
:101720009D083DE1831691041CF0BCE18B2E912CA9
:1017300083E0880D8A832501B6016A197B09219609
:101740007FAF6EAF2197C2018A199B098815990551
:10175000A4F421966EAD7FAD2197640D751DD70160
:10176000ED91FC910084F185E02DC7010995F2010E
:101770008583FFEF4F1A5F0AE6CF00E09E012B5CE6
:101780003F4F42E0B501C1010E942902C80CD91C9B
:10179000BFCF25966EAC7FAC25972D962EAD3FAD75
:1017A0002D972F5F3F4F2D963FAF2EAF2D9776CDC4
:1017B000F101EF5AFF4F22963FAD2297308384E02C
:1017C0008A831E8200E09E012B5C3F4F42E0BE01F7
:1017D0006F5F7F4FC1010E94290218AE1FAA299690
:1017E000AEACBFAC2997CC24C394D12CE2E09E2EA2
:1017F000E12C210146E5440E511CF7E0FF2EA8E044
:101800008A2EC60101972B966EAD7FAD2B9786175A
:1018100097070CF08BC0D5016D907D905D01F301B1
:1018200060817181CE0182960E941F14D3011296AD
:101830008D919C9113978115984209F073C09CA9D2
:101840008FEF810F8987A6019601220F331F2996FA
:10185000EEADFFAD29972E0F3F1F7E2C872D8E19E1
:101860002B966EAD7FAD2B9746175707F4F5F90110
:10187000A191B1919F0112966D917C911397633064
:10188000784299F5109721F0BD016250710902C0AC
:1018900060E070E0F201A081B181FD0187E0789EF7
:1018A000E00DF11D1124DF018F2D1D928A95E9F7BE
:1018B000DB0116968C917183608382FF02C01283D4
:1018C0001F5F83FF02C013831F5F81FF02C0168367
:1018D0001F5F84FF02C014831F5F85FF02C0158352
:1018E0001F5F73944F5F5F4FB9CF8A82923039F494
:1018F0009DA19E839CA19F83B1E0B88706C099A952
:101900009E8398A99F83988693948A8700E09E017E
:10191000295C3F4F43E0BE016F5F7F4FC1010E94D2
:101920002902E72CEFEFCE1ADE0A6BCFF101E85A5D
:10193000FF4FE0821AAE19AEA12CB12C612C712C94
:101940002296FFAD2297CF2ED12C21012FE4420EFB
:10195000511C2DE0F22E11E034E0832E6C147D0436
:1019600084F0C12CD12CA12CB12CF12C310136E505
:10197000630E711C8DE0582E4424439494E0892E0C
:101980008FC0D201ED91FC91EA0DFB1DA081B181C8
:101990002281338184819581FA821E821F82188779
:1019A00019861A868B863C872D879E878F871A9685
:1019B0008C9180FD1A8784FF03C09A8592609A8774
:1019C00085FF03C09A8594609A8782FF03C09A8539
:1019D00098609A8783FF03C09A8590619A8781FFF8
:1019E00003C08A8580688A8700E09E01275C3F4F9C
:1019F00044E0BE016F5F7F4FC1010E942902BFEF2B
:101A00006B1A7B0AEEE0AE0EB11CA8CFD301ED91AC
:101A1000FC91EC0DFD1D00811181F8016281738143
:101A2000CE0182960E941F148CA95A828230E9F559
:101A30008DA18E838CA18F83488619861A868B860A
:101A40001C861D861E861F86D80116968C9181FFE6
:101A500002C0B0E4BA8782FF03C09A8592609A8779
:101A600083FF03C09A8594609A8784FF03C09A8598
:101A700098609A8785FF03C08A8580618A8700E025
:101A80009E01275C3F4F44E0BE016F5F7F4FC10165
:101A90000E942902EFEFAE1ABE0AF7E0CF0ED11C6A
:101AA000AE14BF040CF4B2CF07C089A98E8388A9F5
:101AB0008F8398869394C1CF1CAE1BAEE12CF12C82
:101AC0002B962EAD3FAD2B97E216F3066CF52F96B5
:101AD000AEADBFAD2F97ED91FD912F96BFAFAEAFDD
:101AE0002F9760817181CE0182960E941F144CA9AC
:101AF00083E0840F8A8350E0BE016C5D7F4FCE018E
:101B000006960E9478271A8A1B8A00E09E01255CAF
:101B10003F4F45E0BE016F5F7F4FC1010E94290228
:101B2000BFEFEB1AFB0ACCCF1BA21AA286E08A8376
:101B300083E08E8301E09E012E5D3F4F4FE0BE01AA
:101B40006F5F7F4FC1010E942902C85ADF4F0FB655
:101B5000F894DEBF0FBECDBFDF91CF911F910F91E3
:101B6000FF90EF90DF90CF90BF90AF909F908F90BD
:101B70007F906F905F904F903F902F90089540E03E
:101B8000BE016F5F7F4FC1010E94B6010F5F1F4F03
:101B9000E1E2EE0EF11CE4CA40E0BE016F5F7F4F50
:101BA000C1010E94B60162CBFC01538D448D252FEB
:101BB00030E0842F90E0821B930B541710F0CF96E7
:101BC000089501970895FC01918D828D981761F019
:101BD000828DDF01A80FB11D5D968C91928D9F5F64
:101BE0009F73928F90E008958FEF9FEF0895FC010F
:101BF000918D828D981731F0828DE80FF11D858DC2
:101C000090E008958FEF9FEF0895FC01918D228D54
:101C1000892F90E0805C9F4F821B91098F739927D9
:101C2000089580E090E0892B29F00E94AC01811199
:101C30000C9400000895833081F028F4813099F0ED
:101C40008230A1F008958730A9F08830B9F084304F
:101C5000D1F4809180008F7D03C0809180008F77C8
:101C600080938000089584B58F7702C084B58F7DFE
:101C700084BD08958091B0008F7703C08091B0003B
:101C80008F7D8093B00008953FB7F89480910B0644
:101C900090910C06A0910D06B0910E0626B5A89B5A
:101CA00005C02F3F19F00196A11DB11D3FBFBA2FEE
:101CB000A92F982F8827820F911DA11DB11DBC014E
:101CC000CD0142E0660F771F881F991F4A95D1F713
:101CD0000895DC01ED91FC9100A0F1A1E02D0994A3
:101CE00021E0FC018589811101C020E0822F089547
:101CF0000F931F93CF93DF93EC018B010E9485021A
:101D0000FC01892BD9F08081918108171907B1F462
:101D10002481211103C02581222381F0822F869501
:101D200086958695C80FD11D8DA190E0277002C0C1
:101D3000959587952A95E2F7817001C080E0DF9143
:101D4000CF911F910F910895CF93DF93EC010E94E3
:101D50008502009769F0FC016381611103C0628113
:101D6000662331F0CE010D96DF91CF910C9487055B
:101D700080E0DF91CF910895CF93DF93EC010E9433
:101D80008502009751F0FC016681662331F0CE0197
:101D90000D96DF91CF910C94870580E0DF91CF9174
:101DA0000895FC01848DDF01A80FB11DA35ABF4F18
:101DB0002C91848D90E001968F739927848FA6894A
:101DC000B7892C93A089B1898C91837080648C939E
:101DD000938D848D981306C00288F389E02D80814D
:101DE0008F7D80830895EF92FF920F931F93CF937F
:101DF000DF93EC0181E0888F9B8D8C8D981305C05B
:101E0000E889F989808185FD26C0F62E0B8D10E0CA
:101E10000F5F1F4F0F731127E02E8C8DE8120CC03F
:101E20000FB607FCFACFE889F989808185FFF5CFE5
:101E3000CE010E94D10EF1CF8B8DFE01E80FF11D76
:101E4000E35AFF4FF0829FB7F8940B8FEA89FB8922
:101E5000808180620AC09FB7F894EE89FF89608311
:101E6000E889F98980818370806480839FBF81E0E5
:101E700090E0DF91CF911F910F91FF90EF90089527
:101E8000CF93DF93EC01888D8823C9F0EA89FB8921
:101E9000808185FD05C0A889B9898C9186FD0FC018
:101EA0000FB607FCF5CF808185FFF2CFA889B989ED
:101EB0008C9185FFEDCFCE010E94D10EE7CFDF914F
:101EC000CF910895CF93DF93282F30E0F901EC5E96
:101ED000FD4F8491F901E050FE4FD491F901E45196
:101EE000FE4FC491CC2391F081110E941B0EEC2F68
:101EF000F0E0EE0FFF1FEE51FE4FA591B491EC9173
:101F0000ED2381E090E021F480E002C080E090E0E9
:101F1000DF91CF9108951F93CF93DF93282F30E067
:101F2000F901EC5EFD4F8491F901E050FE4FD49130
:101F3000F901E451FE4FC491CC23C1F0162F811159
:101F40000E941B0EEC2FF0E0EE0FFF1FE852FE4F39
:101F5000A591B4919FB7F894111104C08C91D095BC
:101F6000D82302C0EC91DE2BDC939FBFDF91CF9191
:101F70001F910895CF93DF9390E0FC01E050FE4F56
:101F80002491FC01E451FE4F8491882361F190E09B
:101F9000880F991FFC01E253FE4FC591D491FC01BB
:101FA000E852FE4FA591B491611109C09FB7F89412
:101FB0008881209582238883EC912E230BC0623088
:101FC00061F49FB7F8948881322F309583238883FA
:101FD000EC912E2B2C939FBF06C08FB7F894E8810D
:101FE0002E2B28838FBFDF91CF9108958F929F92E0
:101FF000AF92BF92CF92DF92EF92FF926B017C0182
:102000000E94440E4B015C01C114D104E104F104AF
:10201000F1F00E94440EDC01CB0188199909AA094C
:10202000BB09883E9340A105B10570F321E0C21AB7
:10203000D108E108F10888EE880E83E0981EA11C03
:10204000B11CC114D104E104F10419F7DDCFFF90F4
:10205000EF90DF90CF90BF90AF909F908F900895BA
:102060002FB7F894609107067091080680910906D1
:1020700090910A062FBF08951F920F920FB60F92EC
:1020800011242F933F938F939F93AF93BF9380918E
:10209000070690910806A0910906B0910A063091B2
:1020A000060623E0230F2D3720F40196A11DB11D54
:1020B00005C026E8230F0296A11DB11D2093060638
:1020C0008093070690930806A0930906B0930A062A
:1020D00080910B0690910C06A0910D06B0910E0612
:1020E0000196A11DB11D80930B0690930C06A09341
:1020F0000D06B0930E06BF91AF919F918F913F91C6
:102100002F910F900FBE0F901F901895E0916C03C8
:10211000F0916D0382818F3FD9F061E00E94BA0F88
:10212000E0916C03F0916D0361E082810E948B0F5E
:10213000E0916C03F0916D0360E082810E948B0F4F
:10214000E0916C03F0916D0361E082810C948B0F40
:10215000089581E78CBD81E08DBDE0916C03F09125
:102160006D0360E080810C948B0FFC014181403253
:1021700088F590916B03692F70E020916A0330E03D
:102180002C5F3F4F6217730729F1BF01937021E263
:10219000929FC0011124FC01EA51FD4F108250E0D2
:1021A0004F5F5F4F6F5F7F4F89519D4F0E94782730
:1021B00080916B038F5F80936B032091F30330E07A
:1021C0008091F20390E004962817390729F00E94C5
:1021D000A91002C080E0089581E00895EF92FF9277
:1021E0000F931F93CF93DF93CDB7DEB765970FB6ED
:1021F000F894DEBF0FBECDBF453148F5142F082F30
:10220000E42EF12CA701CE0102960E9478271E5FD2
:102210001093B50285E18093B6020093B702A7013F
:10222000BE016E5F7F4F88EB92E00E94782784EBBF
:1022300092E065960FB6F894DEBF0FBECDBFDF917A
:10224000CF911F910F91FF90EF900C94B51080E00B
:1022500065960FB6F894DEBF0FBECDBFDF91CF916C
:102260001F910F91FF90EF900895EF92FF920F93BF
:102270001F93CF93DF938C017A01D22F0E948502A6
:102280000097C9F0FC01C381C11103C0C281CC23F6
:1022900091F06C2FC8010D960E948705882359F094
:1022A0004D2FB7018C2FDF91CF911F910F91FF9090
:1022B000EF900C94EE1080E0DF91CF911F910F9181
:1022C000FF90EF900895E4EBF2E081E081838BE0F2
:1022D0008283CF010C94B510E4EBF2E081E08183BE
:1022E0008CE08283CF010C94B510E4EBF2E081E046
:1022F00081838AE08283CF010C94B510CF93DF9362
:10230000EC0182E08093B50281E18093B60281E026
:102310008093B70284EB92E00E94B510882341F0CD
:10232000FE017D96A59611921782EC17FD07D9F74D
:10233000DF91CF910895CF93DF93FC018281938148
:1023400024E0880F991F2A95E1F76AE070E00E9467
:102350002C258085882369F0EB010184F285E02D2E
:102360003097E1F0808191810E947C248130B1F02E
:1023700020C0CB01805A910981369F4378F585E0D2
:102380008093B5028CE18093B6021092B70210924E
:10239000B8026093B9027093BA021AC085E08093C4
:1023A000B5028FE08093B6021092B8021092B70285
:1023B0000BC085E08093B50280E18093B602109255
:1023C000B80284EB8093B702D093BA02C093B902EB
:1023D00084EB92E0DF91CF910C94B510DF91CF9117
:1023E00008956F3E8FEF78074CF0653F8FEF7807C9
:1023F0003CF06B3F7F4F34F083E005C080E003C0CA
:1024000081E001C082E092E09093B50292E1909366
:10241000B6028093B70284EB92E00C94B5100E9450
:102420008502FC01892B91F09481911103C0958163
:10243000992361F082E08093B5028FE18093B60228
:102440009093B70284EB92E00C94B51080E008956D
:10245000CF93DF93EC010E948502FC01892B29F1C7
:102460009481911103C095819923F9F0892F869564
:1024700086958695C80FD11D2DA130E0892F8770D4
:1024800002C0359527958A95E2F720FF0EC082E0BD
:102490008093B50284E18093B6029093B70284EBF7
:1024A00092E0DF91CF910C94B51080E0DF91CF9155
:1024B00008950F931F93CF938C010E94850200977C
:1024C000D1F0FC01C681CC23B1F06C2FC8010D9670
:1024D0000E948705882379F082E08093B50287E126
:1024E0008093B602C093B70284EB92E0CF911F9124
:1024F0000F910C94B51080E0CF911F910F9108952A
:10250000089508958B519F4FFA012487211103C02C
:1025100022E030E002C021E030E0220F331FFA0158
:10252000E20FF31F0784F089E02D309711F0BA0114
:10253000099408950F93DA01A901202FBC016B5172
:102540007F4FED91FC9111970288F389E02DCD0129
:102550000F910994FC01ED50FF4F0190F081E02DA7
:10256000309719F08B519F4F09940895FC01EF505B
:10257000FF4F0190F081E02D309719F08B519F4F64
:10258000099408950895089508950895089580E0A0
:10259000089580E0089580E090E0089581E0089536
:1025A00080E00895CF93DF93CDB7DEB7DF91CF9171
:1025B0000895FC0180859185FC01E60FF71F80815D
:1025C0000895FC0182850895FC0180859185089518
:1025D0000F931F93CF93DF93EC018B01BA01E88136
:1025E000F9810684F785E02D422F099581E08B87DC
:1025F000EF85F889309739F0BE01C801DF91CF919E
:102600001F910F910994DF91CF911F910F91089520
:10261000FC0187819085FC01E60FF71F80810895FA
:1026200080E00895FC0181850895FC0187819085F3
:102630000895FC0186810895FB0101900020E9F7CF
:102640003197AF01461B570BDC01ED91FC910684DD
:10265000F785E02D09940C940C260C940C260C9410
:102660000C2627E332E0FC013183208387819085AB
:10267000009711F00C940C260895CF93DF93EC0192
:102680000E943113CE01DF91CF910C940C26EF9272
:10269000FF920F93CF93DF93EA018B519F4F7C0101
:1026A0000F83402F50E0B901CE0108960E94782791
:1026B00081E08E8FE9A1FAA1309741F0BE01C701F8
:1026C000DF91CF910F91FF90EF900994DF91CF911F
:1026D0000F91FF90EF900895FA019C012B513F4F0D
:1026E000D901129656E001900D925A95E1F7FC013E
:1026F000E351FF4F0190F081E02D309711F0C901B7
:1027000009940895CF93DF93EC018E81481708F464
:10271000842F8987482F50E08F8198850E947827E1
:102720008D859E85009751F0DC01ED91FC91019023
:10273000F081E02DBE01DF91CF91099481E0DF911E
:10274000CF910895CF93DF93FC01E151FF4F0190AA
:10275000F081E02DEC01CB51DF4F309711F0CE012D
:102760000995229686E0FE0111928A95E9F7DF919C
:10277000CF91089583E892E00C94E00482E692E021
:102780000C94E0040F931F93CF93DF9300D0CDB749
:10279000DEB783E492E00E94C50407EF14E0F8017D
:1027A000468150E067817085CE0101960E947827AE
:1027B00049815A8160E070E02AE086E094E00E945E
:1027C00015036AE572E086E094E00E940003F801D8
:1027D000468150E067817085CE0101960E9478277E
:1027E00089819A8190931206809311060F900F9021
:1027F000DF91CF911F910F910895CF93DF93EC015B
:1028000084E392E00E94C504CE0102960E94F70381
:1028100084EF93E0DF91CF910C94E403CF93DF93A7
:10282000EC0188E292E00E94C504CE0102960E946B
:10283000F70384EF93E0DF91CF910C94E4032F92A0
:102840003F924F925F926F927F928F929F92AF9240
:10285000BF92CF92DF92EF92FF920F931F93CF938D
:10286000DF93CDB7DEB729970FB6F894DEBF0FBE62
:10287000CDBF6C014B01FC01718360831B82128A06
:10288000FB0101900020E9F7CF01861B970B9C010B
:10289000225031097901F7FCB0C0F60102890031FC
:1028A00008F0ABC0F401EE0DFF1D80818D3221F4E4
:1028B000FFEFEF1AFF0A9DC03197908199838A83B9
:1028C000202F30E039872887CE0101963C01530143
:1028D0009FEFA91AB90AF3011081812F90E00E949D
:1028E0004223892B11F03501F2CF1D3259F45301E7
:1028F000F2E0AF0EB11CF301118121E030E03D8325
:102900002C830AC01B3231F4530132E0A30EB11CF8
:10291000F30111811D821C82103349F4F50180817D
:102920008F7D883521F41181F2E0AF0EB11CBF829A
:10293000AE82A12CB12C212C312C2101612E712CC5
:1029400017FD3CC0C301C0970A9710F410530EC086
:10295000C3010E946327892B89F1C3010E9460276C
:10296000892B11F487E501C087E3181B812F90E0C4
:10297000409724F5B7FC19C021143104410420E12B
:10298000520698F4D201C10124E0880F991FAA1FB2
:10299000BB1F2A95D1F71C012D01210E311C411CB2
:1029A000511CAA24A394B12C03C0AA24AA94BA2C23
:1029B000EE81FF811191FF83EE83C0CFB7FC0DC084
:1029C0002C813D81232B69F05094409430942094C5
:1029D000211C311C411C511C04C022242A94322C7D
:1029E0002101E885F985EC0DFD1D22820F5FF601BE
:1029F000028BF2E0EF1AF1084ECF29960FB6F89449
:102A0000DEBF0FBECDBFDF91CF911F910F91FF9021
:102A1000EF90DF90CF90BF90AF909F908F907F907E
:102A20006F905F904F903F902F9008950895DC0134
:102A300016968D919C911797DC01ED91FC91068083
:102A4000F781E02D0994CF93DF93EC0183EE91E0C1
:102A50009983888387E192E09B838A8383E292E073
:102A60009D838C838E819F81DC01ED91FC9100849C
:102A7000F185E02D0995FE01EC58FF4F8081918191
:102A8000009711F00E940C26FE01EF58FF4F808145
:102A90009181009711F00E940C26CE0187559F4F1F
:102AA0000E943113CE0180579F4F0E943113CE01F7
:102AB00085589F4F0E943113CE010896DF91CF9128
:102AC0000C94D706CF93DF93EC010E942315CE011F
:102AD000DF91CF910C940C2608950895CF93DF9346
:102AE00000D000D000D0CDB7DEB7BE016F5F7F4F02
:102AF00026E0FB0111922A95E9F746E050E00296A4
:102B00000E946B2721E0892B09F420E0822F269672
:102B10000FB6F894DEBF0FBECDBFDF91CF91089501
:102B2000AF92BF92CF92DF92EF92FF920F931F93DB
:102B3000CF93DF935C017A0169018B01C0E0D0E0A3
:102B4000CC15DD0579F0F5018081918101968E0D1E
:102B50009F1D8C0F9D1F0E947C24F80181938F0183
:102B60002196EECFDF91CF911F910F91FF90EF90C3
:102B7000DF90CF90BF90AF900895AF92BF92CF9269
:102B8000DF92EF92FF920F931F93CF93DF937C011D
:102B9000D62FC72F5A01690161E0FC018081918124
:102BA0000E9484240D2F1C2FC0E0D0E0CC15DD0541
:102BB00079F0F80161918F01F7018081918101968F
:102BC0008A0D9B1D8C0F9D1F0E9484242196EECFA1
:102BD000DF91CF911F910F91FF90EF90DF90CF90F9
:102BE000BF90AF9008951F920F920FB60F921124CD
:102BF0002F933F934F935F936F937F938F939F9305
:102C0000AF93BF93EF93FF938091110690911206BB
:102C1000892B11F180910F0690911006892B49F0B4
:102C200061E083E00E948B0F1092100610920F0655
:102C300013C060E083E00E948B0F81E090E09093EE
:102C4000100680930F06809111069091120601974D
:102C50009093120680931106FF91EF91BF91AF916F
:102C60009F918F917F916F915F914F913F912F91A4
:102C70000F900FBE0F901F9018952FE231E0FC01CE
:102C8000318320830C943113CF93DF93EC010E94A6
:102C90003D16CE01DF91CF910C940C2627E431E054
:102CA000FC01318320830C943D16CF93DF93EC011C
:102CB0000E944E16CE01DF91CF910C940C262FE589
:102CC00031E0FC01318320830C944E16CF93DF93C7
:102CD000EC010E945F16CE01DF91CF910C940C267F
:102CE000BF92CF92DF92EF92FF920F931F93CF93F9
:102CF000DF93CDB7DEB728970FB6F894DEBF0FBECF
:102D0000CDBFFC017B018F5A9F4FDC012C9130E03D
:102D100040E050E080E090E0BF01615B7F4F8217B0
:102D200093070CF074C0DB01CD90DC90C40ED51E6F
:102D3000425F5F4FD6010D911C91E016F10611F034
:102D40000196EDCFC114D10409F461C0D6011696E5
:102D50000C91002309F45BC021E030E040E050E03A
:102D600060E070E080E090E00E94462529833A838D
:102D70004B835C836D837E838F839887CE0101961E
:102D800023E136E0AE01475F5F4FDC016D91CD017D
:102D9000D9016D939D0184179507B9F787017F01CC
:102DA00089E08093B5028BE18093B60288E0E3E18D
:102DB000F6E0A7EBB2E001900D928A95E1F784EB83
:102DC00092E00E94B510882311F1D801ED91FC9199
:102DD0000084F185E02DC8010995B82ED801ED9148
:102DE000FC910680F781E02DC80109954B2DBC01AF
:102DF000F60186810E944F02882349F0D60116967B
:102E00008C91F701EE5AFF4F808381E001C080E092
:102E100028960FB6F894DEBF0FBECDBFDF91CF91DD
:102E20001F910F91FF90EF90DF90CF90BF9008958A
:102E3000CF92DF92EF92FF920F931F93CF93DF9386
:102E4000FC01EF5AFF4FE081EE2EF12C40E050E004
:102E500020E030E0DC01A15BBF4F2E153F050CF0F8
:102E6000B3C00D911C911197040F151F425F5F4F66
:102E7000F801C081D1816C177D0719F02F5F3F4F9A
:102E8000ECCF0115110509F49FC0EB016C0186819F
:102E90008823E9F0F601EE5AFF4F9081891317C09D
:102EA000E881F9810084F185E02DCB010995F82EA8
:102EB000E881F9810680F781E02DCE0109954F2D3B
:102EC000BC01F80186810E944F02F82E02C0FF2447
:102ED000F394D8011B968C918823B1F0E881F98195
:102EE0000084F185E02DCE010995E82EE881F98175
:102EF0000680F781E02DCE0109954E2DBC01F80129
:102F000083850E944F02F822D80117968C9117975B
:102F1000882361F11C968C91882341F1D601ED91B3
:102F2000FC910488F589E02DBE01C601099588232E
:102F3000E1F0F60185898150858BE881F981008473
:102F4000F185E02DCE010995E82EE881F981068012
:102F5000F781E02DCE0109954E2DBC01D8011796C1
:102F60008C910E94EE10F82201C0F12CF8018085AE
:102F7000882371F18585882359F1D601ED91FC9163
:102F80000688F789E02DBE01C60109958823F9F06E
:102F9000F60185898150858BE881F9810084F1856E
:102FA000E02DCE010995D82EE881F9810680F781C0
:102FB000E02DCE0109954D2DBC01D80118968C91BC
:102FC0000E94EE10F82204C0FF24F39401C0F12CFB
:102FD0008F2DDF91CF911F910F91FF90EF90DF9098
:102FE000CF900895CF93DF93EC010E948610FE01ED
:102FF000E15BFF4F80819181009711F00E940C26C8
:10300000FE01EA5AFF4F80819181009711F00E94E2
:103010000C26FE01EF5AFF4F1082C85ADF4F18826C
:10302000DF91CF9108953F924F925F926F927F927E
:103030008F929F92AF92BF92CF92DF92EF92FF92C8
:103040000F931F93CF93DF93CDB7DEB76B970FB678
:10305000F894DEBF0FBECDBF7C014C018DE0880E21
:10306000911CB701635D7F4FC4010E9498058823BE
:1030700009F49FC3D7019F96EC918E2F90E0FC013D
:10308000E158F109ED30F10508F093C3EC5CFF4F16
:103090000C94402500E010E0C12CD12C5701B1E583
:1030A000AB0EB11C4701EFE48E0E911C5FC2D7013D
:1030B000D2968C91D29753968C935397D0968C91AD
:1030C000D097833009F075C3D1968C91882339F05D
:1030D00064E170E080E090E00E94F60F6AC3F701BF
:1030E000A184B284A114B10409F44DC3D5018D911A
:1030F0009C910E947C24813009F045C36701BBE5A7
:10310000CB0ED11CF60180838701075A1F4FD801CF
:103110001D921C9221E030E040E050E0BE01655E6F
:103120007F4FC5010E949015F801408151814F5F8A
:103130005F4F518340832B8D30E0BE016F5F7F4F27
:10314000D70119968D919C911A970E9490158B8D9D
:10315000482F50E0F80120813181240F351F318341
:103160002083D6019C918E5F8093B50288E0809386
:10317000B602FBC2F70181A9833008F01AC310A977
:103180001A3009F49CC030F4173059F0183009F4A3
:103190004CC00FC31B3009F4A4C01C3009F4BDC0DF
:1031A00008C382A98701075A1F4F813019F4F8011B
:1031B00011821082D7019E968C919E9784508983AC
:1031C000F8014081518121E030E0BE016F5F7F4F07
:1031D00019968D919C911A970E94BD15D8014D9119
:1031E0005C9111974F5F5F4F4D935C93298130E065
:1031F000B7016D5C7F4FF701818592850E94BD15F7
:103200002981D8018D919C911197820F911D8D93E9
:103210009C93F70181A9813021F48093B50287E066
:10322000A1C2823009F0C5C2AEC28130F1F55701AA
:10323000BBE5AB0EB11CF50180818F5F8083670118
:10324000F9E5CF0ED11CD6014D915C9121E030E023
:10325000BE01655E7F4FF701818592850E949015C2
:10326000D6014D915C9111974F5F5F4F4D935C93E9
:103270002B8D30E0BE016F5F7F4FF7018185928516
:103280000E9490158B8D482F50E0D6012D913C91D6
:103290001197240F351F2D933C93F50190818E5F7C
:1032A0008093B5021093B60260C2823009F081C2E9
:1032B00064E170E080E090E00E94F60F64C2F701E4
:1032C00083859485009709F474C2A7014E5C5F4F13
:1032D000DC01ED91FC910684F785E02DB70109959D
:1032E00068C2F701038514850115110509F461C24F
:1032F00062A973A980E090E00E9481232DEC3FEA4F
:1033000046E65BE30E94BE239B01AC01D801ED9130
:10331000FC910288F389E02D1DC0F7010385148517
:103320000115110509F445C262A973A9072E000C05
:10333000880B990B0E94832320E030E040E85EE395
:103340000E94BE239B01AC01D801ED91FC91008845
:10335000F189E02DB701C80109952BC2F701ED5A9B
:10336000FF4F10823196108231961082F7018385CB
:103370009485009759F0DC01ED91FC910190F0816A
:10338000E02DA7014F5C5F4FB7010995F7018389D5
:10339000D1C1D701D8964C90D897D9965C90D9973F
:1033A000DA966C90DA97DB967C90DB97DC96AC90A3
:1033B000DC97DD96BC90DD97DE96CC90DE97DF96AD
:1033C000DC90DF9714960D911C911597063011052E
:1033D000D0F11696ED91FC911797E138BCE0FB0710
:1033E00090F5D701D0962C91237030E040E050E06A
:1033F00060E070E080E090E0A0E00E94682519F1B4
:10340000D701AD5ABF4F8C9181111DC081E08C93C3
:1034100099E09093B50293E19093B6021093B802AD
:103420000093B702F093BA02E093B9021092BC0283
:103430001092BB028093BE0280E98093BD0284EBB0
:1034400092E00E94B510F701858D8170382E9201AF
:10345000A301B501C601A0E00E94682531F4311036
:1034600004C081E0EC5AFF4F8083C12CD12CA12CE9
:10347000B12C2701F1E54F0E511C37018FE4680E86
:10348000711CD2018C9190E0A816B9060CF03FC0D7
:10349000F301008111810C0D1D1DD80117966C914F
:1034A000662329F0C4010E948705F8018487D801AA
:1034B00018966C91662329F0C4010E948705F801D3
:1034C0008587D8011C968C911C97811103C01D968D
:1034D0002C9101C021E0F80140815181DA011C9654
:1034E0008C91281769F0F70183859485009741F046
:1034F000DC01ED91FC910284F385E02DB701099583
:10350000BFEFAB1ABB0AEEE0CE0ED11CBACFF7016B
:10351000EC5AFF4F8081882309F44BC1332009F412
:1035200048C131968081811144C1D7011B968D918C
:103530009C911C97009709F43CC121E02083DC0199
:10354000ED91FC910680F781E02D6AC0D401ED91E8
:10355000FC91E00FF11F40815181FA0184858111B6
:103560000CC0BFEFCB1ADB0A025F1F4FF501808151
:1035700090E0C816D90654F311C0D7011B968D915F
:103580009C911C97009769F3DC01ED91FC910284FA
:10359000F385E02D20E0B7010995E3CFF70183859E
:1035A0009485009741F0DC01ED91FC910280F3815C
:1035B000E02DB70109958701045A1F4FF80180815A
:1035C000882309F4E0C081E08093B50287E080930E
:1035D000B60284EB92E00E94B510D8011C92E9C0BB
:1035E000F70180A9811104C091E02289211101C055
:1035F00090E0F701E45AFF4F9083D70152968C93E5
:10360000379710828111D5C0F70183859485009783
:1036100009F4CFC0DC01ED91FC910480F581E02D2F
:10362000B7010995C6C0F701B6A4BA94BA9410A917
:10363000EF5AFF4F208130E040E050E080E090E022
:1036400032978217930744F5C080D180C40ED51EEF
:10365000D6011A966C911A97161709F49DC0425F0D
:103660005F4F19966C91161315C0F70183859485E9
:10367000009791F0D6014D915C91DC01ED91FC91A8
:103680000084F185E02D0B2D97012F5C3F4FB70192
:10369000099502C00196D5CFF701E85AFF4F208166
:1036A00030E040E050E080E090E0329782179307EE
:1036B0000CF07FC0C080D180C40ED51ED6011496F8
:1036C0007C91149715966C9117130FC0161318C0A0
:1036D00082E08093B50286E18093B6021093B70230
:1036E00084EB92E00E94B5100BC0161779F3495F86
:1036F0005F4FD60116967C917111E8CF0196D6CF17
:10370000F70183859485009709F453C097012F5CD6
:103710003F4FD6014D915C91DC01ED91FC91048409
:10372000F585E02D0B2DB701099543C0F70195896B
:1037300080A9890F858B3DC0D701D1968C91D197F7
:10374000823939F055968C9155978F5F55968C93A9
:1037500030C0F70181859285892B59F181E08093F2
:10376000B5028DE18093B60209C09093B702BE0105
:103770006F5F7F4F88EB92E00E94782784EB92E0A6
:103780000E94B51016C0D701ED91FC910484F58517
:10379000E02DC70109950DC082E08093B50286E156
:1037A0008093B6021093B70284EB92E00E94B510AA
:1037B0005CCF6B960FB6F894DEBF0FBECDBFDF9126
:1037C000CF911F910F91FF90EF90DF90CF90BF901E
:1037D000AF909F908F907F906F905F904F903F90B1
:1037E0000895CF93DF93CDB7DEB7C359D1090FB694
:1037F000F894DEBF0FBECDBF789484B5826084BDDF
:1038000084B5816084BD85B5826085BD85B58160E4
:1038100085BD80916E00816080936E001092810062
:10382000809181008260809381008091810081601D
:1038300080938100809180008160809380008091DE
:10384000B10084608093B1008091B000816080936A
:10385000B00080917A00846080937A0080917A0031
:10386000826080937A0080917A00816080937A00F0
:1038700080917A00806880937A001092C100109243
:10388000E7041092E8041092E9041092EA041092FE
:10389000A5041092A6041092A7041092A8040E94F6
:1038A00030106B017C014B015C0108EB800E0BE0DA
:1038B000901EA11CB11C0E9430106C157D058E0558
:1038C0009F0528F086169706A806B906A0F786E099
:1038D00094E09093E6048093E5040E94F0040E9433
:1038E00030106093A5047093A6048093A70490936E
:1038F000A8046BE472E08091E5049091E6040E94D4
:1039000000030E9430106B017C014B015C011AE046
:10391000810E911CA11CB11C0E9430106C157D05FC
:103920008E059F0528F086169706A806B906A0F70B
:1039300081E08093B9040E94F0048DE592E00E943A
:10394000E40362E084E00E94BA0F61E083E00E9439
:10395000BA0F60E083E00E948B0F8CE692E09093B8
:10396000800580937F05BC018BE895E00E941C13C5
:1039700080910C0590910D059093790580937805C1
:1039800080E890E0C857DF4F99838883C858D040BB
:1039900042E0BE0168577F4F80EA95E00E948213A3
:1039A0008CE095E00E94660589EF94E00E94660530
:1039B0008EEE94E00E9466058EE094E19093FE0501
:1039C0008093FD058DEF93E1909300068093FF05B2
:1039D00082EC93E190930705809306058EEB93E1CB
:1039E00090930905809308058AEB93E190930B056A
:1039F00080930A05C657DF4F19821882CA58D040F3
:103A000042E0BE0166577F4F87EF94E00E94821329
:103A100024961FAE249760917A0570917B056115FD
:103A2000710501F1CE01875A9F4F0E941F14AC9679
:103A30000FADAC970983033010F484E101C085E138
:103A40008A83402F50E069E570E06C0F7D1F6E5F48
:103A50007F4FCE0103960E94782714E1101BDD24CE
:103A6000D39402C016E1D12C60917805709179054C
:103A70006115710509F442C0CE01875A9F4F0E941B
:103A80001F14AC960FADAC97402F50E09A012F5FFA
:103A90003F4F812F90E02817390784F56D2D70E096
:103AA000E1E0F0E0EC0FFD1F26E1D29EE00DF11DFC
:103AB00011240083033010F422E001C026E036E137
:103AC000369FC001379F900D1124E1E0F0E0EC0F2C
:103AD000FD1FE80FF91F2183029669E570E06C0F66
:103AE0007D1F6E5F7F4FA1E0B0E0AC0FBD1F8A0F5E
:103AF0009B1F0E947827D394101B125060917C0565
:103B000070917D056115710541F140917E05442359
:103B100021F1133010F1842F90E00196212F30E035
:103B20008217930714F04EEF410FB6E1DB9EC00100
:103B30001124E1E0F0E0EC0FFD1FE80FF91F4083D6
:103B40002FEF2183029650E001E010E00C0F1D1FC3
:103B5000800F911F0E947827D39460917F05709108
:103B600080056115710521F1FB0101900020E9F745
:103B70003197E61BF70B8E2F2496EFAF2497E53194
:103B800020F094E124969FAF249724964FAD24977C
:103B9000481710F089E001C088E025968FAF25977F
:103BA00050E083E490E08C0F9D1F02960E947827DE
:103BB0008091810590918205892B11F40E94420524
:103BC00020E030E042E155E08091830590E0281745
:103BD00039072CF020E030E044E155E02FC0E091BF
:103BE0008105F0918205C901880F991FE80FF91F1F
:103BF0000190F081E02D828193818330984241F4DD
:103C0000309711F0329702C0E0E0F0E05687458728
:103C10002F5F3F4FD9CFE0918405F0918505C90111
:103C2000880F991FE80FF91F0190F081E02D828124
:103C300093818330984251F02F5F3F4F80918605EA
:103C4000682F70E02617370734F309C0309711F05A
:103C5000329702C0E0E0F0E050A3478FEDCF882319
:103C600041F08EEC95E00E94180584ED95E00E94ED
:103C700018058091160590911705A0908405B090C5
:103C80008505E0908105F090820521E024963FAD06
:103C90002497311101C020E0DC01ED91FC910480FA
:103CA000F581E02D80908605C09083058E010D5B27
:103CB0001F4FAE014F5F5F4F6D2D09958091160527
:103CC00090911705DC01ED91FC9100A4F1A5E02D88
:103CD0000995109280001092810010928500109238
:103CE000840088E09DE39093890080938800809110
:103CF000810088608093810080918100846080933E
:103D0000810080916F00826080936F008CE7882E25
:103D1000912C8C0E9D1EB2E08B0E911C99E5692EA4
:103D2000712C6C0E7D1E02E0600E711C582C492C0B
:103D300080E195E00E94171588E0E5EFF5E0DE01EF
:103D4000A459BF4F01900D928A95E1F788E0FE01DA
:103D5000E459FF4FDE01AC58BF4F01900D928A9598
:103D6000E1F788E0FE01EC58FF4FDE01A458BF4F99
:103D700001900D928A95E1F7CE0184589F4F0E94E1
:103D80006E15882309F453C080ED90E00E94C504AD
:103D9000C4010E94F70384EF93E00E94E403EE96CF
:103DA0008EAD9FADEE970E941715CE0184589F4FA0
:103DB0000E946E15882379F1EE960EAD1FADEE9739
:103DC000C8010E941715F801EB51FF4F88E0DE0192
:103DD000119601900D928A95E1F788E0FE013196E7
:103DE000DE01AD5BBF4F01900D928A95E1F788E04F
:103DF000FE01ED5BFF4FDE01A75ABF4F01900D9210
:103E00008A95E1F746E050E0B301852D942D0E949C
:103E10006B27892B79F082E990E00E94C504852DFB
:103E2000942D0E94F70384EF93E00E94E4030E9424
:103E3000110E7ECF8091020510920205882321F099
:103E400089EB90E00E94E0040E943010693E7340CC
:103E50008105910508F462C00E943010DC01CB019D
:103E6000885E9340A109B1098C019D0140E050E0BA
:103E7000BA01C457DF4F8883CC58D040C357DF4FB7
:103E80001883CD58D040C257DF4F2883CE58D0403A
:103E9000C157DF4F3883CF58D040C057DF4F4883DA
:103EA000C059D040CF56DF4F5883C159D040CE566D
:103EB000DF4F6883C259D040CD56DF4F7883C35956
:103EC000D040A090DD02B090DE02C090DF02D09022
:103ED000E002E090E102F090E2020091E302109132
:103EE000E402C457DF4F2881CC58D040C357DF4F7E
:103EF0003881CD58D040C257DF4F4881CE58D0408E
:103F0000C157DF4F5881CF58D04060E070E080E06B
:103F100090E00E945F2511F008F071C084E00E94DB
:103F2000620F8C018091DB029091DC020817190767
:103F300051F00E9430106093D7027093D8028093A2
:103F4000D9029093DA020E943010C090D702D0902C
:103F5000D802E090D902F090DA02DC01CB018C1992
:103F60009D09AE09BF09C397A105B10508F442C078
:103F70008091D5029091D60208171907D9F11093B4
:103F8000D6020093D50201301105A1F50E9432231B
:103F90006C01CC57DF4F99838883C458D04042E0EE
:103FA000BE016C577F4F87EF94E00E94821384E834
:103FB00090E00E94C5040D2C000CEE08FF08F7FEEF
:103FC0000EC06DE286E094E00E94F30E4427552770
:103FD000BA014C195D096E097F092AE003C02AE085
:103FE000B701A60186E094E00E94150382E890E004
:103FF0000E94E0041093DC020093DB02D0CE0E940A
:1040000030108B019C016093DD021093DE0220933F
:10401000DF023093E0021092E1021092E20210926D
:10402000E3021092E4028EEA90E00E94C5044091FF
:10403000FD0450E06091FE047091FF04CE018A57A8
:104040009F4F0E947827CA57DF4F48815981C65831
:10405000D04060E070E02AE086E094E00E94150322
:104060006AE572E086E094E00E94000357CFAF92C9
:10407000BF92CF92DF92EF92FF920F931F93CF9355
:10408000DF9300D000D000D0CDB7DEB7E6E0F4E09B
:104090001382128288EE93E0A0E0B0E084839583DF
:1040A000A683B7838FE091E09183808385EC90E0D5
:1040B0009587848784EC90E09787868780EC90E0F2
:1040C000918B808B81EC90E0938B828B82EC90E0E3
:1040D000958B848B86EC90E0978B868B118E128E5D
:1040E000138E148EE3EAF4E016821782108611868E
:1040F000128613861486158616861786108A118AEC
:10410000128A138A148A158A00E115E083EE91E081
:10411000D80111969C938E9387E192E013969C931D
:104120008E93129783E292E015969C938E93149748
:1041300084E690E01B969C938E931A971D961C9292
:104140001E921C971F961C921E921E9781E05096FD
:104150008C93509752961C921E92519754961C9293
:104160001E92539781EB91E019969C938E9318972A
:1041700010926805109267051092690510926A0501
:1041800010926B0510926C0510926D0510926F05E0
:1041900010926E05109270051092720510927105C2
:1041A00010927305109274058FEF9FEF9093760530
:1041B0008093750586E0C82E5596CC92559792E06F
:1041C000D92E5696DC92569789E057968C9357973E
:1041D0008FEF58968C93589759968C931092790537
:1041E0001092780510927B0510927A0510927D0549
:1041F00010927C0510927E051092800510927F052A
:104200001092820510928105109283051092850507
:1042100010928405109286058CE792E090938805B1
:1042200080938705E12C28E2F22EF0928A05E09235
:1042300089058091EB048F5F8093EB0423E142E0DA
:1042400061E872E08BE895E00E94AD2222E042E056
:1042500066E872E080EA95E00E94AD223BE8A32E7A
:1042600032E0B32EB092B605A092B505F092B80533
:10427000E092B7058091EB048F5F8093EB0424E01C
:1042800040E260E972E089EB95E00E94AD22B092D5
:10429000CF05A092CE05F092D105E092D005809195
:1042A000040620E932E03093D5052093D40523E0BD
:1042B00038E23093D7052093D6058E5F80930406AD
:1042C00087E791E09093D3058093D20580E28093B5
:1042D000D8051092D9051092F0051092F2051092AF
:1042E000F1051092F4051092F3051093F605009372
:1042F000F505E7EFF5E0DF011D92CA94E9F788E1E3
:1043000095E0F8019783868388E0EDEFF5E0DF0123
:104310001D928A95E9F765E972E08BE895E00E94C5
:104320001C131E821D8242E0BE016B5F7F4F80EA3C
:1043300095E00E948213D8011696ED91FC91179793
:1043400014870387ECE0F5E08DE992E091838083A8
:10435000F382E2828091EB048F5F8093EB0422E092
:104360004EE162EA72E087EF94E00E94AD2207EF2F
:1043700014E0F801D18687E491E0918380831C8268
:104380001B821A82198242E0BE016F5F7F4FC80113
:104390000E9482138FE591E0D8018D939C93ECEEFF
:1043A000F4E087EA92E09383828380E099E2958348
:1043B00084838091EB048F5F8093EB0481E291E032
:1043C000918380838CEA92E09187808784E0828762
:1043D00026960FB6F894DEBF0FBECDBFDF91CF910A
:1043E0001F910F91FF90EF90DF90CF90BF90AF9013
:1043F0000895DC0116968D919C911797DC01ED9143
:10440000FC9106A0F7A1E02D099404970C94F921E2
:10441000DC0116968D919C911797DC01ED91FC9132
:1044200004A0F5A1E02D099404970C940822DC0166
:1044300016968D919C911797DC01ED91FC9102A04D
:10444000F3A1E02D099404970C941722DC01169631
:104450008D919C911797DC01ED91FC9100A0F1A149
:10446000E02D099404970C942622DC0116968D9178
:104470009C911797DC01ED91FC91068CF78DE02D56
:10448000099404970C943522DC0116968D919C9129
:104490001797DC01ED91FC91048CF58DE02D0994CA
:1044A00004970C944422DC0116968D919C911797E9
:1044B000DC01ED91FC91028CF38DE02D09940497C1
:1044C0000C945322DC0116968D919C911797DC0178
:1044D000ED91FC91008CF18DE02D099404970C94E2
:1044E0006222DC0116968D919C911797DC01ED916B
:1044F000FC910688F789E02D099402970C947122AB
:10450000DC0116968D919C911797DC01ED91FC9141
:104510000488F589E02D099402970C948022DC012F
:1045200016968D919C911797DC01ED91FC91028874
:10453000F389E02D099402970C948F22DC011696E2
:104540008D919C911797DC01ED91FC910088F18988
:10455000E02D099402970C949E22CF93DF93FC01E7
:104560007383628383E098E2958384838091EB0474
:104570008F5F8093EB0487E392E091838083822FA7
:10458000253108F084E186831086178211864287E0
:10459000138614861686158696E0DF011F96ED01B8
:1045A00019929A95E9F7222331F0EF0190E00E94E9
:1045B000742598878F83DF91CF91089587EF94E0DA
:1045C0000E945F1680E195E00C9423158F929F92D4
:1045D000AF92BF92CF92DF92EF92FF92CF93DF9391
:1045E000EC01688179818A819B8161157105810562
:1045F000910521F464E279ED8BE597E02DE133EF4D
:1046000041E050E00E94B42449015A019B01AC01F1
:10461000A7EAB1E40E94D3246B017C01ACEEB4EFB5
:10462000A50194010E94E124DC01CB018C0D9D1DAC
:10463000AE1DBF1DB7FF03C00197A109B048888315
:104640009983AA83BB839F77DF91CF91FF90EF90EF
:10465000DF90CF90BF90AF909F908F9008950E9471
:10466000E622089580E091E00E94E6220895A0E00D
:10467000B0E08093000190930101A0930201B093F8
:104680000301089591110C946E23803219F0895022
:104690008550C8F70895FB01DC0102C005900D921A
:1046A00041505040D8F70895BB27FB015527AA2752
:1046B000880F991FAA1FA41710F0A41B83955051AF
:1046C000B9F7A05DAA3308F0A95DA193009779F727
:1046D000B111B1931192CB010C94712399278827C2
:1046E0000895DC01FC01672F71917723E1F7329780
:1046F00004C07C916D9370836291AE17BF07C8F3BD
:104700000895E89409C097FB3EF4909580957095C4
:1047100061957F4F8F4F9F4F9923A9F0F92F96E90D
:10472000BB279395F695879577956795B795F11182
:10473000F8CFFAF4BB0F11F460FF1BC06F5F7F4F1F
:104740008F4F9F4F16C0882311F096E911C0772331
:1047500021F09EE8872F762F05C0662371F096E83A
:10476000862F70E060E02AF09A95660F771F881F09
:10477000DAF7880F9695879597F908950E94D123C7
:104780000C9442240E94342438F00E943B2420F0F0
:10479000952311F00C942B240C94312411240C94A7
:1047A00076240E94532470F3959FC1F3950F50E037
:1047B000551F629FF001729FBB27F00DB11D639FD3
:1047C000AA27F00DB11DAA1F649F6627B00DA11D79
:1047D000661F829F2227B00DA11D621F739FB00D1F
:1047E000A11D621F839FA00D611D221F749F33278F
:1047F000A00D611D231F849F600D211D822F762F28
:104800006A2F11249F5750409AF0F1F088234AF004
:10481000EE0FFF1FBB1F661F771F881F9150504070
:10482000A9F79E3F510580F00C942B240C9476241C
:104830005F3FE4F3983ED4F3869577956795B795F7
:10484000F795E7959F5FC1F7FE2B880F911D969511
:10485000879597F9089597F99F6780E870E060E081
:1048600008959FEF80EC089500240A941616170609
:1048700018060906089500240A9412161306140651
:1048800005060895092E0394000C11F4882352F0B4
:10489000BB0F40F4BF2B11F460FF04C06F5F7F4F6C
:1048A0008F4F9F4F089557FD9058440F551F59F053
:1048B0005F3F71F04795880F97FB991F61F09F3F0D
:1048C00079F087950895121613061406551FF2CF36
:1048D0004695F1DF08C0161617061806991FF1CF86
:1048E00086957105610508940895E894BB276627AD
:1048F0007727CB0197F90895F999FECF92BD81BD35
:10490000F89A992780B50895262FF999FECF1FBAF6
:1049100092BD81BD20BD0FB6F894FA9AF99A0FBEE8
:1049200001960895A1E21A2EAA1BBB1BFD010DC022
:10493000AA1FBB1FEE1FFF1FA217B307E407F5074F
:1049400020F0A21BB30BE40BF50B661F771F881F2B
:10495000991F1A9469F760957095809590959B01C1
:10496000AC01BD01CF010895052E97FB1EF4009404
:104970000E94CB2457FD07D00E94922407FC03D04D
:104980004EF40C94CB2450954095309521953F4F93
:104990004F4F5F4F089590958095709561957F4F2B
:1049A0008F4F9F4F08950E941D25A59F900DB49F86
:1049B000900DA49F800D911D11240895B7FF0C94B4
:1049C000D3240E94D324821B930B08952F923F92ED
:1049D0004F925F926F927F928F929F92AF92BF920F
:1049E000CF92DF92EF92FF920F931F93CF93DF93BB
:1049F000CDB7DEB7CA1BDB0B0FB6F894DEBF0FBE18
:104A0000CDBF09942A88398848885F846E847D8464
:104A10008C849B84AA84B984C884DF80EE80FD8066
:104A20000C811B81AA81B981CE0FD11D0FB6F894DC
:104A3000DEBF0FBECDBFED010895A29FB001B39FB1
:104A4000C001A39F700D811D1124911DB29F700D97
:104A5000811D1124911D0895AA1BBB1B51E107C0A4
:104A6000AA1FBB1FA617B70710F0A61BB70B881FFE
:104A7000991F5A95A9F780959095BC01CD0108958D
:104A8000EE0FFF1F0590F491E02D09940F9308306D
:104A900090F0982F872F762F652F542F432F322F8A
:104AA00022270850F4CF220F331F441F551F661FC3
:104AB000771F881F991F0A95B2F70F9108952A153D
:104AC0003B054C055D056E057F0580079107089540
:104AD0000024A7FD00942A17300540055005600505
:104AE00070058005900508950F931F93CF93DF9372
:104AF0008230910510F482E090E0E0911D06F09183
:104B00001E0620E030E0A0E0B0E0309719F14081CF
:104B100051810281138148175907C8F084179507FE
:104B200069F4109731F012960C93129713961C9318
:104B300027C000931D0610931E0622C021153105C3
:104B400019F04217530718F49A01BD01EF01DF0174
:104B5000F801DBCF21153105F9F0281B390B243082
:104B6000310580F48A819B816115710521F0FB017B
:104B70009383828304C090931E0680931D06FE01DA
:104B8000329644C0FE01E20FF31F819391932250AD
:104B90003109398328833AC020911B0630911C06C5
:104BA000232B41F4209106013091070130931C061C
:104BB00020931B0620910401309105012115310538
:104BC00041F42DB73EB74091080150910901241BD3
:104BD000350BE0911B06F0911C06E217F307A0F4D9
:104BE0002E1B3F0B2817390778F0AC014E5F5F4F43
:104BF0002417350748F04E0F5F1F50931C06409353
:104C00001B068193919302C0E0E0F0E0CF01DF91B9
:104C1000CF911F910F910895CF93DF93009709F4DF
:104C200081C0FC01329713821282A0911D06B091BF
:104C30001E06109781F420813181820F931F2091ED
:104C40001B0630911C062817390751F5F0931C06F6
:104C5000E0931B0667C0ED0120E030E0CE17DF07D0
:104C600040F44A815B819E0141155105F1F0EA0152
:104C7000F5CFD383C28340815181840F951FC8171C
:104C8000D90759F488819981840F951F02969183E1
:104C900080838A819B81938382832115310529F446
:104CA000F0931E06E0931D063DC0E901FB83EA83F5
:104CB00049915991C40FD51FEC17FD0761F480810C
:104CC0009181840F951F0296E901998388838281DF
:104CD00093819B838A83E0E0F0E012968D919C9112
:104CE0001397009719F0FD01DC01F7CF8D919C918E
:104CF00011979D012E5F3F4F820F931F20911B063E
:104D000030911C062817390769F4309729F410925E
:104D10001E0610921D0602C013821282B0931C065A
:104D2000A0931B06DF91CF910895A0E0B0E0EBE9DE
:104D3000F6E20C94EA24EC01009721F4CB010E94E6
:104D40007425B4C0FC01E60FF71F9C012250310905
:104D5000E217F30708F4A8C0D9010D911C9111972F
:104D600006171707B0F00530110508F49BC0C801FD
:104D700004978617970708F495C002501109061B7F
:104D8000170B019311936D937C93CF010E940C2616
:104D900089C05B01A01AB10A4C01800E911EA0913E
:104DA0001D06B0911E06612C712CE12CF12C109780
:104DB00009F446C08D919C911197A815B905B1F5DC
:104DC0006C0142E0C40ED11CCA14DB0478F14C0122
:104DD0008A189B08640142E0C40ED11C1296BC9054
:104DE00012971396AC91B5E0CB16D10440F0B28285
:104DF000A38391828082D9016D937C9309C00E5F59
:104E00001F4F800F911FF90191838083EB2DFA2FA3
:104E1000E114F10431F0D7011396FC93EE9312974D
:104E200041C0F0931E06E0931D063CC0681679064B
:104E300008F43C017D0112960D90BC91A02DB7CFD6
:104E400080911B0690911C0688169906E1F466165F
:104E50007706C8F48091040190910501009741F410
:104E60008DB79EB74091080150910901841B950BA5
:104E7000E817F907C8F4F0931C06E0931B06F90144
:104E8000718360830FC0CB010E9474257C01009761
:104E900059F0A801BE010E947827CE010E940C267D
:104EA000C70104C0CE0102C080E090E0CDB7DEB7FC
:104EB000EEE00C94062581E090E0F8940C94A7278E
:104EC00085FD0C946E23806291110C946E238156A3
:104ED0008A51D8F70895FB01DC0104C08D9101903F
:104EE000801921F441505040C8F7881B990B089550
:104EF000FB01DC0102C001900D9241505040D8F7F7
:104F00000895DC0101C06D9341505040E0F70895D1
:104F1000FB01DC018D91019080190110D9F3990BEF
:104F20000895FB01DC0101900D920020E1F7089546
:104F3000FB01DC014150504048F001900D920020EF
:104F4000C9F701C01D9241505040E0F7089511E0AB
:104F5000C4E5D1E004C0FE010E9440252196C5357C
:084F6000D107C9F7F894FFCF57
:104F68000100000000001F0680000000000000F3A0
:104F78000E8001D40D400F050EE30DF70D00000063
:104F8800006D152F13E412E112D912000000003D44
:104F98001644161913151312130813CE1282131C74
:104FA80013E812000000004E1655161913151312B7
:104FB800130813CE1282131C13E812000000005FBE
:104FC8001666161913151312130813CE1282131C22
:104FD80013E8120000000016152B13000000006CE7
:104FE800152D13D2127F017F01D0127F017F01C7D7
:104FF80012C712C712C712C712C712C712C912C7DF
:1050080012C712C712C7127F017F017F010000007B
:1050180000D706DE06E8061318F217F1119B117E79
:105028001118177016700E700EBC0E5912A40E359A
:1050380011780E2812690E0F1275116C1163110088
:105048000000006C13A213B612AA129A1282124719
:1050580013811280128012231562159E228F2280DE
:105068002271226222532244223522262217220844
:1050780022F921FEFF0000AA229B228C227D22FC1D
:10508800FF00006E225F2250224122322223221486
:105098002205220000000031133D131913151312C5
:1050A800130813101382131C13E812564D4450565C
:1050B8005F317C315F564D4450560D0A00536F6680
:1050C800747761726520737461727400426C7565DF
:1050D800746F6F7468204C616974650031383030C2
:1050E8000032613030003261303100313830310007
:1050F800326130350041726475696E6F004141411B
:105108003000414141310032393031004152564F6F
:04511800003A000059
:00000001FF
