:100000000C94F9000C9421010C9421010C94210111
:100010000C9421010C9421010C9421010C942101D8
:100020000C9421010C9421010C9421010C942101C8
:100030000C9421010C9421010C9421010C942101B8
:100040000C9469130C9421010C94F3010C94CD01D0
:100050000C9421010C9421010C9421010C94210198
:100060000C9421010C9421010F0E91117B11720E41
:10007000660F020EA810810F91114E119111CB1035
:100080005411430054656D70657261747572653A00
:1000900020000007060000030241FE0000000000EF
:1000A0000000000000000000000000000000000050
:1000B000000000001F06100000000000000000000B
:1000C0000001010000060006000000000000000022
:1000D00000000000001F06101C00000000000000CF
:1000E0000000000000000000000000000000001000
:1000F00000039000FF001F061038FFFF02580A059A
:1001000000000000000000000000100000000000DF
:100110000102010201020005061054000200000065
:1001200000000000000000000000000000000000CF
:100130000000000000000000190670000000000030
:1001400000000000000000000000000000000000AF
:1001500000000000000000000019067016000000FA
:10016000000000000000000000000000000000008F
:100170000000000000000000000000000024002734
:10018000002A0000000000250028002B00000000CD
:1001900000230026002900040404040404040402CB
:1001A0000202020202030303030303010204081014
:1001B00020408001020408102001020408102000E1
:1001C0000000080002010000030407000000000016
:1001D000000000436F6E6E65637465643A200044EE
:1001E0006973636F6E6E65637465643A2000D81E30
:1001F000882111241FBECFEFD8E0DEBFCDBF26E09F
:10020000A2ECB2E001C01D92A532B207E1F712E004
:10021000A0E0B1E0E6E5FBE402C005900D92A23C4F
:10022000B107D9F710E0C8EFD0E004C02197FE0174
:100230000E944D23C73FD107C9F70E94D71A0C94DB
:100240009E250C940000FC01538D448D252F30E039
:10025000842F90E0821B930B541710F0CF960895D3
:1002600001970895FC01918D828D981761F0828D20
:10027000DF01A80FB11D5D968C91928D9F5F9F73DA
:10028000928F90E008958FEF9FEF0895FC01918D7C
:10029000828D981731F0828DE80FF11D858D90E0E9
:1002A00008958FEF9FEF08958FEE93E00E94A911BC
:1002B00021E0892B09F420E0822F0895EF92FF922C
:1002C0000F931F93CF93DF93EC0181E0888F9B8D79
:1002D0008C8D981305C0E889F989808185FD26C039
:1002E000F62E0B8D10E00F5F1F4F0F731127E02EBE
:1002F0008C8DE8120CC00FB607FCFACFE889F9899B
:10030000808185FFF5CFCE010E946D12F1CF8B8DDC
:10031000FE01E80FF11DE35AFF4FF0829FB7F894FA
:100320000B8FEA89FB89808180620AC09FB7F894AD
:10033000EE89FF896083E889F98980818370806410
:1003400080839FBF81E090E0DF91CF911F910F915B
:10035000FF90EF900895CF93DF93EC01888D882371
:10036000C9F0EA89FB89808185FD05C0A889B98922
:100370008C9186FD0FC00FB607FCF5CF808185FFFD
:10038000F2CFA889B9898C9185FFEDCFCE010E946B
:100390006D12E7CFDF91CF9108951F920F920FB6A4
:1003A0000F9211242F933F934F935F936F937F93FB
:1003B0008F939F93AF93BF93EF93FF938FEE93E051
:1003C0000E946D12FF91EF91BF91AF919F918F911C
:1003D0007F916F915F914F913F912F910F900FBE41
:1003E0000F901F9018951F920F920FB60F92112425
:1003F0002F938F939F93EF93FF93E091FF03F091DF
:1004000000048081E0910504F091060482FD12C091
:100410009081809108048F5F8F7320910904821767
:1004200051F0E0910804F0E0E151FC4F958F80938A
:10043000080401C08081FF91EF919F918F912F91CE
:100440000F900FBE0F901F901895EF92FF920F9391
:100450001F93CF93DF936115710511F480E01CC0E9
:1004600041155105C1F07B01EC018C819D818A0110
:10047000080F191FB801CE010E94131A882371F3C7
:10048000288139818C819D81B701820F931F0E9441
:1004900088251D830C8381E0DF91CF911F910F91FF
:1004A000FF90EF900895CF92DF92EF92FF920F931B
:1004B0001F93CF93DF93CDB7DEB76B970FB6F8944A
:1004C000DEBF0FBECDBF8C011F8A1E8A198E188E0B
:1004D0001B8E1A8E40E050E068E572E0CE01469631
:1004E0000E943A1A198A188A1B8A1A8A1D8A1C8A3B
:1004F00040E050E068E572E0CE0140960E943A1A72
:100500000A5F1F4F85E0E82EF12CCE0101966C01A9
:10051000F80182918F01803140F441E050E06FE8B2
:1005200072E0CE0146960E942502F80180811B866A
:100530001A861D861C861F861E8640E1B60190E045
:100540000E94A221F60101900020E9F73197AF0146
:100550004C195D09B601CE010A960E943A1A8889A3
:1005600099890097A9F06A857B856115710571F0FD
:100570004A895B892E853F854217530738F00E94D0
:1005800088258E859F859D8B8C8B10C00E941024A2
:100590008A859B85998B888B8C859D859B8B8A8B87
:1005A0008E859F859D8B8C8B1B861A868A859B8565
:1005B0000E9410244C895D8968897989CE0146960C
:1005C0000E942502E114F10441F041E050E061E8AD
:1005D00072E0CE0146960E942502F1E0EF1AF10882
:1005E00008F096CF0A8D1B8D0115110519F4109294
:1005F000DD0310C00131110510F001E110E06E893A
:100600007F89A8018DED93E00E948F25F801E352C8
:10061000FC4F1082888999890E9410248E899F89B5
:100620000E9410246B960FB6F894DEBF0FBECDBFAC
:10063000DF91CF911F910F91FF90EF90DF90CF90BE
:1006400008950F931F93CF93DF938C01C0E0D0E008
:10065000F801EC0FFD1F6491662341F08FEE93E0EB
:100660000E945E01892B11F02196F2CFCE01DF911D
:10067000CF911F910F910895EFEEF3E0A089B1891A
:1006800082E08C93A485B5851C92A685B78580E110
:100690008C93108EA489B58986E08C93A289B38946
:1006A0008C9180618C93A289B3898C9188608C93A2
:1006B000A289B3898C9180688C930288F389E02D9C
:1006C00080818F7D80830895CF93DF93EC018091AB
:1006D0006D0590916E05892B59F48091ED0590E0A0
:1006E000880F991F0E94782390936E0580936D0563
:1006F00080916F0520916D0590916E05E22FF92F85
:10070000E80FF11DE80FF11DD183C08380916F05C3
:100710008F5F80936F05DF91CF9108958091D4040E
:1007200090E0880F991F0E947823FC0190936B053D
:1007300080936A0580E795E09183808386E795E062
:10074000938382838BE895E0958384838EE995E09B
:100750009783868384EA95E09187808785E08093FC
:100760006C050895CF93DF93EC0180916A05909119
:100770006B05892B11F40E948E0380916C052091EA
:100780006A0590916B05E22FF92FE80FF11DE80F34
:10079000F11DD183C08380916C058F5F80936C05C0
:1007A000DF91CF910895262F269526952695820FC5
:1007B000911DFC01808990E0677002C09595879536
:1007C0006A95E2F781700895EF92FF920F931F935D
:1007D000CF93DF93CDB7DEB7C254D1090FB6F894EB
:1007E000DEBF0FBECDBF8C017B012091DC0330E06A
:1007F0008091DB0390E004962817390709F48CC038
:10080000E0915503F091560381810E948F1220914F
:10081000530330915403019719F423137BC07CC018
:10082000231382C01BA20E94D6138BA18EBD000091
:100830000DB407FEFDCF8EB589838CA18EBD00005F
:100840000DB407FEFDCF8EB58A839BA1992349F095
:10085000292F30E0482F50E04217530714F48FEF50
:10086000890F803208F08FE1DE0113969E012E5D24
:100870003F4FF9019E2F921B981750F493819EBD14
:1008800000000DB407FEFDCF9EB59D933196F2CFCB
:10089000E0915503F091560361E080810E94B81207
:1008A0002091DC0330E08091DB0390E00496281770
:1008B000390739F0909153038091540398130E94A3
:1008C000D6134A81442341F18091DC03682F70E004
:1008D0002091DB0330E02C5F3F4F62177307C9F0B4
:1008E000837021E2829FC0011124FC01E95AFC4F70
:1008F000108250E04F5F5F4FBE016E5F7F4F885A9E
:100900009C4F0E946F258091DC038F5F8093DC03F6
:1009100003C0FFCF0E94D613E091DB038091DC037C
:100920008E1314C080E081C0E22FE37081E28E9FBD
:10093000F0011124E153FD4FDE01929601900D92DA
:100940008A95E1F72F5F209353036DCFE37081E227
:100950008E9FF0011124E95AFC4FD70101900D92AE
:100960008A95E1F78091DB038F5F8093DB03209111
:10097000DC0330E090E004962817390739F09091B5
:1009800053038091540398130E94D613F701828178
:10099000863871F4F8017096C80148961192178252
:1009A000E817F907D9F7F80110A28781818714C0E9
:1009B0008738A0F0883839F5F7013396D80150967A
:1009C0002BE0E20EF11C81918D93878117968C9319
:1009D0001797EE15FF05B9F781E027C08538E1F7D5
:1009E000F70182859385F80193878287F7018485D3
:1009F0009585F80195878487F70186859785F801A5
:100A000097878687E9CF893839F7F7018381948101
:100A1000F80193878287F70185819681F801958790
:100A20008487F70187819085EACFCE5BDF4F0FB6D1
:100A3000F894DEBF0FBECDBFDF91CF911F910F9114
:100A4000FF90EF9008952DEA31E0FC01318320837F
:100A50000C94AA0DCF93DF93EC010E942305CE01E5
:100A6000DF91CF910C9410242F923F924F925F927E
:100A70006F927F928F929F92AF92BF92CF92DF92AE
:100A8000EF92FF920F931F93CF93DF93CDB7DEB713
:100A9000C855D1090FB6F894DEBF0FBECDBF1C01FB
:100AA0006FAF5EAF4DAF24962FAF249723961FAF45
:100AB0000EAF23972996BFAEAEAE2997B82CFC0196
:100AC000E35AFF4F8FEF9FEF918380832696EFAE1F
:100AD00026972796FFAE27972796AEADBFAD2797EF
:100AE00020E030E0612C912C6C2D70E063967FAF9C
:100AF0006EAF639763968EAD9FAD639728173907E6
:100B000004F5ED91FD918281938183309842B1F497
:100B1000309711F0329702C0E0E0F0E08285882340
:100B200069F0939480FD639484FD639485FD6394E0
:100B300082FD639483FD639481FD63942F5F3F4F37
:100B4000D9CF6EE0969EC00111240E947823F10156
:100B5000E15BFF4F9183808329968EAD9FAD2997EE
:100B60002F969FAF8EAF2F976C0100E010E0712C95
:100B7000512C412C812CAB2DB0E02B96BFAFAEAFEA
:100B80002B972B96EEADFFAD2B970E171F07ACF5ED
:100B9000D601ED90FD906D01F701A280B3806081D8
:100BA0007181CE0101960E9415178B89833008F060
:100BB0007394A114F8E2BF0611F483941BC023E0E0
:100BC000A21628E2B206B1F4E114F10419F0F7011B
:100BD000329702C0E0E0F0E08681882359F0439428
:100BE00084FD539485FD539482FD539483FD539467
:100BF00081FD53940F5F1F4FC4CF37E0439EC00168
:100C000011240E947823F101EA5AFF4F91838083D7
:100C1000F997AFEEB5E0C1018596119217821D924A
:100C20008E179F07D1F78101035F1F4F1093560363
:100C300000935503FFB6F8948091EE05811127C00B
:100C4000E1EAF1E08491E5EBF1E09491E82FF0E046
:100C5000EE0FFF1FE758FE4FA591B491EC91E923E9
:100C600021F461E08AE00E94B81261E08AE00E940B
:100C7000E7128CB580618CBD8CB580648CBD61E061
:100C80008DE00E94E71261E08BE00E94E712809104
:100C9000EE058F5F8093EE05FFBE10925303109216
:100CA00054031092D0021092D1021092F1021092CD
:100CB000F202109212031092130310923303109257
:100CC00034031092DB031092DC031092580310924D
:100CD00059031092790310927A0310929A0310929A
:100CE0009B031092BB031092BC0362E0D1011E96DD
:100CF0008C910E94E71261E0F10185850E94E71264
:100D0000D10150968C918F3F19F060E00E94E7125C
:100D10000E94B31361E0F10185850E94B8126EE173
:100D200070E080E090E00E942313D10150968C91F6
:100D30008F3F81F464E670E080E090E00E9423132E
:100D400081E0809301068EE08093020680E096E0C9
:100D50000E94E213F10181859285892B29F081E0BF
:100D6000828BE45AFF4F10827101FDE2EF0EF11CFD
:100D7000B701C8010E94E403882341F0D1019F9686
:100D80008C91813851F0843899F707C061E070E0A8
:100D900080E090E00E942313EBCF1982BFADBB230C
:100DA00031F0DD24D394EDADFEADEF2B09F4D12C61
:100DB0002496FFAD2497FF2341F0CC24C3942396BF
:100DC0002EAD3FAD2397232B09F4C12C22E9E22E4F
:100DD00020E0F22E00E010E023966EAD7FAD239769
:100DE0006E5F7F4F21967FAF6EAF2197ADACBEACEB
:100DF00072E0A70EB11C650CF7013196449150E0EA
:100E00004E5F5F4FB701CE0101960E9499210130DC
:100E1000110581F48B869C864D866E86D1011996CC
:100E20008D919C911A97892B09F4F5C48A8582606B
:100E30008A8758C00230110559F4DD2009F4EBC44B
:100E4000888D8064888F8C8D80648C8F78A24AC056
:100E50000330110591F4DD2019F08E8980648E8BAA
:100E6000CC2009F4D8C48E8580648E878A898064FA
:100E70008A8B8A8D80648A8F35C00430110551F4C5
:100E8000F10181859285892B09F4C5C48E81816029
:100E90008E8328C00530110571F4DD2009F4BBC430
:100EA000ADADBEAD11968C9111978E834C914F8351
:100EB00050E0B50113C006301105A1F4CC2009F4AF
:100EC000B7C42396EEADFFAD239781818E83408119
:100ED0004F8350E021966EAD7FAD2197CE010896ED
:100EE0000E946F2540E0BE016F5F7F4FC1010E94ED
:100EF0001B190F5F1F4FF1E2EF0EF11C07301105B8
:100F000009F07ACF1EAA1DAA2D961FAE1EAE2D97F0
:100F100022961FAE229711E066246394712C9E01E5
:100F20002F5F3F4F5901B101615B7F4F69967FAFE2
:100F30006EAF69972D968EAD9FAD2D976396AEAD32
:100F4000BFAD63978A179B070CF07EC22796EEAD64
:100F5000FFAD2797E190F1902796FFAFEEAF27976F
:100F6000D70112968D909C9013976D917C91CE0134
:100F700082960E941517DCA88114B8E29B06E1F462
:100F80008CE08D0D8A8384E08E838F83D886D9860A
:100F90007A866B86EFEF6E1A7E0A88E28C871D8652
:100FA00081E08E874D2D50E0BE016C5D7F4FCE01FC
:100FB0000F960E946F25B6C1F3E08F16F8E29F06E8
:100FC00009F0BAC1E114F10429F0270122E0421A24
:100FD000510802C0412C512CD2011A96BC91BDAFD0
:100FE000F201E280F3806996AEADBFAD69978D9155
:100FF0009C914C012296EFAD2297BEE0EB9F800CB6
:10100000911C11248EE0D4011D928A95E9F7F40118
:1010100051824082FDADFF2369F122962FAD2297C8
:101020002F5F22962FAF2297F0FF04C0D4011696AF
:101030001C931F5FBDADB4FF03C0F40117831F5F96
:10104000FDADF5FF04C0D40118961C931F5FBDAD24
:10105000B2FF03C0F40111871F5FFDADF3FF04C0B1
:10106000D4011A961C931F5FBDADB1FF03C0F401FC
:1010700013871F5F8FE08D0D8A8384E0C82ECE8298
:10108000CF8283E08D0D888789877A866B8688E298
:101090008C8783E08D8781E08E878DAD8E7F8F87F3
:1010A000C3010196888B998BD40113969C938E93E0
:1010B0001297F30132962596FFAFEEAF25974D2D8F
:1010C00050E0BE016C5D7F4FCE0142960E946F25BD
:1010D00000E09E012B5C3F4F42E0B501C1010E9440
:1010E0008E19FCE0FA83CE821F82D201ED91FC9131
:1010F0000484F585E02DC2010995882319F08E81BD
:1011000082608E83BDADB1FF03C08F8184608F8309
:10111000F10181859285892BC1F061E972E0C701F7
:101120000E947F25892B89F066E972E0C7010E9441
:101130007F25892B51F060EA72E0C7010E947F256C
:10114000892B19F08F8188608F838DAD8C7031F081
:101150008E8180648E838F8180618F83FDADF4FFEB
:1011600003C08E8180618E832DAD25FF03C08E81EB
:1011700080628E83D201ED91FC910480F581E02D97
:10118000C2010995E82ED201ED91FC910084F18510
:10119000E02DC2010995F82EE886D201ED91FC916F
:1011A0000484F585E02DC2010995882319F088850E
:1011B0008F5F8887F986F40183818A8782818B8794
:1011C000F2E0DF1205C08DA18C878CA18D8702C053
:1011D0001C861D8681E08E8700E09E012B5C3F4FC0
:1011E00042E0B501C1010E948E19C12CD12C2E2DD7
:1011F00030E061963FAF2EAF61976F2D70E067963C
:101200007FAF6EAF679761968EAD9FAD6197C81641
:10121000D9060CF05EC07C01EC18FD089DE1E916D2
:10122000F1041CF00CE1E02EF12C83E08E0D8A839A
:10123000A70160E070E0CE0106960E9478256796CF
:101240008EAD9FAD67978C199D09E816F9060CF4D1
:10125000C701181619068CF52196BFAEAEAE2197C0
:10126000D601AA19BB096596BFAFAEAF65972196A7
:101270008EAD9FAD21978A199B098E159F05ECF4C1
:1012800065966EAD7FAD65972196EEADFFAD21976A
:101290006E0F7F1FD201ED91FC910284F385E02D4A
:1012A000C20109952196EEADFFAD21978583319658
:1012B0002196FFAFEEAF2197DACF00E09E012B5CC5
:1012C0003F4F42E0B501C1010E948E19CE0CDF1CD8
:1012D0009ACF8DAD807309F4A8C08EE08A8386E42E
:1012E0008E8384E18F8383E0888782E089872596D7
:1012F000FFAD2597FA8724962FAD24972B87259647
:10130000EEADFFAD2597D4011596FC93EE9314979F
:10131000F3E06F0E711C99E29C878D8781E08E87C8
:101320001F86188A00E09E012B5C3F4F42E0B5010A
:10133000C1010E948E197DC0811429E2920609F034
:1013400078C0E114F10421F032E0E31AF10802C0A0
:10135000E12CF12C4CE04A8384E08E838F83D7010B
:10136000ED91FC910680F781E02DC7010995882E4B
:10137000888789877A866B86BFEF6B1A7B0A8DA177
:101380008C878CA18D8781E08E8700E09E012B5C8D
:101390003F4F42E0B501C1010E948E19C12CD12CF2
:1013A000E82DF0E0FEAFEDAF2DAD3EADC216D30699
:1013B0000CF03FC049018C189D083DE18316910453
:1013C0001CF0BCE18B2E912C83E0880D8A832501D3
:1013D000B6016A197B0921967FAF6EAF2197C201D2
:1013E0008A199B0988159905A4F421966EAD7FADE5
:1013F0002197640D751DD701ED91FC910084F18555
:10140000E02DC7010995F2018583FFEF4F1A5F0AAE
:10141000E6CF00E09E012B5C3F4F42E0B501C101E9
:101420000E948E19C80CD91CBFCF25966EAC7FAC1C
:1014300025972D962EAD3FAD2D972F5F3F4F2D96C3
:101440003FAF2EAF2D9776CDF101EF5AFF4F229689
:101450003FAD2297308384E08A831E8200E09E01A4
:101460002B5C3F4F42E0BE016F5F7F4FC1010E9486
:101470008E1918AE1FAA2996AEACBFAC2997CC2402
:10148000C394D12CE2E09E2EE12C210146E5440ECE
:10149000511CF7E0FF2EA8E08A2EC60101972B967B
:1014A0006EAD7FAD2B97861797070CF08BC0D501DB
:1014B0006D907D905D01F30160817181CE01829616
:1014C0000E941517D30112968D919C911397811547
:1014D000984209F073C09CA98FEF810F8987A601FC
:1014E0009601220F331F2996EEADFFAD29972E0FDF
:1014F0003F1F7E2C872D8E192B966EAD7FAD2B97BF
:1015000046175707F4F5F901A191B1919F01129681
:101510006D917C9113976330784299F5109721F083
:10152000BD016250710902C060E070E0F201A0816B
:10153000B181FD0187E0789EE00DF11D1124DF01EE
:101540008F2D1D928A95E9F7DB0116968C91718398
:10155000608382FF02C012831F5F83FF02C0138378
:101560001F5F81FF02C016831F5F84FF02C01483C8
:101570001F5F85FF02C015831F5F73944F5F5F4F2E
:10158000B9CF8A82923039F49DA19E839CA19F831A
:10159000B1E0B88706C099A99E8398A99F839886D1
:1015A00093948A8700E09E01295C3F4F43E0BE018F
:1015B0006F5F7F4FC1010E948E19E72CEFEFCE1AAB
:1015C000DE0A6BCFF101E85AFF4FE0821AAE19AE86
:1015D000A12CB12C612C712C2296FFAD2297CF2E1D
:1015E000D12C21012FE4420E511C2DE0F22E11E0EE
:1015F00034E0832E6C147D0484F0C12CD12CA12CFA
:10160000B12CF12C310136E5630E711C8DE0582EA2
:101610004424439494E0892E8FC0D201ED91FC9133
:10162000EA0DFB1DA081B1812281338184819581E6
:10163000FA821E821F82188719861A868B863C873B
:101640002D879E878F871A968C9180FD1A8784FF3D
:1016500003C09A8592609A8785FF03C09A8594603B
:101660009A8782FF03C09A8598609A8783FF03C098
:101670009A8590619A8781FF03C08A8580688A87EE
:1016800000E09E01275C3F4F44E0BE016F5F7F4F4B
:10169000C1010E948E19BFEF6B1A7B0AEEE0AE0EFD
:1016A000B11CA8CFD301ED91FC91EC0DFD1D008183
:1016B0001181F80162817381CE0182960E94151713
:1016C0008CA95A828230E9F58DA18E838CA18F83FB
:1016D000488619861A868B861C861D861E861F865E
:1016E000D80116968C9181FF02C0B0E4BA8782FFC0
:1016F00003C09A8592609A8783FF03C09A8594609D
:101700009A8784FF03C09A8598609A8785FF03C0F3
:101710008A8580618A8700E09E01275C3F4F44E014
:10172000BE016F5F7F4FC1010E948E19EFEFAE1AAD
:10173000BE0AF7E0CF0ED11CAE14BF040CF4B2CF3A
:1017400007C089A98E8388A98F8398869394C1CF77
:101750001CAE1BAEE12CF12C2B962EAD3FAD2B9782
:10176000E216F3066CF52F96AEADBFAD2F97ED9157
:10177000FD912F96BFAFAEAF2F9760817181CE01E3
:1017800082960E9415174CA983E0840F8A8350E04B
:10179000BE016C5D7F4FCE0106960E946F251A8AAE
:1017A0001B8A00E09E01255C3F4F45E0BE016F5F54
:1017B0007F4FC1010E948E19BFEFEB1AFB0ACCCFFD
:1017C0001BA21AA286E08A8383E08E8301E09E0139
:1017D0002E5D3F4F4FE0BE016F5F7F4FC1010E9402
:1017E0008E19C85ADF4F0FB6F894DEBF0FBECDBFBB
:1017F000DF91CF911F910F91FF90EF90DF90CF90ED
:10180000BF90AF909F908F907F906F905F904F9020
:101810003F902F90089540E0BE016F5F7F4FC10160
:101820000E941B190F5F1F4FE1E2EE0EF11CE4CA8C
:1018300040E0BE016F5F7F4FC1010E941B1962CB68
:1018400021E0FC018589811101C020E0822F0895EB
:10185000BF92CF92DF92EF92FF920F931F93CF939D
:10186000DF93CDB7DEB728970FB6F894DEBF0FBE73
:10187000CDBFFC017B018F5A9F4FDC012C9130E0E2
:1018800040E050E080E090E0BF01615B7F4F821755
:1018900093070CF074C0DB01CD90DC90C40ED51E14
:1018A000425F5F4FD6010D911C91E016F10611F0D9
:1018B0000196EDCFC114D10409F461C0D60116968A
:1018C0000C91002309F45BC021E030E040E050E0DF
:1018D00060E070E080E090E00E94532329833A8327
:1018E0004B835C836D837E838F839887CE010196C3
:1018F0002FEE35E0AE01475F5F4FDC016D91CD010A
:10190000D9016D939D0184179507B9F787017F0170
:1019100089E0809301068BE18093020688E0EFEE78
:10192000F5E0A3E0B6E001900D928A95E1F780E042
:1019300096E00E94E213882311F1D801ED91FC9109
:101940000084F185E02DC8010995B82ED801ED91EC
:10195000FC910680F781E02DC80109954B2DBC0153
:10196000F60186810E94B419882349F0D6011696A3
:101970008C91F701EE5AFF4F808381E001C080E037
:1019800028960FB6F894DEBF0FBECDBFDF91CF9182
:101990001F910F91FF90EF90DF90CF90BF9008952F
:1019A000CF92DF92EF92FF920F931F93CF93DF932B
:1019B000FC01EF5AFF4FE081EE2EF12C40E050E0A9
:1019C00020E030E0DC01A15BBF4F2E153F050CF09D
:1019D000B3C00D911C911197040F151F425F5F4F0B
:1019E000F801C081D1816C177D0719F02F5F3F4F3F
:1019F000ECCF0115110509F49FC0EB016C01868144
:101A00008823E9F0F601EE5AFF4F9081891317C041
:101A1000E881F9810084F185E02DCB010995F82E4C
:101A2000E881F9810680F781E02DCE0109954F2DDF
:101A3000BC01F80186810E94B419F82E02C0FF246F
:101A4000F394D8011B968C918823B1F0E881F98139
:101A50000084F185E02DCE010995E82EE881F98119
:101A60000680F781E02DCE0109954E2DBC01F801CD
:101A700083850E94B419F822D80117968C91179784
:101A8000882361F11C968C91882341F1D601ED9158
:101A9000FC910488F589E02DBE01C60109958823D3
:101AA000E1F0F60185898150858BE881F981008418
:101AB000F185E02DCE010995E82EE881F9810680B7
:101AC000F781E02DCE0109954E2DBC01D801179666
:101AD0008C910E941B14F82201C0F12CF801808522
:101AE000882371F18585882359F1D601ED91FC9108
:101AF0000688F789E02DBE01C60109958823F9F013
:101B0000F60185898150858BE881F9810084F18512
:101B1000E02DCE010995D82EE881F9810680F78164
:101B2000E02DCE0109954D2DBC01D80118968C9160
:101B30000E941B14F82204C0FF24F39401C0F12C6E
:101B40008F2DDF91CF911F910F91FF90EF90DF903C
:101B5000CF900895CF93DF93EC010E94B313FE0161
:101B6000E15BFF4F80819181009711F00E9410246A
:101B7000FE01EA5AFF4F80819181009711F00E9487
:101B80001024FE01EF5AFF4F1082C85ADF4F18820F
:101B9000DF91CF9108953F924F925F926F927F9223
:101BA0008F929F92AF92BF92CF92DF92EF92FF926D
:101BB0000F931F93CF93DF93CDB7DEB76B970FB61D
:101BC000F894DEBF0FBECDBF7C014C018DE0880EC6
:101BD000911CB701635D7F4FC4010E94E403882319
:101BE00009F49FC3D7019F96EC918E2F90E0FC01E2
:101BF000E158F109ED30F10508F093C3EC5CFF4FBB
:101C00000C944D2300E010E0C12CD12C5701B1E51C
:101C1000AB0EB11C4701EFE48E0E911C5FC2D701E1
:101C2000D2968C91D29753968C935397D0968C9151
:101C3000D097833009F075C3D1968C91882339F001
:101C400064E170E080E090E00E9423136AC3F70132
:101C5000A184B284A114B10409F44DC3D5018D91BE
:101C60009C910E94CA22813009F045C36701BBE5FF
:101C7000CB0ED11CF60180838701075A1F4FD80174
:101C80001D921C9221E030E040E050E0BE01655E14
:101C90007F4FC5010E945818F801408151814F5F64
:101CA0005F4F518340832B8D30E0BE016F5F7F4FCC
:101CB000D70119968D919C911A970E9458188B8D77
:101CC000482F50E0F80120813181240F351F3183E6
:101CD0002083D6019C918E5F8093010688E08093DB
:101CE0000206FBC2F70181A9833008F01AC310A9CC
:101CF0001A3009F49CC030F4173059F0183009F448
:101D00004CC00FC31B3009F4A4C01C3009F4BDC083
:101D100008C382A98701075A1F4F813019F4F801BF
:101D200011821082D7019E968C919E978450898350
:101D3000F8014081518121E030E0BE016F5F7F4FAB
:101D400019968D919C911A970E948518D8014D91F2
:101D50005C9111974F5F5F4F4D935C93298130E009
:101D6000B7016D5C7F4FF701818592850E948518D0
:101D70002981D8018D919C911197820F911D8D938E
:101D80009C93F70181A9813021F48093010687E0BB
:101D9000A1C2823009F0C5C2AEC28130F1F557014F
:101DA000BBE5AB0EB11CF50180818F5F80836701BD
:101DB000F9E5CF0ED11CD6014D915C9121E030E0C8
:101DC000BE01655E7F4FF701818592850E9458189C
:101DD000D6014D915C9111974F5F5F4F4D935C938E
:101DE0002B8D30E0BE016F5F7F4FF70181859285BB
:101DF0000E9458188B8D482F50E0D6012D913C91B0
:101E00001197240F351F2D933C93F50190818E5F20
:101E1000809301061093020660C2823009F081C2ED
:101E200064E170E080E090E00E94231364C2F70157
:101E300083859485009709F474C2A7014E5C5F4FB7
:101E4000DC01ED91FC910684F785E02DB701099541
:101E500068C2F701038514850115110509F461C2F3
:101E600062A973A980E090E00E94CF212DEC3FEAA7
:101E700046E65BE30E940C229B01AC01D801ED9188
:101E8000FC910288F389E02D1DC0F70103851485BC
:101E90000115110509F445C262A973A9072E000CAA
:101EA000880B990B0E94D12120E030E040E85EE3EE
:101EB0000E940C229B01AC01D801ED91FC9100889D
:101EC000F189E02DB701C80109952BC2F701ED5A40
:101ED000FF4F10823196108231961082F701838570
:101EE0009485009759F0DC01ED91FC910190F0810F
:101EF000E02DA7014F5C5F4FB7010995F70183897A
:101F0000D1C1D701D8964C90D897D9965C90D997E3
:101F1000DA966C90DA97DB967C90DB97DC96AC9047
:101F2000DC97DD96BC90DD97DE96CC90DE97DF9651
:101F3000DC90DF9714960D911C91159706301105D2
:101F4000D0F11696ED91FC911797E138BCE0FB07B4
:101F500090F5D701D0962C91237030E040E050E00E
:101F600060E070E080E090E0A0E00E946C2319F156
:101F7000D701AD5ABF4F8C9181111DC081E08C9368
:101F800099E09093010693E1909302061093040662
:101F900000930306F0930606E093050610920806E8
:101FA0001092070680930A0680E98093090680E074
:101FB00096E00E94E213F701858D8170382E920120
:101FC000A301B501C601A0E00E946C2331F43110D9
:101FD00004C081E0EC5AFF4F8083C12CD12CA12C8E
:101FE000B12C2701F1E54F0E511C37018FE4680E2B
:101FF000711CD2018C9190E0A816B9060CF03FC07C
:10200000F301008111810C0D1D1DD80117966C91F3
:10201000662329F0C4010E94D303F8018487D80104
:1020200018966C91662329F0C4010E94D303F8012D
:102030008587D8011C968C911C97811103C01D9631
:102040002C9101C021E0F80140815181DA011C96F8
:102050008C91281769F0F70183859485009741F0EA
:10206000DC01ED91FC910284F385E02DB701099527
:10207000BFEFAB1ABB0AEEE0CE0ED11CBACFF70110
:10208000EC5AFF4F8081882309F44BC1332009F4B7
:1020900048C131968081811144C1D7011B968D9131
:1020A0009C911C97009709F43CC121E02083DC013E
:1020B000ED91FC910680F781E02D6AC0D401ED918D
:1020C000FC91E00FF11F40815181FA01848581115B
:1020D0000CC0BFEFCB1ADB0A025F1F4FF5018081F6
:1020E00090E0C816D90654F311C0D7011B968D9104
:1020F0009C911C97009769F3DC01ED91FC9102849F
:10210000F385E02D20E0B7010995E3CFF701838542
:102110009485009741F0DC01ED91FC910280F38100
:10212000E02DB70109958701045A1F4FF8018081FE
:10213000882309F4E0C081E08093010687E0809362
:10214000020680E096E00E94E213D8011C92E9C0EA
:10215000F70180A9811104C091E02289211101C0F9
:1021600090E0F701E45AFF4F9083D70152968C9389
:10217000379710828111D5C0F70183859485009728
:1021800009F4CFC0DC01ED91FC910480F581E02DD4
:10219000B7010995C6C0F701B6A4BA94BA9410A9BC
:1021A000EF5AFF4F208130E040E050E080E090E0C7
:1021B00032978217930744F5C080D180C40ED51E94
:1021C000D6011A966C911A97161709F49DC0425FB2
:1021D0005F4F19966C91161315C0F701838594858E
:1021E000009791F0D6014D915C91DC01ED91FC914D
:1021F0000084F185E02D0B2D97012F5C3F4FB70137
:10220000099502C00196D5CFF701E85AFF4F20810A
:1022100030E040E050E080E090E032978217930792
:102220000CF07FC0C080D180C40ED51ED60114969C
:102230007C91149715966C9117130FC0161318C044
:1022400082E08093010686E18093020610930306E4
:1022500080E096E00E94E2130BC0161779F3495F05
:102260005F4FD60116967C917111E8CF0196D6CFBB
:10227000F70183859485009709F453C097012F5C7B
:102280003F4FD6014D915C91DC01ED91FC910484AE
:10229000F585E02D0B2DB701099543C0F701958910
:1022A00080A9890F858B3DC0D701D1968C91D1979C
:1022B000823939F055968C9155978F5F55968C934E
:1022C00030C0F70181859285892B59F181E0809397
:1022D00001068DE18093020609C090930306BE01BA
:1022E0006F5F7F4F84E096E00E946F2580E096E06C
:1022F0000E94E21316C0D701ED91FC910484F5858C
:10230000E02DC70109950DC082E08093010686E1AA
:10231000809302061093030680E096E00E94E21389
:102320005CCF6B960FB6F894DEBF0FBECDBFDF91CA
:10233000CF911F910F91FF90EF90DF90CF90BF90C2
:10234000AF909F908F907F906F905F904F903F9055
:102350000895FC01918D228D892F90E0805C9F4F24
:10236000821B91098F739927089580E090E0892B53
:1023700029F00E94540181110C94000008958330CB
:1023800081F028F4813099F08230A1F008958730EF
:10239000A9F08830B9F08430D1F4809180008F7D2D
:1023A00003C0809180008F7780938000089584B56A
:1023B0008F7702C084B58F7D84BD08958091B00071
:1023C0008F7703C08091B0008F7D8093B000089517
:1023D0003FB7F8948091FC059091FD05A091FE0512
:1023E000B091FF0526B5A89B05C02F3F19F00196B7
:1023F000A11DB11D3FBFBA2FA92F982F8827820F8B
:10240000911DA11DB11DBC01CD0142E0660F771FDA
:10241000881F991F4A95D1F70895DC01ED91FC9131
:1024200000A0F1A1E02D09940F931F93CF93DF93A8
:10243000EC018B010E94EA19FC01892BD9F0808103
:10244000918108171907B1F42481211103C0258156
:10245000222381F0822F869586958695C80FD11DFF
:102460008DA190E0277002C0959587952A95E2F797
:10247000817001C080E0DF91CF911F910F9108958D
:10248000CF93DF93EC010E94EA19009769F0FC01F9
:102490006381611103C06281662331F0CE010D9624
:1024A000DF91CF910C94D30380E0DF91CF91089519
:1024B000CF93DF93EC010E94EA19009751F0FC01E1
:1024C0006681662331F0CE010D96DF91CF910C9499
:1024D000D30380E0DF91CF910895FC01848DDF016B
:1024E000A80FB11DA35ABF4F2C91848D90E0019687
:1024F0008F739927848FA689B7892C93A089B18976
:102500008C91837080648C93938D848D981306C016
:102510000288F389E02D80818F7D80830895CF9399
:10252000DF93282F30E0F901E154FE4F8491F90147
:10253000E555FE4FD491F901E956FE4FC491CC23E5
:1025400091F081110E94BF11EC2FF0E0EE0FFF1F00
:10255000E357FE4FA591B491EC91ED2381E090E01B
:1025600021F480E002C080E090E0DF91CF910895F7
:102570001F93CF93DF93282F30E0F901E154FE4FF2
:102580008491F901E555FE4FD491F901E956FE4FCA
:10259000C491CC23C1F0162F81110E94BF11EC2FE2
:1025A000F0E0EE0FFF1FED57FE4FA591B4919FB7DE
:1025B000F894111104C08C91D095D82302C0EC91ED
:1025C000DE2BDC939FBFDF91CF911F910895CF93B6
:1025D000DF9390E0FC01E555FE4F2491FC01E956A4
:1025E000FE4F8491882361F190E0880F991FFC01D0
:1025F000E758FE4FC591D491FC01ED57FE4FA591D0
:10260000B491611109C09FB7F89488812095822305
:102610008883EC912E230BC0623061F49FB7F8944D
:102620008881322F309583238883EC912E2B2C9335
:102630009FBF06C08FB7F894E8812E2B28838FBFE9
:10264000DF91CF9108958F929F92AF92BF92CF92D8
:10265000DF92EF92FF926B017C010E94E8114B0127
:102660005C01C114D104E104F104F1F00E94E8110D
:10267000DC01CB0188199909AA09BB09883E93405E
:10268000A105B10570F321E0C21AD108E108F108F3
:1026900088EE880E83E0981EA11CB11CC114D104E1
:1026A000E104F10419F7DDCFFF90EF90DF90CF90B8
:1026B000BF90AF909F908F9008952FB7F89460913E
:1026C000F8057091F9058091FA059091FB052FBFEF
:1026D00008951F920F920FB60F9211242F933F93DC
:1026E0008F939F93AF93BF938091F8059091F905D5
:1026F000A091FA05B091FB053091F70523E0230F77
:102700002D3720F40196A11DB11D05C026E8230F29
:102710000296A11DB11D2093F7058093F8059093B3
:10272000F905A093FA05B093FB058091FC05909103
:10273000FD05A091FE05B091FF050196A11DB11DFB
:102740008093FC059093FD05A093FE05B093FF05D3
:10275000BF91AF919F918F913F912F910F900FBE9D
:102760000F901F901895E0915503F09156038281C8
:102770008F3FD9F061E00E94E712E0915503F0919C
:10278000560361E082810E94B812E0915503F091F6
:10279000560360E082810E94B812E0915503F091E7
:1027A000560361E082810C94B812089581E78CBDD4
:1027B00081E08DBDE0915503F091560360E080818A
:1027C0000C94B812FC014181403288F59091540379
:1027D000692F70E02091530330E02C5F3F4F621768
:1027E000730729F1BF01937021E2929FC001112468
:1027F000FC01E153FD4F108250E04F5F5F4F6F5F70
:102800007F4F80539D4F0E946F25809154038F5FAF
:10281000809354032091DC0330E08091DB0390E04F
:1028200004962817390729F00E94D61302C080E0C9
:10283000089581E00895EF92FF920F931F93CF9335
:10284000DF93CDB7DEB765970FB6F894DEBF0FBE46
:10285000CDBF453148F5142F082FE42EF12CA701E8
:10286000CE0102960E946F251E5F1093010685E13E
:102870008093020600930306A701BE016E5F7F4F9F
:1028800084E096E00E946F2580E096E065960FB6A2
:10289000F894DEBF0FBECDBFDF91CF911F910F9196
:1028A000FF90EF900C94E21380E065960FB6F894D9
:1028B000DEBF0FBECDBFDF91CF911F910F91FF9073
:1028C000EF900895EF92FF920F931F93CF93DF93B2
:1028D0008C017A01D22F0E94EA190097C9F0FC01FD
:1028E000C381C11103C0C281CC2391F06C2FC801F8
:1028F0000D960E94D303882359F04D2FB7018C2FDA
:10290000DF91CF911F910F91FF90EF900C941B14CA
:1029100080E0DF91CF911F910F91FF90EF9008958C
:10292000E0E0F6E081E081838BE08283CF010C94CC
:10293000E213E0E0F6E081E081838CE08283CF0166
:102940000C94E213E0E0F6E081E081838AE0828388
:10295000CF010C94E213CF93DF93EC0182E08093DC
:10296000010681E18093020681E08093030680E006
:1029700096E00E94E213882341F0FE017D96A59621
:1029800011921782EC17FD07D9F7DF91CF910895C7
:10299000CF93DF93FC018281938124E0880F991FFC
:1029A0002A95E1F76AE070E00E9439238085882348
:1029B00069F0EB010184F285E02D3097E1F0808130
:1029C00091810E94CA228130B1F020C0CB01805A8F
:1029D000910981369F4378F585E0809301068CE16B
:1029E0008093020610920306109204066093050677
:1029F000709306061AC085E0809301068FE08093ED
:102A0000020610920406109203060BC085E0809324
:102A1000010680E1809302061092040684EB809305
:102A20000306D0930606C093050680E096E0DF918A
:102A3000CF910C94E213DF91CF9108956F3E8FEF09
:102A400078074CF0653F8FEF78073CF06B3F7F4F86
:102A500034F083E005C080E003C081E001C082E083
:102A600092E09093010692E1909302068093030610
:102A700080E096E00C94E2130E94EA19FC01892B95
:102A800091F09481911103C09581992361F082E0C6
:102A9000809301068FE1809302069093030680E005
:102AA00096E00C94E21380E00895CF93DF93EC015D
:102AB0000E94EA19FC01892B29F19481911103C02C
:102AC00095819923F9F0892F869586958695C80F6B
:102AD000D11D2DA130E0892F877002C03595279533
:102AE0008A95E2F720FF0EC082E08093010684E120
:102AF000809302069093030680E096E0DF91CF91E9
:102B00000C94E21380E0DF91CF9108950F931F930F
:102B1000CF938C010E94EA190097D1F0FC01C68185
:102B2000CC23B1F06C2FC8010D960E94D3038823EB
:102B300079F082E08093010687E180930206C093DA
:102B4000030680E096E0CF911F910F910C94E21361
:102B500080E0CF911F910F910895089508958B51B2
:102B60009F4FFA012487211103C022E030E002C008
:102B700021E030E0220F331FFA01E20FF31F078438
:102B8000F089E02D309711F0BA01099408950F9360
:102B9000DA01A901202FBC016B517F4FED91FC910F
:102BA00011970288F389E02DCD010F910994FC0162
:102BB000ED50FF4F0190F081E02D309719F08B51CF
:102BC0009F4F09940895FC01EF50FF4F0190F08151
:102BD000E02D309719F08B519F4F09940895089577
:102BE000089508950895089580E0089580E0089577
:102BF00080E090E0089581E0089580E00895CF930B
:102C0000DF93CDB7DEB7DF91CF910895FC018085CA
:102C10009185FC01E60FF71F80810895FC018285F4
:102C20000895FC018085918508950F931F93CF939C
:102C3000DF93EC018B01BA01E881F9810684F78505
:102C4000E02D422F099581E08B87EF85F889309739
:102C500039F0BE01C801DF91CF911F910F91099406
:102C6000DF91CF911F910F910895FC01878190858D
:102C7000FC01E60FF71F8081089580E00895FC01B4
:102C800081850895FC01878190850895FC018681E6
:102C90000895FB0101900020E9F73197AF01461B31
:102CA000570BDC01ED91FC910684F785E02D09942A
:102CB0000C9410240C9410240C94102423E332E080
:102CC000FC013183208387819085009711F00C945B
:102CD00010240895CF93DF93EC010E945E16CE017D
:102CE000DF91CF910C941024EF92FF920F93CF932A
:102CF000DF93EA018B519F4F7C010F83402F50E0FF
:102D0000B901CE0108960E946F2581E08E8FE9A15E
:102D1000FAA1309741F0BE01C701DF91CF910F9129
:102D2000FF90EF900994DF91CF910F91FF90EF907A
:102D30000895FA019C012B513F4FD901129656E09C
:102D400001900D925A95E1F7FC01E351FF4F01907C
:102D5000F081E02D309711F0C90109940895CF93C7
:102D6000DF93EC018E81481708F4842F8987482F60
:102D700050E08F8198850E946F258D859E850097F4
:102D800051F0DC01ED91FC910190F081E02DBE014C
:102D9000DF91CF91099481E0DF91CF910895CF9396
:102DA000DF93FC01E151FF4F0190F081E02DEC0138
:102DB000CB51DF4F309711F0CE010995229686E076
:102DC000FE0111928A95E9F7DF91CF910895CF9393
:102DD000DF93EC018FED91E00E942103CE0102967A
:102DE0000E9453026DED73E08FEE93E00E94C31AD0
:102DF00060E083E0DF91CF910C94B812CF93DF9322
:102E0000EC0183ED91E00E942103CE0102960E9425
:102E100053026DED73E08FEE93E00E94C31A61E000
:102E200083E0DF91CF910C94B8122F923F924F9292
:102E30005F926F927F928F929F92AF92BF92CF924A
:102E4000DF92EF92FF920F931F93CF93DF93CDB753
:102E5000DEB729970FB6F894DEBF0FBECDBF6C0169
:102E60004B01FC01718360831B82128AFB0101907C
:102E70000020E9F7CF01861B970B9C0122503109F6
:102E80007901F7FCB0C0F6010289003108F0ABC04F
:102E9000F401EE0DFF1D80818D3221F4FFEFEF1A5A
:102EA000FF0A9DC03197908199838A83202F30E05B
:102EB00039872887CE0101963C0153019FEFA91A5B
:102EC000B90AF3011081812F90E00E949021892B93
:102ED00011F03501F2CF1D3259F45301F2E0AF0E7B
:102EE000B11CF301118121E030E03D832C830AC045
:102EF0001B3231F4530132E0A30EB11CF3011181F6
:102F00001D821C82103349F4F50180818F7D883544
:102F100021F41181F2E0AF0EB11CBF82AE82A12C70
:102F2000B12C212C312C2101612E712C17FD3CC0BC
:102F3000C301C0970A9710F410530EC0C3010E943A
:102F40006725892B89F1C3010E946425892B11F41F
:102F500087E501C087E3181B812F90E0409724F597
:102F6000B7FC19C021143104410420E1520698F441
:102F7000D201C10124E0880F991FAA1FBB1F2A9507
:102F8000D1F71C012D01210E311C411C511CAA241A
:102F9000A394B12C03C0AA24AA94BA2CEE81FF8179
:102FA0001191FF83EE83C0CFB7FC0DC02C813D8112
:102FB000232B69F05094409430942094211C311CB0
:102FC000411C511C04C022242A94322C2101E88582
:102FD000F985EC0DFD1D22820F5FF601028BF2E0F8
:102FE000EF1AF1084ECF29960FB6F894DEBF0FBE48
:102FF000CDBFDF91CF911F910F91FF90EF90DF90A8
:10300000CF90BF90AF909F908F907F906F905F9088
:103010004F903F902F9008950895CF93DF93EC0148
:103020008FED91E09983888383E192E09B838A838B
:103030008FE192E09D838C838E819F81DC01ED91F5
:10304000FC910084F185E02D0995FE01EC58FF4FBD
:1030500080819181009711F00E941024FE01EF58A9
:10306000FF4F80819181009711F00E941024CE01C2
:1030700087559F4F0E945E16CE0180579F4F0E943A
:103080005E16CE0185589F4F0E945E16CE010896AF
:10309000DF91CF910C942305CF93DF93EC010E9435
:1030A0000D18CE01DF91CF910C941024089508954E
:1030B000AF92BF92CF92DF92EF92FF920F931F9346
:1030C000CF93DF935C017A0169018B01C0E0D0E00E
:1030D000CC15DD0579F0F5018081918101968E0D89
:1030E0009F1D8C0F9D1F0E94CA22F80181938F01A2
:1030F0002196EECFDF91CF911F910F91FF90EF902E
:10310000DF90CF90BF90AF900895AF92BF92CF92D3
:10311000DF92EF92FF920F931F93CF93DF937C0187
:10312000D62FC72F5A01690161E0FC01808191818E
:103130000E94D2220D2F1C2FC0E0D0E0CC15DD055F
:1031400079F0F80161918F01F701808191810196F9
:103150008A0D9B1D8C0F9D1F0E94D2222196EECFBF
:10316000DF91CF911F910F91FF90EF90DF90CF9063
:10317000BF90AF9008952BE231E0FC0131832083B2
:103180000C945E16CF93DF93EC010E94BB18CE0126
:10319000DF91CF910C94102423E431E0FC013183C2
:1031A00020830C94BB18CF93DF93EC010E94CC18C2
:1031B000CE01DF91CF910C9410242BE531E0FC017E
:1031C000318320830C94CC18CF93DF93EC010E94C1
:1031D000DD18CE01DF91CF910C9410240895CF9289
:1031E000DF92EF92FF920F931F93CF93DF936C01C7
:1031F0007A018B01C0E0D0E0CE15DF0581F0D80167
:103200006D918D01D601ED91FC910190F081E02D41
:10321000C6010995892B11F02196EECF7E01C701D9
:10322000DF91CF911F910F91FF90EF90DF90CF90A2
:1032300008950E945F25EF92FF920F931F93CF9303
:10324000DF93EC01CB01FB01A181EA2EF12C4111AE
:1032500003C0A1E0B0E002C0AFEFBFEF8E01035AA0
:103260001F4FF80120813181BC016F5F7F4FAE0D90
:10327000BF1DA60FB71FA617B70709F132272327CF
:103280003227FB015191BF012527F901FF2754E0A7
:10329000F595E7955A95E1F72E273F27F901FE2F7F
:1032A000EE27F295F07F2E273F27F901FF2755E003
:1032B000EE0FFF1F5A95E1F72E273F27DCCFF801CD
:1032C00031832083442331F0FC013683F8012081CF
:1032D000FC0127830E94E2138E01035D1F4F7E01D4
:1032E000FDE0EF0EF11CB801C7010E94E403882342
:1032F00071F08FA58438B9F789A98150823098F789
:10330000DF91CF911F910F91FF90EF90089561E0B1
:1033100070E080E090E00E942313E5CFEF92FF92EF
:103320000F93CF93DF93EB01542F7901402F26E0C9
:103330002A83F70121812F705295507F522B5B8396
:1033400020812C830E941B19898190E00397F7014B
:1033500020813181820F931F91838083DF91CF91F0
:103360000F91FF90EF900895EF92FF920F931F93AC
:10337000CF93DF93CDB7DEB765970FB6F894DEBF76
:103380000FBECDBF082F142FE42EF12CA701CE01C4
:1033900002960E946F25E0E0F6E01E5F11838DE04B
:1033A00082830383A701BE016E5F7F4F84E096E0B6
:1033B0000E946F2580E096E065960FB6F894DEBF18
:1033C0000FBECDBFDF91CF911F910F91FF90EF9076
:1033D0000C94E2130F931F93CF93DF93FC01E85AF1
:1033E000FF4F408150E0A0E0B0E020E030E08C01F1
:1033F0000A5A1F4F241735077CF4F8018081918108
:103400008A0F9B1F1796FC01C081D181C617D70771
:1034100029F02F5F3F4FEECF80E090E0DF91CF911A
:103420001F910F9108950F931F93CF93DF93EC019A
:1034300088819981009729F02A813B8126173707D7
:1034400088F48B016F5F7F4F0E949924009761F091
:10345000998388831B830A832C813D81232B11F45C
:10346000FC01108281E001C080E0DF91CF911F91CB
:103470000F910895EF92FF920F931F93CF93DF93D5
:10348000EC017B018A01BA010E94131A288139815B
:1034900081110DC02115310519F0C9010E941024B8
:1034A000198218821D821C821B821A8206C01D830B
:1034B0000C83B701C9010E948825CE01DF91CF910D
:1034C0001F910F91FF90EF9008956115710579F0AC
:1034D000FB0101900020E9F73197AF01461B570B24
:1034E000DC01ED91FC910280F381E02D099480E0F4
:1034F00090E008958F929F92AF92BF92EF92FF92C9
:103500000F931F93CF93DF93CDB7DEB7A1970FB67D
:10351000F894DEBF0FBECDBF7C01FA01CB0119A22A
:10352000223008F42AE08E010F5D1F4F822E912C6D
:10353000A12CB12CBF01A50194010E94E022F90148
:10354000CA01015011096A3014F4605D01C0695C60
:10355000D8016C93232B242B252B61F7B801C701CD
:103560000E94651AA1960FB6F894DEBF0FBECDBFBC
:10357000DF91CF911F910F91FF90EF90BF90AF908F
:103580009F908F9008950F931F93CF93DF93EC013B
:103590000E94651A8C0166E572E0CE010E94651AF0
:1035A000800F911FDF91CF911F910F910895CF93BD
:1035B000DF93CDB7DEB7CB56D1090FB6F894DEBF97
:1035C0000FBECDBF789484B5826084BD84B5816020
:1035D00084BD85B5826085BD85B5816085BD8091DE
:1035E0006E00816080936E00109281008091810056
:1035F000826080938100809181008160809381004E
:10360000809180008160809380008091B10084600F
:103610008093B1008091B00081608093B000809170
:103620007A00846080937A0080917A00826080932F
:103630007A0080917A00816080937A0080917A008C
:10364000806880937A001092C1001092D00410928A
:10365000D1041092D2041092D30410928E041092CE
:103660008F0410929004109291040E945D136B01DC
:103670007C014B015C0128EB820E2BE0921EA11C09
:10368000B11C0E945D136C157D058E059F0528F009
:1036900086169706A806B906A0F78FEE93E09093DA
:1036A000CF048093CE040E943C030E945D1360937C
:1036B0008E0470938F04809390049093910467E438
:1036C00072E08091CE049091CF040E94651A0E940E
:1036D0005D136B017C014B015C013AE0830E911C90
:1036E000A11CB11C0E945D136C157D058E059F0504
:1036F00028F086169706A806B906A0F781E0809301
:10370000A2040E943C0369E572E08FEE93E00E9400
:10371000C31A62E084E00E94E71261E083E00E9445
:10372000E71260E083E00E94B81288E692E090938E
:103730006905809368058091F5049091F604909353
:1037400062058093610585EF94E00E94B20382EEEA
:1037500094E00E94B20387ED94E00E94B2038EEFE2
:1037600096E19093E7058093E60587EE96E19093C6
:10377000E9058093E80524961FAE249760916305C0
:10378000709164056115710501F1CE01875A9F4F53
:103790000E941517AC960FADAC970983033010F457
:1037A00084E101C085E18A83402F50E069E570E043
:1037B0006C0F7D1F6E5F7F4FCE0103960E946F25B9
:1037C00014E1101BDD24D39402C016E1D12C6091CA
:1037D0006105709162056115710509F442C0CE0161
:1037E000875A9F4F0E941517AC960FADAC97402F8C
:1037F00050E09A012F5F3F4F812F90E02817390743
:1038000084F56D2D70E0E1E0F0E0EC0FFD1F86E146
:10381000D89EE00DF11D11240083033010F422E046
:1038200001C026E036E1369FC001379F900D11247C
:10383000E1E0F0E0EC0FFD1FE80FF91F2183029695
:1038400069E570E06C0F7D1F6E5F7F4FA1E0B0E017
:10385000AC0FBD1F8A0F9B1F0E946F25D394101BB6
:10386000125060916505709166056115710549F109
:1038700040916705442329F1133018F1842F90E01B
:103880000196212F30E08217930714F04EEF410F7D
:10389000B6E1DB9EC0011124E1E0F0E0EC0FFD1F7A
:1038A000E80FF91F40832FEF2183029650E0EE24AA
:1038B000E394F12CEC0EFD1E8E0D9F1D0E946F25D2
:1038C000D39460916805709169056115710521F1C6
:1038D000FB0101900020E9F73197E61BF70B8E2FD3
:1038E0002496EFAF2497E53120F094E124969FAF22
:1038F000249724964FAD2497481710F089E001C013
:1039000088E025968FAF259750E083E490E08C0FF8
:103910009D1F02960E946F2580916A0590916B050C
:10392000892B11F40E948E0320E030E04BEF54E02D
:1039300080916C0590E0281739072CF020E030E0EA
:103940004DEF54E02FC0E0916A05F0916B05C9017D
:10395000880F991FE80FF91F0190F081E02D8281F7
:1039600093818330984241F4309711F0329702C02E
:10397000E0E0F0E0568745872F5F3F4FD9CFE091D9
:103980006D05F0916E05C901880F991FE80FF91FA9
:103990000190F081E02D828193818330984251F033
:1039A0002F5F3F4F80916F05682F70E02617370714
:1039B00034F309C0309711F0329702C0E0E0F0E034
:1039C00050A3478FEDCF882341F087EB95E00E940D
:1039D00064038DEB95E00E9464038091FF04909155
:1039E0000005A0906D05B0906E05E0906A05F0901E
:1039F0006B0521E024963FAD2497311101C020E0F2
:103A0000DC01ED91FC910480F581E02D80906F0543
:103A1000C0906C058E010D5B1F4FAE014F5F5F4F75
:103A20006D2D09958091FF0490910005DC01ED91C9
:103A3000FC9100A4F1A5E02D099580E090E0A8ECB0
:103A4000B2E427968CAF9DAFAEAFBFAF279744E0EF
:103A5000B80180EE94E00E94AF16812C912C88EC86
:103A6000A82E82E4B82E0E945D13672B682B692B69
:103A700041F40E945D13623071058105910508F4DF
:103A80000DC10E945D130091CA021091CB022091DA
:103A9000CC023091CD02601771078207930740F482
:103AA0006093CA027093CB028093CC029093CD02B4
:103AB0000091CA021091CB022091CC023091CD022C
:103AC0006B017C01C01AD10AE20AF30A9701860150
:103AD0000A3F11052105310508F4E0C06093CA02D0
:103AE0007093CB028093CC029093CD0284EF91E04F
:103AF000A0E0B0E080939A0490939B04A0939C0470
:103B0000B0939D0410929E0410929F041092A00402
:103B10001092A1048091920490919304A091940436
:103B2000B09195048093960490939704A093980481
:103B3000B09399040E945D13609392047093930470
:103B400080939404909395040E945D1360938E0477
:103B500070938F0480939004909391040E945D135E
:103B60006B017C0168E772E08091CE049091CF04F4
:103B70000E94651A2AE041E050E060E070E0809128
:103B8000CE049091CF040E947A1A6FE772E0809180
:103B9000CE049091CF040E94651A2AE0B701A601D5
:103BA0008091CE049091CF040E947A1A61E872E06D
:103BB0008091CE049091CF040E94651A8091920466
:103BC00090919304A0919404B0919504B701A6013B
:103BD000481B590B6A0B7B0B2AE08091CE04909115
:103BE000CF040E947A1A61E872E08091CE0490912D
:103BF000CF040E94651A4091920450919304609101
:103C00009404709195048091960490919704A091EA
:103C10009804B0919904481B590B6A0B7B0B2AE05E
:103C20008091CE049091CF040E947A1A63E872E0EA
:103C30008091CE049091CF040E94651A0E945D137A
:103C4000AB01BC012AE08091CE049091CF040E9488
:103C50007A1A65E872E08091CE049091CF040E94B8
:103C6000C31A0E945D136B017C012B013C0192E0A1
:103C7000490E511C611C711C0E945D136C157D0561
:103C80008E059F0508F08DC00E945D13609392041D
:103C90007093930480939404909395048091FF040F
:103CA00090910005DC01ED91FC910680F781E02DFB
:103CB000099584E00E948F128C018091C802909136
:103CC000C9020817190751F00E945D136093C402DE
:103CD0007093C5028093C6029093C7020E945D1341
:103CE000C090C402D090C502E090C602F090C70216
:103CF000DC01CB018C199D09AE09BF09C397A10551
:103D0000B10508F447C08091C2029091C302081720
:103D1000190709F43FC01093C3020093C202013097
:103D20001105C1F589829A82AB82BC8244E0BE0152
:103D30006F5F7F4F80EE94E00E94AF1684E890E0C2
:103D40000E9421032AE044E650E060E070E08FEE3C
:103D500093E00E947A1A6EE28FEE93E00E945E0179
:103D60002AE040E050E0BA018FEE93E00E947A1A18
:103D70002AE040E050E0BA018FEE93E00E947A1A08
:103D800082E890E00E94210366E572E08FEE93E006
:103D90000E94651A1093C9020093C8020E94B511CF
:103DA00062CE461657066806790608F065CF6CCFD6
:103DB000AF92BF92DF92EF92FF920F931F93CF9338
:103DC000DF93CDB7DEB72A970FB6F894DEBF0FBEEC
:103DD000CDBFEFEEF3E01382128288EE93E0A0E015
:103DE000B0E084839583A683B7838BE091E09183D1
:103DF000808385EC90E09587848784EC90E09787BA
:103E0000868780EC90E0918B808B81EC90E0938BA7
:103E1000828B82EC90E0958B848B86EC90E0978B84
:103E2000868B118E128E138E148EECE8F4E01682BF
:103E300017821086118612861386148615861686BA
:103E40001786108A118A128A138A148A158A09EF32
:103E500014E08FED91E0D80111969C938E9383E14D
:103E600092E013969C938E9312978FE192E01596B1
:103E70009C938E93149784E690E01B969C938E936C
:103E80001A971D961C921E921C971F961C921E92AA
:103E90001E9781E050968C93509752961C921E92DA
:103EA000519754961C921E9253978DEA91E0199661
:103EB0009C938E9318971092510510925005109272
:103EC0005205109253051092540510925505109208
:103ED00056051092580510925705109259051092E8
:103EE0005B0510925A0510925C0510925D058FEFEC
:103EF0009FEF90935F0580935E0586E0D82E5596E0
:103F0000DC92559782E056968C93569789E05796A7
:103F10008C9357978FEF58968C93589759968C930C
:103F2000109262051092610510926405109263056B
:103F3000109266051092650510926705109269054A
:103F40001092680510926B0510926A0510926C052C
:103F500010926E0510926D0510926F058CE892E03C
:103F60009093710580937005E12C98E2F92EF09200
:103F70007305E09272058091D4048F5F8093D4041E
:103F800023E142E061E972E084E795E00E94572175
:103F900022E042E066E972E089E895E00E9457215C
:103FA0002BE9A22E22E0B22EB0929F05A0929E0590
:103FB000F092A105E092A0058091D4048F5F8093D8
:103FC000D40424E040E260EA72E082EA95E00E94D4
:103FD0005721B092B805A092B705F092BA05E092C9
:103FE000B9058091ED0520EA32E03093BE052093BB
:103FF000BD0523E038E23093C0052093BF058E5FF6
:104000008093ED0583E791E09093BC058093BB0519
:1040100080E28093C1051092C2051092D9051092DA
:10402000DB051092DA051092DD051092DC05109385
:10403000DF050093DE05E0EEF5E0DF011D92DA9486
:10404000E9F781E095E0F8019783868388E0E6EE62
:10405000F5E0DF011D928A95E9F765EA72E084E7F1
:1040600095E00E9449161A86198642E0BE01675FF4
:104070007F4F89E895E00E94AF16D8011696ED9122
:10408000FC91179714870387E5EFF4E08DEA92E03F
:1040900091838083F382E2828091D4048F5F809346
:1040A000D40424E042E162EB72E080EE94E00E94EE
:1040B000572130EEE32E34E0F32E14E0F7011187A0
:1040C00083E491E091838083FE013596DF01812FA7
:1040D0001D928A95E9F719821A821B821C8244E09C
:1040E000BE016F5F7F4FC7010E94AF168BE591E065
:1040F000D7018D939C93E5EDF4E087EB92E09383F9
:10410000828380E099E2958384838091D4048F5FD9
:104110008093D4048DE191E0918380838CEB92E0D5
:104120009187808712872A960FB6F894DEBF0FBE5C
:10413000CDBFDF91CF911F910F91FF90EF90DF9056
:10414000BF90AF900895DC0116968D919C911797C2
:10415000DC01ED91FC9106A0F7A1E02D09940497F4
:104160000C94A320DC0116968D919C911797DC018D
:10417000ED91FC9104A0F5A1E02D099404970C9415
:10418000B220DC0116968D919C911797DC01ED9180
:10419000FC9102A0F3A1E02D099404970C94C12096
:1041A000DC0116968D919C911797DC01ED91FC91A5
:1041B00000A0F1A1E02D099404970C94D020DC011B
:1041C00016968D919C911797DC01ED91FC91068CD0
:1041D000F78DE02D099404970C94DF20DC011696EE
:1041E0008D919C911797DC01ED91FC91048CF58DDC
:1041F000E02D099404970C94EE20DC0116968D9125
:104200009C911797DC01ED91FC91028CF38DE02DD0
:10421000099404970C94FD20DC0116968D919C91D5
:104220001797DC01ED91FC91008CF18DE02D099444
:1042300004970C940C21DC0116968D919C91179794
:10424000DC01ED91FC910688F789E02D0994029735
:104250000C941B21DC0116968D919C911797DC0123
:10426000ED91FC910488F589E02D099402970C9456
:104270002A21DC0116968D919C911797DC01ED9116
:10428000FC910288F389E02D099402970C9439215E
:10429000DC0116968D919C911797DC01ED91FC91B4
:1042A0000088F189E02D099402970C944821CF935E
:1042B000DF93FC017383628383E098E295838483B8
:1042C0008091D4048F5F8093D40483E392E0918340
:1042D0008083822F253108F084E18683108617823F
:1042E00011864287138614861686158696E0DF01AE
:1042F0001F96ED0119929A95E9F7222331F0EF010B
:1043000090E00E94782398878F83DF91CF91089562
:1043100080EE94E00E94DD1889EF94E00C940D1873
:1043200091110C94BC21803219F089508550C8F746
:104330000895FB01DC0102C005900D9241505040F0
:10434000D8F70895BB27FB015527AA27880F991F87
:10435000AA1FA41710F0A41B83955051B9F7A05DB4
:10436000AA3308F0A95DA193009779F7B111B19331
:104370001192CB010C94BF21992788270895DC0165
:10438000FC01672F71917723E1F7329704C07C918C
:104390006D9370836291AE17BF07C8F30895E894D8
:1043A00009C097FB3EF490958095709561957F4F7D
:1043B0008F4F9F4F9923A9F0F92F96E9BB2793952B
:1043C000F695879577956795B795F111F8CFFAF43B
:1043D000BB0F11F460FF1BC06F5F7F4F8F4F9F4F6C
:1043E00016C0882311F096E911C0772321F09EE8CA
:1043F000872F762F05C0662371F096E8862F70E030
:1044000060E02AF09A95660F771F881FDAF7880F09
:104410009695879597F908950E941F220C949022F3
:104420000E94822238F00E94892220F0952311F008
:104430000C9479220C947F2211240C94C4220E94A3
:10444000A12270F3959FC1F3950F50E0551F629F15
:10445000F001729FBB27F00DB11D639FAA27F00DDD
:10446000B11DAA1F649F6627B00DA11D661F829F04
:104470002227B00DA11D621F739FB00DA11D621FE9
:10448000839FA00D611D221F749F3327A00D611D06
:10449000231F849F600D211D822F762F6A2F1124E8
:1044A0009F5750409AF0F1F088234AF0EE0FFF1F1B
:1044B000BB1F661F771F881F91505040A9F79E3F72
:1044C000510580F00C9479220C94C4225F3FE4F3F0
:1044D000983ED4F3869577956795B795F795E795C8
:1044E0009F5FC1F7FE2B880F911D9695879597F9D1
:1044F000089597F99F6780E870E060E008959FEF66
:1045000080EC089500240A9416161706180609066A
:10451000089500240A941216130614060506089539
:10452000092E0394000C11F4882352F0BB0F40F4C1
:10453000BF2B11F460FF04C06F5F7F4F8F4F9F4F01
:10454000089557FD9058440F551F59F05F3F71F083
:104550004795880F97FB991F61F09F3F79F08795EA
:104560000895121613061406551FF2CF4695F1DF73
:1045700008C0161617061806991FF1CF8695710503
:10458000610508940895E894BB2766277727CB0137
:1045900097F90895F999FECF92BD81BDF89A9927B0
:1045A00080B50895262FF999FECF1FBA92BD81BD1F
:1045B00020BD0FB6F894FA9AF99A0FBE01960895A5
:1045C000A1E21A2EAA1BBB1BFD010DC0AA1FBB1F17
:1045D000EE1FFF1FA217B307E407F50720F0A21B89
:1045E000B30BE40BF50B661F771F881F991F1A94F6
:1045F00069F760957095809590959B01AC01BD0120
:10460000CF0108952F923F924F925F926F927F92C7
:104610008F929F92AF92BF92CF92DF92EF92FF92D2
:104620000F931F93CF93DF93CDB7DEB7CA1BDB0B7E
:104630000FB6F894DEBF0FBECDBF09942A88398823
:1046400048885F846E847D848C849B84AA84B9842A
:10465000C884DF80EE80FD800C811B81AA81B98136
:10466000CE0FD11D0FB6F894DEBF0FBECDBFED014A
:104670000895AA1BBB1B51E107C0AA1FBB1FA617A9
:10468000B70710F0A61BB70B881F991F5A95A9F7FB
:1046900080959095BC01CD010895EE0FFF1F059008
:1046A000F491E02D09940F93083090F0982F872F04
:1046B000762F652F542F432F322F22270850F4CF07
:1046C000220F331F441F551F661F771F881F991F16
:1046D0000A95B2F70F9108950024A7FD00942A17B8
:1046E000300540055005600570058005900508956A
:1046F0000F931F93CF93DF938230910510F482E0E4
:1047000090E0E0912306F091240620E030E0A0E064
:10471000B0E0309719F1408151810281138148172F
:104720005907C8F08417950769F4109731F012966D
:104730000C93129713961C9327C000932306109393
:10474000240622C02115310519F04217530718F429
:104750009A01BD01EF01DF01F801DBCF2115310521
:10476000F9F0281B390B2430310580F48A819B81B4
:104770006115710521F0FB019383828304C090933E
:10478000240680932306FE01329644C0FE01E20F08
:10479000F31F8193919322503109398328833AC0C2
:1047A0002091210630912206232B41F42091020111
:1047B00030910301309322062093210620910001BD
:1047C000309101012115310541F42DB73EB74091DB
:1047D000040150910501241B350BE0912106F09155
:1047E0002206E217F307A0F42E1B3F0B2817390708
:1047F00078F0AC014E5F5F4F2417350748F04E0F3D
:104800005F1F50932206409321068193919302C02B
:10481000E0E0F0E0CF01DF91CF911F910F9108957B
:10482000CF93DF93009709F481C0FC013297138284
:104830001282A0912306B0912406109781F4208162
:104840003181820F931F2091210630912206281773
:10485000390751F5F0932206E093210667C0ED0178
:1048600020E030E0CE17DF0740F44A815B819E01F3
:1048700041155105F1F0EA01F5CFD383C2834081A0
:104880005181840F951FC817D90759F488819981E0
:10489000840F951F0296918380838A819B819383E5
:1048A00082832115310529F4F0932406E093230631
:1048B0003DC0E901FB83EA8349915991C40FD51F9B
:1048C000EC17FD0761F480819181840F951F02969A
:1048D000E90199838883828193819B838A83E0E0C5
:1048E000F0E012968D919C911397009719F0FD01BD
:1048F000DC01F7CF8D919C9111979D012E5F3F4F69
:10490000820F931F20912106309122062817390724
:1049100069F4309729F4109224061092230602C0FD
:1049200013821282B0932206A0932106DF91CF91C9
:104930000895A0E0B0E0EFE9F4E20C940623EC0166
:10494000009721F4CB010E947823B4C0FC01E60F4C
:10495000F71F9C0122503109E217F30708F4A8C0A1
:10496000D9010D911C91119706171707B0F005306A
:10497000110508F49BC0C80104978617970708F42F
:1049800095C002501109061B170B019311936D93EB
:104990007C93CF010E94102489C05B01A01AB10A48
:1049A0004C01800E911EA0912306B0912406612C2B
:1049B000712CE12CF12C109709F446C08D919C913B
:1049C0001197A815B905B1F56C0142E0C40ED11CD0
:1049D000CA14DB0478F14C018A189B08640142E098
:1049E000C40ED11C1296BC9012971396AC91B5E0F0
:1049F000CB16D10440F0B282A38391828082D90188
:104A00006D937C9309C00E5F1F4F800F911FF901BA
:104A100091838083EB2DFA2FE114F10431F0D7015B
:104A20001396FC93EE93129741C0F0932406E09303
:104A300023063CC06816790608F43C017D011296F5
:104A40000D90BC91A02DB7CF8091210690912206A8
:104A500088169906E1F466167706C8F4809100017D
:104A600090910101009741F48DB79EB740910401E8
:104A700050910501841B950BE817F907C8F4F093D2
:104A80002206E0932106F901718360830FC0CB01F8
:104A90000E9478237C01009759F0A801BE010E9472
:104AA0006F25CE010E941024C70104C0CE0102C0B0
:104AB00080E090E0CDB7DEB7EEE00C94222381E0F9
:104AC00090E0F8940C949E2585FD0C94BC218062A6
:104AD00091110C94BC2181568A51D8F70895FB019D
:104AE000DC0102C001900D9241505040D8F708956A
:104AF000DC0101C06D9341505040E0F70895FB0187
:104B0000DC018D91019080190110D9F3990B089562
:104B1000FB01DC0101900D920020E1F70895FB01FB
:104B2000DC014150504048F001900D920020C9F73F
:104B300001C01D9241505040E0F7089510E0C8EFC9
:104B4000D0E004C0FE010E944D232196C93FD10749
:064B5000C9F7F894FFCF45
:104B560000002506800000000000005E01EF18231B
:104B660001AB01A911320146010000000057185C93
:104B76001611160E16061600000000BB18C21846BF
:104B86001642163F163516FB15AF164916151600B2
:104B9600000000CC18D318461642163F163516FBF1
:104BA60015AF164916151600000000DD18E4184664
:104BB6001642163F163516FB15AF16491615160082
:104BC6000000000C1858160000000056185A16FF70
:104BD60015EE18EE18FD15EE18EE18F415F415F48A
:104BE60015F415F415F415F415F615F415F415F475
:104BF60015F415EE18EE18EE180000000023052A2D
:104C0600053405CB0DAA0D1E15C814AB14D00C28FF
:104C16000C200C200C5812861540126214141255E2
:104C2600150D123C15A21499149014000000009959
:104C360016CF16E315D715C715AF157416AE15ADF5
:104C460015AD150D184C18482139212A211B210CA8
:104C560021FD20EE20DF20D020C120B220A320FE9F
:104C6600FF00005421452136212721FCFF000018B2
:104C7600210921FA20EB20DC20CD20BE20AF200028
:104C86000000005E166A16461642163F1635163D99
:104C960016AF1649161516564D4450565F317C31DF
:104CA6005F564D4450560D0A00536F667477617215
:104CB6006520737461727400426C7565746F6F74ED
:104CC60068204C6169746500564D4450455F003A52
:104CD600323A007C005F564D445045003138303042
:104CE600003261303000326130310031383031000D
:104CF600326130350041726475696E6F0041414121
:104D06003000414141310032393031004152564F75
:024D160000009B
:00000001FF
