:100000000C9456010C947E010C947E010C947E019C
:100010000C947E010C947E010C947E010C947E0164
:100020000C947E010C947E010C947E010C940306CA
:100030000C947E010C947E010C947E010C947E0144
:100040000C9463140C947E010C942E020C94080200
:100050000C947E010C947E010C947E010C947E0124
:100060000C947E010C947E018E18101CFA1BF11862
:10007000E5198118271B001A101CCD1B101C4A1BE8
:10008000D31B4E65772076616C75653A20000000C1
:100090000008000201000003040700000000000047
:1000A0000000446973636F6E6E65637465642066F7
:1000B000726F6D2063656E7472616C3A2000636FBD
:1000C000756E746572207772697474656E2C207217
:1000D0006573657400436F6E6E6563746564207448
:1000E0006F2063656E7472616C3A2000436F6E6EB0
:1000F00065637465643A2000446973636F6E6E656E
:10010000637465643A200043686172616374657268
:100110006973746963206576656E742C20777269E3
:1001200074656E3A20004E4557204C454420564198
:100130004C55453A20004368617261637465726989
:1001400073746963206576656E742C2073756273B1
:1001500063726962656400436861726163746572A9
:100160006973746963206576656E742C20756E738F
:1001700075627363726962656400000706000003BC
:100180000241FE000000000000000000000000002E
:100190000000000000000000000000001F0610002A
:1001A0000000000000000000000101000006000641
:1001B000000000000000000000000000001F06100A
:1001C0001C00000000000000000000000000000013
:1001D000000000000000001000039000FF001F0658
:1001E0001038FFFF02580A05000000000000000060
:1001F00000001000000000000102010201020005E1
:100200000610540002000000000000000000000082
:1002100000000000000000000000000000000000DE
:10022000190670000000000000000000000000003F
:1002300000000000000000000000000000000000BE
:100240000019067016000000000000000000000009
:10025000000000000000000000000000000000009E
:100260000000000000240027002A000000000025F4
:100270000028002B000000000023002600290004B5
:10028000040404040404040202020202020303033D
:100290000303030102040810204080010204081037
:1002A0002001020408102000C121B52111241FBE25
:1002B000CFEFD8E0DEBFCDBF12E0A0E0B1E0E6EACC
:1002C000F1E502C005900D92AA3FB107D9F726E0EB
:1002D000AAEFB2E001C01D92A338B207E1F711E026
:1002E000C5E5D1E004C02197FE010E946826C4350F
:1002F000D107C9F70E94691C0C94C6280C94000011
:10030000FC01538D448D252F30E0842F90E0821B1B
:10031000930B541710F0CF960895019708958CE52C
:1003200094E00E949B1221E0892B09F420E0822FA7
:100330000895EF92FF920F931F93CF93DF93EC01F9
:1003400081E0888F9B8D8C8D981305C0E889F98991
:10035000808185FD26C0F62E0B8D10E00F5F1F4FAC
:100360000F731127E02E8C8DE8120CC00FB607FC1E
:10037000FACFE889F989808185FFF5CFCE010E9407
:100380006713F1CF8B8DFE01E80FF11DE35AFF4F8C
:10039000F0829FB7F8940B8FEA89FB898081806295
:1003A0000AC09FB7F894EE89FF896083E889F989CC
:1003B00080818370806480839FBF81E090E0DF91C3
:1003C000CF911F910F91FF90EF900895CF93DF93FE
:1003D000EC01888D8823C9F0EA89FB89808185FD3D
:1003E00005C0A889B9898C9186FD0FC00FB607FC9E
:1003F000F5CF808185FFF2CFA889B9898C9185FFDF
:10040000EDCFCE010E946713E7CFDF91CF91089522
:100410001F920F920FB60F9211242F933F934F9379
:100420005F936F937F938F939F93AF93BF93EF935C
:10043000FF938CE594E00E946713FF91EF91BF91C9
:10044000AF919F918F917F916F915F914F913F916C
:100450002F910F900FBE0F901F9018951F920F9223
:100460000FB60F9211242F938F939F93EF93FF93C7
:10047000E0916C04F0916D048081E0917204F09140
:10048000730482FD12C09081809175048F5F8F7319
:1004900020917604821751F0E0917504F0E0E45A5F
:1004A000FB4F958F8093750401C08081FF91EF9180
:1004B0009F918F912F910F900FBE0F901F901895C5
:1004C000089508958B519F4FFA012487211103C08D
:1004D00022E030E002C021E030E0220F331FFA01B9
:1004E000E20FF31F0784F089E02D309711F0BA0175
:1004F000099408950F93DA01A901202FBC016B51D3
:100500007F4FED91FC9111970288F389E02DCD0189
:100510000F910994FC01ED50FF4F0190F081E02D07
:10052000309719F08B519F4F09940895FC01EF50BB
:10053000FF4F0190F081E02D309719F08B519F4FC4
:10054000099408950895089508950895089580E000
:10055000089580E0089580E090E0089581E0089596
:1005600080E00895CF93DF93CDB7DEB7DF91CF91D1
:100570000895FC0180859185FC01E60FF71F8081BD
:100580000895FC0182850895FC0180859185089578
:100590000F931F93CF93DF93EC018B01BA01E88196
:1005A000F9810684F785E02D422F099581E08B873C
:1005B000EF85F889309739F0BE01C801DF91CF91FE
:1005C0001F910F910994DF91CF911F910F91089581
:1005D000FC0187819085FC01E60FF71F808108955B
:1005E00080E00895FC0181850895FC018781908554
:1005F0000895FC0186810895FB0101900020E9F730
:100600003197AF01461B570BDC01ED91FC9106843D
:10061000F785E02D09940C942B270C942B270C9430
:100620002B272EE031E0FC013183208387819085E8
:10063000009711F00C942B270895CF93DF93EC01D2
:100640000E941103CE01DF91CF910C942B27EF92E2
:10065000FF920F93CF93DF93EA018B519F4F7C0161
:100660000F83402F50E0B901CE0108960E949728D1
:1006700081E08E8FE9A1FAA1309741F0BE01C70158
:10068000DF91CF910F91FF90EF900994DF91CF917F
:100690000F91FF90EF900895FA019C012B513F4F6D
:1006A000D901129656E001900D925A95E1F7FC019E
:1006B000E351FF4F0190F081E02D309711F0C90117
:1006C00009940895CF93DF93EC018E81481708F4C5
:1006D000842F8987482F50E08F8198850E94972822
:1006E0008D859E85009751F0DC01ED91FC91019084
:1006F000F081E02DBE01DF91CF91099481E0DF917F
:10070000CF910895CF93DF93FC01E151FF4F01900A
:10071000F081E02DEC01CB51DF4F309711F0CE018D
:100720000995229686E0FE0111928A95E9F7DF91FC
:10073000CF91089587E591E00C94FD1186E391E057
:100740000C94FD110F931F93CF93DF9300D0CDB77F
:10075000DEB787E091E00E94CC0D02E715E0F801DA
:10076000468150E067817085CE0101960E949728EE
:1007700049815A8160E070E02AE08CE594E00E94B3
:100780000D1269E872E08CE594E00E94E811F8012E
:10079000468150E067817085CE0101960E949728BE
:1007A00089819A8190930703809306030F900F909D
:1007B000DF91CF911F910F910895CF93DF9300D0D8
:1007C000CDB7DEB786E291E00E94CC0D4091540592
:1007D00050E06091550570915605CE0101960E943A
:1007E000972849815A81052E000C660B770B77FFFD
:1007F00005C0CB01BA010E94561205C02AE08CE563
:1008000094E00E940D1269E872E08CE594E00F908C
:100810000F90DF91CF910C94E811CF93DF93EC010F
:1008200088EF90E00E94CC0DCE0102960E94181134
:1008300089E394E0DF91CF910C94281CCF93DF9350
:10084000EC018CEE90E00E94CC0DCE0102960E944D
:10085000181189E394E0DF91CF910C94281C2F921A
:100860003F924F925F926F927F928F929F92AF9240
:10087000BF92CF92DF92EF92FF920F931F93CF938D
:10088000DF93CDB7DEB729970FB6F894DEBF0FBE62
:10089000CDBF6C014B01FC01718360831B82128A06
:1008A000FB0101900020E9F7CF01861B970B9C010B
:1008B000225031097901F7FCB0C0F60102890031FC
:1008C00008F0ABC0F401EE0DFF1D80818D3221F4E4
:1008D000FFEFEF1AFF0A9DC03197908199838A83B9
:1008E000202F30E039872887CE0101963C01530143
:1008F0009FEFA91AB90AF3011081812F90E00E949D
:100900006A24892B11F03501F2CF1D3259F45301BD
:10091000F2E0AF0EB11CF301118121E030E03D8324
:100920002C830AC01B3231F4530132E0A30EB11CF8
:10093000F30111811D821C82103349F4F50180817D
:100940008F7D883521F41181F2E0AF0EB11CBF829A
:10095000AE82A12CB12C212C312C2101612E712CC5
:1009600017FD3CC0C301C0970A9710F410530EC086
:10097000C3010E948228892B89F1C3010E947F282C
:10098000892B11F487E501C087E3181B812F90E0C4
:10099000409724F5B7FC19C021143104410420E12B
:1009A000520698F4D201C10124E0880F991FAA1FB2
:1009B000BB1F2A95D1F71C012D01210E311C411CB2
:1009C000511CAA24A394B12C03C0AA24AA94BA2C23
:1009D000EE81FF811191FF83EE83C0CFB7FC0DC084
:1009E0002C813D81232B69F05094409430942094C5
:1009F000211C311C411C511C04C022242A94322C7D
:100A00002101E885F985EC0DFD1D22820F5FF601BD
:100A1000028BF2E0EF1AF1084ECF29960FB6F89448
:100A2000DEBF0FBECDBFDF91CF911F910F91FF9021
:100A3000EF90DF90CF90BF90AF909F908F907F907E
:100A40006F905F904F903F902F9008950895DC0134
:100A500016968D919C911797DC01ED91FC91068083
:100A6000F781E02D0994CF93DF93EC018AE292E0C5
:100A7000998388838EE592E09B838A838AE692E05D
:100A80009D838C838E819F81DC01ED91FC9100849C
:100A9000F185E02D0995FE01EC58FF4F8081918191
:100AA000009711F00E942B27FE01EF58FF4F808125
:100AB0009181009711F00E942B27CE0187559F4FFF
:100AC0000E941103CE0180579F4F0E941103CE0157
:100AD00085589F4F0E941103CE010896DF91CF9158
:100AE0000C94A206CF93DF93EC010E943305CE0154
:100AF000DF91CF910C942B2708950895CF93DF9326
:100B000000D000D000D0CDB7DEB7BE016F5F7F4F01
:100B100026E0FB0111922A95E9F746E050E00296A3
:100B20000E948A2821E0892B09F420E0822F269652
:100B30000FB6F894DEBF0FBECDBFDF91CF91089501
:100B4000AF92BF92CF92DF92EF92FF920F931F93DB
:100B5000CF93DF935C017A0169018B01C0E0D0E0A3
:100B6000CC15DD0579F0F5018081918101968E0D1E
:100B70009F1D8C0F9D1F0E94A425F80181938F015A
:100B80002196EECFDF91CF911F910F91FF90EF90C3
:100B9000DF90CF90BF90AF900895AF92BF92CF9269
:100BA000DF92EF92FF920F931F93CF93DF937C011D
:100BB000D62FC72F5A01690161E0FC018081918124
:100BC0000E94AC250D2F1C2FC0E0D0E0CC15DD0518
:100BD00079F0F80161918F01F7018081918101968F
:100BE0008A0D9B1D8C0F9D1F0E94AC252196EECF78
:100BF000DF91CF911F910F91FF90EF90DF90CF90F9
:100C0000BF90AF9008951F920F920FB60F921124CC
:100C10002F933F934F935F936F937F938F939F9304
:100C2000AF93BF93EF93FF938091060390910703D7
:100C3000892B11F18091040390910503892B49F0D0
:100C400061E08AE00E94B21310920503109204033F
:100C500013C060E08AE00E94B21381E090E09093BC
:100C60000503809304038091060390910703019785
:100C70009093070380930603FF91EF91BF91AF918B
:100C80009F918F917F916F915F914F913F912F91A4
:100C90000F900FBE0F901F90189526E731E0FC01D2
:100CA000318320830C941103CF93DF93EC010E94D6
:100CB0004D06CE01DF91CF910C942B2728E331E034
:100CC000FC01318320830C944D06CF93DF93EC011C
:100CD0000E945E06CE01DF91CF910C942B2720E578
:100CE00031E0FC01318320830C945E06CF93DF93C7
:100CF000EC010E946F06CE01DF91CF910C942B275F
:100D00002EE831E0FC01318320830C944D06CF9313
:100D1000DF93EC010E948006CE01DF91CF910C940D
:100D20002B2726EA31E0FC01318320830C948006D6
:100D3000CF93DF93EC010E949106CE01DF91CF911A
:100D40000C942B2728EF31E0FC01318320830C9495
:100D50002918CF93DF93EC010E94A206CE01DF9108
:100D6000CF910C942B272F923F924F925F926F92CC
:100D70007F928F929F92AF92BF92CF92DF92EF922B
:100D8000FF920F931F93CF93DF93CDB7DEB7C85574
:100D9000D1090FB6F894DEBF0FBECDBF1C016FAFF7
:100DA0005EAF4DAF24962FAF249723961FAF0EAFA3
:100DB00023972996BFAEAEAE2997B82CFC01E35A13
:100DC000FF4F8FEF9FEF918380832696EFAE26979C
:100DD0002796FFAE27972796AEADBFAD279720E0A9
:100DE00030E0612C912C6C2D70E063967FAF6EAF7C
:100DF000639763968EAD9FAD63972817390704F507
:100E0000ED91FD918281938183309842B1F43097C6
:100E100011F0329702C0E0E0F0E08285882369F0AB
:100E2000939480FD639484FD639485FD639482FDB7
:100E3000639483FD639481FD63942F5F3F4FD9CF0B
:100E40006EE0969EC00111240E949326F101E15BA1
:100E5000FF4F9183808329968EAD9FAD29972F9662
:100E60009FAF8EAF2F976C0100E010E0712C512CDA
:100E7000412C812CAB2DB0E02B96BFAFAEAF2B97A2
:100E80002B96EEADFFAD2B970E171F07ACF5D601D5
:100E9000ED90FD906D01F701A280B38060817181BA
:100EA000CE0101960E942F048B89833008F0739441
:100EB000A114F8E2BF0611F483941BC023E0A2162C
:100EC00028E2B206B1F4E114F10419F0F701329707
:100ED00002C0E0E0F0E08681882359F0439484FD6D
:100EE000539485FD539482FD539483FD539481FD67
:100EF00053940F5F1F4FC4CF37E0439EC0011124AE
:100F00000E949326F101EA5AFF4F91838083F9975B
:100F1000A4E5B4E0C1018596119217821D928E1747
:100F20009F07D1F78101035F1F4F1093B203009316
:100F3000B103FFB6F89480910803811127C0E9E856
:100F4000F2E08491EDE9F2E09491E82FF0E0EE0F09
:100F5000FF1FEF59FD4FA591B491EC91E92321F4C6
:100F600061E08AE00E94B21361E08AE00E94E1132E
:100F70008CB580618CBD8CB580648CBD61E08DE0EA
:100F80000E94E11361E08BE00E94E113809108036D
:100F90008F5F80930803FFBE1092AF031092B003DF
:100FA00010922C0310922D0310924D0310924E03B9
:100FB00010926E0310926F0310928F0310929003A1
:100FC00010923704109238041092B4031092B503B3
:100FD0001092D5031092D6031092F6031092F703E5
:100FE000109217041092180462E0D1011E968C91A1
:100FF0000E94E11361E0F10185850E94E113D101B6
:1010000050968C918F3F19F060E00E94E1130E948E
:10101000AD1461E0F10185850E94B2136EE170E0CC
:1010200080E090E00E941D14D10150968C918F3F7A
:1010300081F464E670E080E090E00E941D1481E09D
:1010400080930A038EE080930B0389E093E00E9473
:10105000DC14F10181859285892B29F081E0828B56
:10106000E45AFF4F10827101FDE2EF0EF11CB7014F
:10107000C8010E948F0E882341F0D1019F968C9168
:10108000813851F0843899F707C061E070E080E062
:1010900090E00E941D14EBCF1982BFADBB2331F04D
:1010A000DD24D394EDADFEADEF2B09F4D12C2496C5
:1010B000FFAD2497FF2341F0CC24C39423962EAD9B
:1010C0003FAD2397232B09F4C12C2AE7E22E21E020
:1010D000F22E00E010E023966EAD7FAD23976E5F99
:1010E0007F4F21967FAF6EAF2197ADACBEAC72E063
:1010F000A70EB11C650CF7013196449150E04E5F8C
:101100005F4FB701CE0101960E9473240130110593
:1011100081F48B869C864D866E86D10119968D91C1
:101120009C911A97892B09F4F5C48A8582608A8775
:1011300058C00230110559F4DD2009F4EBC4888D44
:101140008064888F8C8D80648C8F78A24AC0033035
:10115000110591F4DD2019F08E8980648E8BCC20EE
:1011600009F4D8C48E8580648E878A8980648A8BCE
:101170008A8D80648A8F35C00430110551F4F101E5
:1011800081859285892B09F4C5C48E8181608E8307
:1011900028C00530110571F4DD2009F4BBC4ADADE4
:1011A000BEAD11968C9111978E834C914F8350E078
:1011B000B50113C006301105A1F4CC2009F4B7C461
:1011C0002396EEADFFAD239781818E8340814F83BF
:1011D00050E021966EAD7FAD2197CE0108960E941A
:1011E000972840E0BE016F5F7F4FC1010E94CE0F84
:1011F0000F5F1F4FF1E2EF0EF11C0730110509F0F0
:101200007ACF1EAA1DAA2D961FAE1EAE2D9722962E
:101210001FAE229711E066246394712C9E012F5F0C
:101220003F4F5901B101615B7F4F69967FAF6EAF50
:1012300069972D968EAD9FAD2D976396AEADBFADE0
:1012400063978A179B070CF07EC22796EEADFFAD21
:101250002797E190F1902796FFAFEEAF2797D70140
:1012600012968D909C9013976D917C91CE018296F1
:101270000E942F04DCA88114B8E29B06E1F48CE004
:101280008D0D8A8384E08E838F83D886D9867A8673
:101290006B86EFEF6E1A7E0A88E28C871D8681E0EE
:1012A0008E874D2D50E0BE016C5D7F4FCE010F96B5
:1012B0000E949728B6C1F3E08F16F8E29F0609F066
:1012C000BAC1E114F10429F0270122E0421A5108C1
:1012D00002C0412C512CD2011A96BC91BDAFF20133
:1012E000E280F3806996AEADBFAD69978D919C9118
:1012F0004C012296EFAD2297BEE0EB9F800C911C33
:1013000011248EE0D4011D928A95E9F7F4015182EF
:101310004082FDADFF2369F122962FAD22972F5F0A
:1013200022962FAF2297F0FF04C0D40116961C938B
:101330001F5FBDADB4FF03C0F40117831F5FFDAD98
:10134000F5FF04C0D40118961C931F5FBDADB2FF1A
:1013500003C0F40111871F5FFDADF3FF04C0D4018A
:101360001A961C931F5FBDADB1FF03C0F401138734
:101370001F5F8FE08D0D8A8384E0C82ECE82CF82DE
:1013800083E08D0D888789877A866B8688E28C87D3
:1013900083E08D8781E08E878DAD8E7F8F87C3013F
:1013A0000196888B998BD40113969C938E931297F8
:1013B000F30132962596FFAFEEAF25974D2D50E005
:1013C000BE016C5D7F4FCE0142960E94972800E0DF
:1013D0009E012B5C3F4F42E0B501C1010E944110CC
:1013E000FCE0FA83CE821F82D201ED91FC9104844D
:1013F000F585E02DC2010995882319F08E81826060
:101400008E83BDADB1FF03C08F8184608F83F101F6
:1014100081859285892BC1F065EB72E0C7010E943E
:10142000A728892B89F06AEB72E0C7010E94A728E0
:10143000892B51F06FEB72E0C7010E94A728892B1E
:1014400019F08F8188608F838DAD8C7031F08E8123
:1014500080648E838F8180618F83FDADF4FF03C034
:101460008E8180618E832DAD25FF03C08E818062C9
:101470008E83D201ED91FC910480F581E02DC201B3
:101480000995E82ED201ED91FC910084F185E02DC3
:10149000C2010995F82EE886D201ED91FC910484F1
:1014A000F585E02DC2010995882319F088858F5FA5
:1014B0008887F986F40183818A8782818B87F2E0AD
:1014C000DF1205C08DA18C878CA18D8702C01C8680
:1014D0001D8681E08E8700E09E012B5C3F4F42E03D
:1014E000B501C1010E944110C12CD12C2E2D30E03C
:1014F00061963FAF2EAF61976F2D70E067967FAF1B
:101500006EAF679761968EAD9FAD6197C816D9068D
:101510000CF05EC07C01EC18FD089DE1E916F104B9
:101520001CF00CE1E02EF12C83E08E0D8A83A701E4
:1015300060E070E0CE0106960E94A02867968EAD0E
:101540009FAD67978C199D09E816F9060CF4C70141
:10155000181619068CF52196BFAEAEAE2197D601AE
:10156000AA19BB096596BFAFAEAF659721968EAD40
:101570009FAD21978A199B098E159F05ECF46596FE
:101580006EAD7FAD65972196EEADFFAD21976E0FE5
:101590007F1FD201ED91FC910284F385E02DC20101
:1015A00009952196EEADFFAD219785833196219661
:1015B000FFAFEEAF2197DACF00E09E012B5C3F4FEB
:1015C00042E0B501C1010E944110CE0CDF1C9ACF50
:1015D0008DAD807309F4A8C08EE08A8386E48E8383
:1015E00084E18F8383E0888782E089872596FFAD39
:1015F0002597FA8724962FAD24972B872596EEAD55
:10160000FFAD2597D4011596FC93EE931497F3E064
:101610006F0E711C99E29C878D8781E08E871F86F3
:10162000188A00E09E012B5C3F4F42E0B501C101EA
:101630000E9441107DC0811429E2920609F078C011
:10164000E114F10421F032E0E31AF10802C0E12CC8
:10165000F12C4CE04A8384E08E838F83D701ED9197
:10166000FC910680F781E02DC7010995882E8887B7
:1016700089877A866B86BFEF6B1A7B0A8DA18C8770
:101680008CA18D8781E08E8700E09E012B5C3F4F0F
:1016900042E0B501C1010E944110C12CD12CE82DBE
:1016A000F0E0FEAFEDAF2DAD3EADC216D3060CF0AF
:1016B0003FC049018C189D083DE1831691041CF040
:1016C000BCE18B2E912C83E0880D8A832501B60125
:1016D0006A197B0921967FAF6EAF2197C2018A19E3
:1016E0009B0988159905A4F421966EAD7FAD2197CD
:1016F000640D751DD701ED91FC910084F185E02DFD
:10170000C7010995F2018583FFEF4F1A5F0AE6CF03
:1017100000E09E012B5C3F4F42E0B501C1010E94F9
:101720004110C80CD91CBFCF25966EAC7FAC259755
:101730002D962EAD3FAD2D972F5F3F4F2D963FAF8E
:101740002EAF2D9776CDF101EF5AFF4F22963FAD88
:101750002297308384E08A831E8200E09E012B5C06
:101760003F4F42E0BE016F5F7F4FC1010E944110B9
:1017700018AE1FAA2996AEACBFAC2997CC24C3944F
:10178000D12CE2E09E2EE12C210146E5440E511CB5
:10179000F7E0FF2EA8E08A2EC60101972B966EADCA
:1017A0007FAD2B97861797070CF08BC0D5016D90F6
:1017B0007D905D01F30160817181CE0182960E946E
:1017C0002F04D30112968D919C9113978115984205
:1017D00009F073C09CA98FEF810F8987A60196013C
:1017E000220F331F2996EEADFFAD29972E0F3F1F15
:1017F0007E2C872D8E192B966EAD7FAD2B974617BD
:101800005707F4F5F901A191B1919F0112966D91DD
:101810007C9113976330784299F5109721F0BD01C0
:101820006250710902C060E070E0F201A081B181F4
:10183000FD0187E0789EE00DF11D1124DF018F2D61
:101840001D928A95E9F7DB0116968C91718360836E
:1018500082FF02C012831F5F83FF02C013831F5FDA
:1018600081FF02C016831F5F84FF02C014831F5FC5
:1018700085FF02C015831F5F73944F5F5F4FB9CF21
:101880008A82923039F49DA19E839CA19F83B1E00E
:10189000B88706C099A99E8398A99F839886939438
:1018A0008A8700E09E01295C3F4F43E0BE016F5FE5
:1018B0007F4FC1010E944110E72CEFEFCE1ADE0AE4
:1018C0006BCFF101E85AFF4FE0821AAE19AEA12C9E
:1018D000B12C612C712C2296FFAD2297CF2ED12CEA
:1018E00021012FE4420E511C2DE0F22E11E034E0D4
:1018F000832E6C147D0484F0C12CD12CA12CB12C2E
:10190000F12C310136E5630E711C8DE0582E442414
:10191000439494E0892E8FC0D201ED91FC91EA0DA1
:10192000FB1DA081B1812281338184819581FA825E
:101930001E821F82188719861A868B863C872D8700
:101940009E878F871A968C9180FD1A8784FF03C02B
:101950009A8592609A8785FF03C09A8594609A87DA
:1019600082FF03C09A8598609A8783FF03C09A8597
:1019700090619A8781FF03C08A8580688A8700E02A
:101980009E01275C3F4F44E0BE016F5F7F4FC10166
:101990000E944110BFEF6B1A7B0AEEE0AE0EB11C45
:1019A000A8CFD301ED91FC91EC0DFD1D00811181BB
:1019B000F80162817381CE0182960E942F048CA966
:1019C0005A828230E9F58DA18E838CA18F8348865F
:1019D00019861A868B861C861D861E861F86D80150
:1019E00016968C9181FF02C0B0E4BA8782FF03C0D3
:1019F0009A8592609A8783FF03C09A8594609A873C
:101A000084FF03C09A8598609A8785FF03C08A8502
:101A100080618A8700E09E01275C3F4F44E0BE0161
:101A20006F5F7F4FC1010E944110EFEFAE1ABE0AF7
:101A3000F7E0CF0ED11CAE14BF040CF4B2CF07C038
:101A400089A98E8388A98F8398869394C1CF1CAE71
:101A50001BAEE12CF12C2B962EAD3FAD2B97E21651
:101A6000F3066CF52F96AEADBFAD2F97ED91FD91BE
:101A70002F96BFAFAEAF2F9760817181CE01829656
:101A80000E942F044CA983E0840F8A8350E0BE019A
:101A90006C5D7F4FCE0106960E9497281A8A1B8A9A
:101AA00000E09E01255C3F4F45E0BE016F5F7F4F28
:101AB000C1010E944110BFEFEB1AFB0ACCCF1BA261
:101AC0001AA286E08A8383E08E8301E09E012E5D68
:101AD0003F4F4FE0BE016F5F7F4FC1010E94411039
:101AE000C85ADF4F0FB6F894DEBF0FBECDBFDF91EF
:101AF000CF911F910F91FF90EF90DF90CF90BF900B
:101B0000AF909F908F907F906F905F904F903F909D
:101B10002F90089540E0BE016F5F7F4FC1010E948A
:101B2000CE0F0F5F1F4FE1E2EE0EF11CE4CA40E062
:101B3000BE016F5F7F4FC1010E94CE0F62CB08953F
:101B4000CF92DF92EF92FF920F931F93CF93DF9389
:101B50006C017A018B01C0E0D0E0CE15DF0581F089
:101B6000D8016D918D01D601ED91FC910190F0812C
:101B7000E02DC6010995892B11F02196EECF7E014B
:101B8000C701DF91CF911F910F91FF90EF90DF90F0
:101B9000CF9008950E947A280F931F93CF93DF93DD
:101BA0008C01C0E0D0E0F801EC0FFD1F64916623CA
:101BB00041F08CE594E00E949901892B11F0219667
:101BC000F2CFCE01DF91CF911F910F910895ECE5F7
:101BD000F4E0A089B18982E08C93A485B5851C923C
:101BE000A685B7858FEC8C93108EA489B58986E085
:101BF0008C93A289B3898C9180618C93A289B389DB
:101C00008C9188608C93A289B3898C9180688C9325
:101C10000288F389E02D80818F7D80830895CF93A2
:101C2000DF93EC018091FF0590910006892B59F418
:101C30008091410590E0880F991F0E949326909310
:101C400000068093FF05809101062091FF05909189
:101C50000006E22FF92FE80FF11DE80FF11DD183E7
:101C6000C083809101068F5F80930106DF91CF9141
:101C700008958091420590E0880F991F0E94932655
:101C8000FC019093FD058093FC0582E096E0918332
:101C9000808388E096E0938382838DE196E095834C
:101CA000848380E396E09783868386E396E091873A
:101CB000808785E08093FE050895CF93DF93EC0144
:101CC0008091FC059091FD05892B11F40E94390E3D
:101CD0008091FE052091FC059091FD05E22FF92FE2
:101CE000E80FF11DE80FF11DD183C0838091FE053F
:101CF0008F5F8093FE05DF91CF910895262F269563
:101D000026952695820F911DFC01808990E06770D1
:101D100002C0959587956A95E2F781700895EF92D4
:101D2000FF920F931F93CF93DF93CDB7DEB7C254CB
:101D3000D1090FB6F894DEBF0FBECDBF8C017B0179
:101D40002091380430E08091370490E00496281701
:101D5000390709F48CC0E091B103F091B20381819D
:101D60000E9489132091AF033091B003019719F4B9
:101D700023137BC07CC0231382C01BA20E94D014FB
:101D80008BA18EBD00000DB407FEFDCF8EB58983FB
:101D90008CA18EBD00000DB407FEFDCF8EB58A83E9
:101DA0009BA1992349F0292F30E0482F50E042179A
:101DB000530714F48FEF890F803208F08FE1DE01B2
:101DC00013969E012E5D3F4FF9019E2F921B98178F
:101DD00050F493819EBD00000DB407FEFDCF9EB56B
:101DE0009D933196F2CFE091B103F091B20361E09F
:101DF00080810E94B2132091380430E08091370432
:101E000090E004962817390739F09091AF0380913C
:101E1000B00398130E94D0144A81442341F1809169
:101E20003804682F70E02091370430E02C5F3F4F7A
:101E300062177307C9F0837021E2829FC0011124E9
:101E4000FC01ED54FC4F108250E04F5F5F4FBE012C
:101E50006E5F7F4F8C549C4F0E949728809138046E
:101E60008F5F8093380403C0FFCF0E94D014E091AD
:101E70003704809138048E1314C080E081C0E22FB3
:101E8000E37081E28E9FF0011124E55DFC4FDE01DD
:101E9000929601900D928A95E1F72F5F2093AF0300
:101EA0006DCFE37081E28E9FF0011124ED54FC4F61
:101EB000D70101900D928A95E1F7809137048F5FE9
:101EC000809337042091380430E090E0049628177E
:101ED000390739F09091AF038091B00398130E94B5
:101EE000D014F7018281863871F4F8017096C80128
:101EF000489611921782E817F907D9F7F80110A24E
:101F00008781818714C08738A0F0883839F5F701B8
:101F10003396D80150962BE0E20EF11C81918D93FF
:101F2000878117968C931797EE15FF05B9F781E017
:101F300027C08538E1F7F70182859385F8019387FB
:101F40008287F70184859585F80195878487F70155
:101F500086859785F80197878687E9CF893839F78D
:101F6000F70183819481F80193878287F701858146
:101F70009681F80195878487F70187819085EACF5C
:101F8000CE5BDF4F0FB6F894DEBF0FBECDBFDF9143
:101F9000CF911F910F91FF90EF900895EF92FF92D4
:101FA0000F931F93CF93DF93EC01CB01FB01A18132
:101FB000EA2EF12C411103C0A1E0B0E002C0AFEF66
:101FC000BFEF8E01035A1F4FF80120813181BC0100
:101FD0006F5F7F4FAE0DBF1DA60FB71FA617B707C8
:101FE00009F1322723273227FB015191BF01252711
:101FF000F901FF2754E0F595E7955A95E1F72E276B
:102000003F27F901FE2FEE27F295F07F2E273F277D
:10201000F901FF2755E0EE0FFF1F5A95E1F72E2734
:102020003F27DCCFF80131832083442331F0FC01CA
:102030003683F8012081FC0127830E94DC148E0185
:10204000035D1F4F7E01FDE0EF0EF11CB801C701DB
:102050000E948F0E882371F08FA58438B9F789A963
:102060008150823098F7DF91CF911F910F91FF90AF
:10207000EF90089561E070E080E090E00E941D1410
:10208000E5CFEF92FF920F93CF93DF93EB01542FA5
:102090007901402F26E02A83F70121812F70529584
:1020A000507F522B5B8320812C830E94CE0F89812D
:1020B00090E00397F70120813181820F931F918374
:1020C0008083DF91CF910F91FF90EF900895EF9271
:1020D000FF920F931F93CF93DF93CDB7DEB7659732
:1020E0000FB6F894DEBF0FBECDBF082F142FE42E1D
:1020F000F12CA701CE0102960E949728E9E0F3E0B7
:102100001E5F11838DE082830383A701BE016E5F92
:102110007F4F8DE093E00E94972889E093E06596D9
:102120000FB6F894DEBF0FBECDBFDF91CF911F91E8
:102130000F91FF90EF900C94DC140F931F93CF93AB
:10214000DF93FC01E85AFF4F408150E0A0E0B0E08F
:1021500020E030E08C010A5A1F4F241735077CF429
:10216000F801808191818A0F9B1F1796FC01C08125
:10217000D181C617D70729F02F5F3F4FEECF80E000
:1021800090E0DF91CF911F910F9108950F931F93CE
:10219000CF93DF93EC0188819981009729F02A8100
:1021A0003B812617370788F48B016F5F7F4F0E94B2
:1021B000B427009761F0998388831B830A832C815D
:1021C0003D81232B11F4FC01108281E001C080E0ED
:1021D000DF91CF911F910F910895EF92FF920F938E
:1021E0001F93CF93DF93EC017B018A01BA010E9418
:1021F000C6102881398181110DC02115310519F0D2
:10220000C9010E942B27198218821D821C821B8201
:102210001A8206C01D830C83B701C9010E94B02831
:10222000CE01DF91CF911F910F91FF90EF90089514
:10223000CF92DF92EF92FF920F931F93CF93DF9392
:10224000CDB7DEB76B970FB6F894DEBF0FBECDBF2C
:102250008C011F8A1E8A198E188E1B8E1A8E40E0E2
:1022600050E06BE872E0CE0146960E94ED10198AAC
:10227000188A1B8A1A8A1D8A1C8A40E050E06BE883
:1022800072E0CE0140960E94ED100A5F1F4F85E07C
:10229000E82EF12CCE0101966C01F80182918F019C
:1022A000803140F441E050E069EC72E0CE014696A6
:1022B0000E943B1CF80180811B861A861D861C86A5
:1022C0001F861E8640E1B60190E00E947C24F60144
:1022D00001900020E9F73197AF014C195D09B60173
:1022E000CE010A960E94ED1088899989009741F0E5
:1022F0006A857B856115710509F05BC00E942B27FB
:102300008A859B85998B888B8C859D859B8B8A8BF9
:102310008E859F859D8B8C8B1B861A868A859B85D7
:102320000E942B274C895D8968897989CE01469660
:102330000E943B1CE114F10441F041E050E064ECE8
:1023400072E0CE0146960E943B1CF1E0EF1AF108C4
:1023500008F0A3CF0A8D1B8D0115110519F41092F9
:10236000390410C00131110510F001E110E06E894F
:102370007F89A80189E394E00E94B728F801E75C0F
:10238000FB4F1082888999890E942B278E899F890B
:102390000E942B276B960FB6F894DEBF0FBECDBF01
:1023A000DF91CF911F910F91FF90EF90DF90CF9031
:1023B00008954A895B892E853F854217530708F4A3
:1023C0009DCF0E94B0288E859F859D8B8C8BA6CF3C
:1023D0006115710579F0FB0101900020E9F7319753
:1023E000AF01461B570BDC01ED91FC910280F3819C
:1023F000E02D099480E090E00895CF93DF930E9450
:10240000CC0DEC0169E872E08CE594E00E94E811E3
:102410008C0F9D1FDF91CF9108958F929F92AF9265
:10242000BF92EF92FF920F931F93CF93DF93CDB79D
:10243000DEB7A1970FB6F894DEBF0FBECDBF7C010B
:10244000FA01CB0119A2223008F42AE08E010F5DB7
:102450001F4F822E912CA12CB12CBF01A5019401FC
:102460000E94BA25F901CA01015011096A3014F419
:10247000605D01C0695CD8016C93232B242B252B54
:1024800061F7B801C7010E94E811A1960FB6F89450
:10249000DEBF0FBECDBFDF91CF911F910F91FF9097
:1024A000EF90BF90AF909F908F900895CF92DF9262
:1024B000EF92FF92CF93DF936B017C016DE28CE58D
:1024C00094E00E949901EC0144275527BA014C1968
:1024D0005D096E097F092AE08CE594E00E940D12E7
:1024E0008C0F9D1FDF91CF91FF90EF90DF90CF90E9
:1024F0000895FC01918D828D981761F0828DDF0126
:10250000A80FB11D5D968C91928D9F5F9F73928FE6
:1025100090E008958FEF9FEF0895FC01918D828DDB
:10252000981731F0828DE80FF11D858D90E00895A8
:102530008FEF9FEF0895FC01918D228D892F90E000
:10254000805C9F4F821B91098F739927089580E0CB
:1025500090E0892B29F00E948F0181110C940000DA
:102560000895833081F028F4813099F08230A1F011
:1025700008958730A9F08830B9F08430D1F4809183
:1025800080008F7D03C0809180008F7780938000D2
:10259000089584B58F7702C084B58F7D84BD08957A
:1025A0008091B0008F7703C08091B0008F7D8093C1
:1025B000B00008953FB7F894809150049091510471
:1025C000A0915204B091530426B5A89B05C02F3F9B
:1025D00019F00196A11DB11D3FBFBA2FA92F982F49
:1025E0008827820F911DA11DB11DBC01CD0142E0C4
:1025F000660F771F881F991F4A95D1F70895DC0150
:10260000ED91FC9100A0F1A1E02D099421E0FC01E5
:102610008589811101C020E0822F08950F931F93B7
:10262000CF93DF93EC018B010E949D10FC01892B5D
:10263000D9F08081918108171907B1F42481211103
:1026400003C02581222381F0822F86958695869569
:10265000C80FD11D8DA190E0277002C09595879578
:102660002A95E2F7817001C080E0DF91CF911F9140
:102670000F910895CF93DF93EC010E949D10009776
:1026800069F0FC016381611103C06281662331F04E
:10269000CE010D96DF91CF910C947E0E80E0DF91FC
:1026A000CF910895CF93DF93EC010E949D10009786
:1026B00051F0FC016681662331F0CE010D96DF9169
:1026C000CF910C947E0E80E0DF91CF910895FC01B4
:1026D000848DDF01A80FB11DA35ABF4F2C91848DAB
:1026E00090E001968F739927848FA689B7892C93E0
:1026F000A089B1898C91837080648C93938D848D33
:10270000981306C00288F389E02D80818F7D808335
:102710000895CF93DF93282F30E0F901E257FF4F60
:102720008491F901ED56FD4FD491F901E158FD4F27
:10273000C491CC2391F081110E94B112EC2FF0E0F2
:10274000EE0FFF1FEB58FD4FA591B491EC91ED23D7
:1027500081E090E021F480E002C080E090E0DF9131
:10276000CF9108951F93CF93DF93282F30E0F90185
:10277000E257FF4F8491F901ED56FD4FD491F901D5
:10278000E158FD4FC491CC23C1F0162F81110E9456
:10279000B112EC2FF0E0EE0FFF1FE559FD4FA591B0
:1027A000B4919FB7F894111104C08C91D095D8239F
:1027B00002C0EC91DE2BDC939FBFDF91CF911F9184
:1027C0000895CF93DF9390E0FC01ED56FD4F2491E7
:1027D000FC01E158FD4F8491882361F190E0880F5E
:1027E000991FFC01EF59FD4FC591D491FC01E559AA
:1027F000FD4FA591B491611109C09FB7F8948881EC
:10280000209582238883EC912E230BC0623061F4E3
:102810009FB7F8948881322F309583238883EC9179
:102820002E2B2C939FBF06C08FB7F894E8812E2BD8
:1028300028838FBFDF91CF9108958F929F92AF929F
:10284000BF92CF92DF92EF92FF926B017C010E94C8
:10285000DA124B015C01C114D104E104F104F1F07E
:102860000E94DA12DC01CB0188199909AA09BB0977
:10287000883E9340A105B10570F321E0C21AD1084A
:10288000E108F10888EE880E83E0981EA11CB11CB7
:10289000C114D104E104F10419F7DDCFFF90EF90EA
:1028A000DF90CF90BF90AF909F908F9008952FB7FB
:1028B000F89460914C0470914D0480914E04909175
:1028C0004F042FBF08951F920F920FB60F9211243D
:1028D0002F933F938F939F93AF93BF9380914C041B
:1028E00090914D04A0914E04B0914F0430914B044F
:1028F00023E0230F2D3720F40196A11DB11D05C043
:1029000026E8230F0296A11DB11D20934B0480934E
:102910004C0490934D04A0934E04B0934F048091C7
:10292000500490915104A0915204B0915304019627
:10293000A11DB11D8093500490935104A0935204A3
:10294000B0935304BF91AF919F918F913F912F917D
:102950000F900FBE0F901F901895E091B103F0916A
:10296000B20382818F3FD9F061E00E94E113E091D0
:10297000B103F091B20361E082810E94B213E09151
:10298000B103F091B20360E082810E94B213E09142
:10299000B103F091B20361E082810C94B213089507
:1029A00081E78CBD81E08DBDE091B103F091B20370
:1029B00060E080810C94B213FC014181403288F5C3
:1029C0009091B003692F70E02091AF0330E02C5F4D
:1029D0003F4F6217730729F1BF01937021E2929F65
:1029E000C0011124FC01E55DFC4F108250E04F5FF7
:1029F0005F4F6F5F7F4F845D9C4F0E94972880914F
:102A0000B0038F5F8093B0032091380430E0809151
:102A1000370490E004962817390729F00E94D01453
:102A200002C080E0089581E00895EF92FF920F9335
:102A30001F93CF93DF93CDB7DEB765970FB6F894AA
:102A4000DEBF0FBECDBF453148F5142F082FE42E51
:102A5000F12CA701CE0102960E9497281E5F1093C9
:102A60000A0385E180930B0300930C03A701BE01C9
:102A70006E5F7F4F8DE093E00E94972889E093E09E
:102A800065960FB6F894DEBF0FBECDBFDF91CF9134
:102A90001F910F91FF90EF900C94DC1480E06596ED
:102AA0000FB6F894DEBF0FBECDBFDF91CF911F915F
:102AB0000F91FF90EF900895EF92FF920F931F9365
:102AC000CF93DF938C017A01D22F0E949D10009743
:102AD000C9F0FC01C381C11103C0C281CC2391F0B4
:102AE0006C2FC8010D960E947E0E882359F04D2F41
:102AF000B7018C2FDF91CF911F910F91FF90EF9035
:102B00000C94151580E0DF91CF911F910F91FF90EC
:102B1000EF900895E9E0F3E081E081838BE0828328
:102B2000CF010C94DC14E9E0F3E081E081838CE0D8
:102B30008283CF010C94DC14E9E0F3E081E081832F
:102B40008AE08283CF010C94DC14CF93DF93EC01F5
:102B500082E080930A0381E180930B0381E08093FC
:102B60000C0389E093E00E94DC14882341F0FE010D
:102B70007D96A59611921782EC17FD07D9F7DF9184
:102B8000CF910895CF93DF93FC018281938124E05C
:102B9000880F991F2A95E1F76AE070E00E94542699
:102BA0008085882369F0EB010184F285E02D309760
:102BB000E1F0808191810E94A4258130B1F020C094
:102BC000CB01805A910981369F4378F585E0809347
:102BD0000A038CE180930B0310920C0310920D03F7
:102BE00060930E0370930F031AC085E080930A036D
:102BF0008FE080930B0310920D0310920C030BC017
:102C000085E080930A0380E180930B0310920D030B
:102C100084EB80930C03D0930F03C0930E0389E0E1
:102C200093E0DF91CF910C94DC14DF91CF91089564
:102C30006F3E8FEF78074CF0653F8FEF78073CF0E1
:102C40006B3F7F4F34F083E005C080E003C081E03C
:102C500001C082E092E090930A0392E190930B030B
:102C600080930C0389E093E00C94DC140E949D1087
:102C7000FC01892B91F09481911103C095819923D6
:102C800061F082E080930A038FE180930B039093BD
:102C90000C0389E093E00C94DC1480E00895CF935A
:102CA000DF93EC010E949D10FC01892B29F1948196
:102CB000911103C095819923F9F0892F8695869506
:102CC0008695C80FD11D2DA130E0892F877002C0D5
:102CD000359527958A95E2F720FF0EC082E0809314
:102CE0000A0384E180930B0390930C0389E093E043
:102CF000DF91CF910C94DC1480E0DF91CF910895A7
:102D00000F931F93CF938C010E949D100097D1F0D9
:102D1000FC01C681CC23B1F06C2FC8010D960E9436
:102D20007E0E882379F082E080930A0387E1809306
:102D30000B03C0930C0389E093E0CF911F910F9197
:102D40000C94DC1480E0CF911F910F910895BF92F5
:102D5000CF92DF92EF92FF920F931F93CF93DF9367
:102D6000CDB7DEB728970FB6F894DEBF0FBECDBF44
:102D7000FC017B018F5A9F4FDC012C9130E040E039
:102D800050E080E090E0BF01615B7F4F82179307C6
:102D90000CF074C0DB01CD90DC90C40ED51E425FF8
:102DA0005F4FD6010D911C91E016F10611F00196CE
:102DB000EDCFC114D10409F461C0D60116960C916F
:102DC000002309F45BC021E030E040E050E060E027
:102DD00070E080E090E00E946E2629833A834B8366
:102DE0005C836D837E838F839887CE01019624E573
:102DF00034E0AE01475F5F4FDC016D91CD01D90139
:102E00006D939D0184179507B9F787017F0189E0CC
:102E100080930A038BE180930B0388E0E4E5F4E000
:102E2000ACE0B3E001900D928A95E1F789E093E080
:102E30000E94DC14882311F1D801ED91FC910084EB
:102E4000F185E02DC8010995B82ED801ED91FC91CE
:102E50000680F781E02DC80109954B2DBC01F601D4
:102E600086810E946710882349F0D60116968C91BE
:102E7000F701EE5AFF4F808381E001C080E0289681
:102E80000FB6F894DEBF0FBECDBFDF91CF911F917B
:102E90000F91FF90EF90DF90CF90BF900895CF9269
:102EA000DF92EF92FF920F931F93CF93DF93FC017A
:102EB000EF5AFF4FE081EE2EF12C40E050E020E091
:102EC00030E0DC01A15BBF4F2E153F050CF0B3C015
:102ED0000D911C911197040F151F425F5F4FF80170
:102EE000C081D1816C177D0719F02F5F3F4FECCF68
:102EF0000115110509F49FC0EB016C01868188233F
:102F0000E9F0F601EE5AFF4F9081891317C0E8816E
:102F1000F9810084F185E02DCB010995F82EE88137
:102F2000F9810680F781E02DCE0109954F2DBC0176
:102F3000F80186810E946710F82E02C0FF24F394E6
:102F4000D8011B968C918823B1F0E881F981008427
:102F5000F185E02DCE010995E82EE881F981068002
:102F6000F781E02DCE0109954E2DBC01F801838536
:102F70000E946710F822D80117968C911797882322
:102F800061F11C968C91882341F1D601ED91FC9161
:102F90000488F589E02DBE01C60109958823E1F07A
:102FA000F60185898150858BE881F9810084F1855E
:102FB000E02DCE010995E82EE881F9810680F781A0
:102FC000E02DCE0109954E2DBC01D80117968C91AC
:102FD0000E941515F82201C0F12CF8018085882384
:102FE00071F18585882359F1D601ED91FC91068810
:102FF000F789E02DBE01C60109958823F9F0F60195
:1030000085898150858BE881F9810084F185E02DE7
:10301000CE010995D82EE881F9810680F781E02D4F
:10302000CE0109954D2DBC01D80118968C910E94B6
:103030001515F82204C0FF24F39401C0F12C8F2D44
:10304000DF91CF911F910F91FF90EF90DF90CF9084
:103050000895CF93DF93EC010E94AD14FE01E15B74
:10306000FF4F80819181009711F00E942B27FE0174
:10307000EA5AFF4F80819181009711F00E942B271F
:10308000FE01EF5AFF4F1082C85ADF4F1882DF91BE
:10309000CF9108953F924F925F926F927F928F925D
:1030A0009F92AF92BF92CF92DF92EF92FF920F93D7
:1030B0001F93CF93DF93CDB7DEB76B970FB6F8941E
:1030C000DEBF0FBECDBF7C014C018DE0880E911C90
:1030D000B701635D7F4FC4010E948F0E882309F4FE
:1030E0009FC3D7019F96EC918E2F90E0FC01E15891
:1030F000F109ED30F10508F093C3EC5CFF4F0C943F
:10310000682600E010E0C12CD12C5701B1E5AB0ED0
:10311000B11C4701EFE48E0E911C5FC2D701D2961D
:103120008C91D29753968C935397D0968C91D0973D
:10313000833009F075C3D1968C91882339F064E10E
:1031400070E080E090E00E941D146AC3F701A18442
:10315000B284A114B10409F44DC3D5018D919C91A1
:103160000E94A425813009F045C36701BBE5CB0E61
:10317000D11CF60180838701075A1F4FD8011D9289
:103180001C9221E030E040E050E0BE01655E7F4FE0
:10319000C5010E94A005F801408151814F5F5F4F3A
:1031A000518340832B8D30E0BE016F5F7F4FD7018D
:1031B00019968D919C911A970E94A0058B8D482F8E
:1031C00050E0F80120813181240F351F31832083A5
:1031D000D6019C918E5F80930A0388E080930B0355
:1031E000FBC2F70181A9833008F01AC310A91A3075
:1031F00009F49CC030F4173059F0183009F44CC071
:103200000FC31B3009F4A4C01C3009F4BDC008C3AF
:1032100082A98701075A1F4F813019F4F8011182E2
:103220001082D7019E968C919E9784508983F801D5
:103230004081518121E030E0BE016F5F7F4F1996E0
:103240008D919C911A970E94CD05D8014D915C916A
:1032500011974F5F5F4F4D935C93298130E0B70129
:103260006D5C7F4FF701818592850E94CD05298194
:10327000D8018D919C911197820F911D8D939C93F4
:10328000F70181A9813021F480930A0387E0A1C26C
:10329000823009F0C5C2AEC28130F1F55701BBE5FD
:1032A000AB0EB11CF50180818F5F80836701F9E56A
:1032B000CF0ED11CD6014D915C9121E030E0BE01D2
:1032C000655E7F4FF701818592850E94A005D6013A
:1032D0004D915C9111974F5F5F4F4D935C932B8D98
:1032E00030E0BE016F5F7F4FF701818592850E94BC
:1032F000A0058B8D482F50E0D6012D913C91119760
:10330000240F351F2D933C93F50190818E5F8093A0
:103310000A0310930B0360C2823009F081C264E19A
:1033200070E080E090E00E941D1464C2F701838584
:103330009485009709F474C2A7014E5C5F4FDC01CD
:10334000ED91FC910684F785E02DB701099568C2DF
:10335000F701038514850115110509F461C262A9FD
:1033600073A980E090E00E94A9242DEC3FEA46E694
:103370005BE30E94E6249B01AC01D801ED91FC9136
:103380000288F389E02D1DC0F7010385148501151E
:10339000110509F445C262A973A9072E000C880B18
:1033A000990B0E94AB2420E030E040E85EE30E94ED
:1033B000E6249B01AC01D801ED91FC910088F189D4
:1033C000E02DB701C80109952BC2F701ED5AFF4F57
:1033D00010823196108231961082F7018385948590
:1033E000009759F0DC01ED91FC910190F081E02D06
:1033F000A7014F5C5F4FB7010995F7018389D1C1E0
:10340000D701D8964C90D897D9965C90D997DA96F0
:103410006C90DA97DB967C90DB97DC96AC90DC972F
:10342000DD96BC90DD97DE96CC90DE97DF96DC9043
:10343000DF9714960D911C91159706301105D0F168
:103440001696ED91FC911797E138BCE0FB0790F5DB
:10345000D701D0962C91237030E040E050E060E03E
:1034600070E080E090E0A0E00E94872619F1D7018B
:10347000AD5ABF4F8C9181111DC081E08C9399E0B2
:1034800090930A0393E190930B0310930D03009321
:103490000C03F0930F03E0930E03109211031092AC
:1034A00010038093130380E98093120389E093E073
:1034B0000E94DC14F701858D8170382E9201A301E2
:1034C000B501C601A0E00E94872631F4311004C086
:1034D00081E0EC5AFF4F8083C12CD12CA12CB12C60
:1034E0002701F1E54F0E511C37018FE4680E711C66
:1034F000D2018C9190E0A816B9060CF03FC0F30100
:10350000008111810C0D1D1DD80117966C91662349
:1035100029F0C4010E947E0EF8018487D801189614
:103520006C91662329F0C4010E947E0EF801858704
:10353000D8011C968C911C97811103C01D962C916B
:1035400001C021E0F80140815181DA011C968C9183
:10355000281769F0F70183859485009741F0DC0115
:10356000ED91FC910284F385E02DB7010995BFEF41
:10357000AB1ABB0AEEE0CE0ED11CBACFF701EC5A63
:10358000FF4F8081882309F44BC1332009F448C1DF
:1035900031968081811144C1D7011B968D919C91F8
:1035A0001C97009709F43CC121E02083DC01ED91D8
:1035B000FC910680F781E02D6AC0D401ED91FC9169
:1035C000E00FF11F40815181FA01848581110CC007
:1035D000BFEFCB1ADB0A025F1F4FF501808190E03D
:1035E000C816D90654F311C0D7011B968D919C9132
:1035F0001C97009769F3DC01ED91FC910284F3853F
:10360000E02D20E0B7010995E3CFF701838594858C
:10361000009741F0DC01ED91FC910280F381E02DF7
:10362000B70109958701045A1F4FF801808188234B
:1036300009F4E0C081E080930A0387E080930B03E4
:1036400089E093E00E94DC14D8011C92E9C0F701E4
:1036500080A9811104C091E02289211101C090E06C
:10366000F701E45AFF4F9083D70152968C93379716
:1036700010828111D5C0F70183859485009709F4E4
:10368000CFC0DC01ED91FC910480F581E02DB70104
:103690000995C6C0F701B6A4BA94BA9410A9EF5A16
:1036A000FF4F208130E040E050E080E090E0329732
:1036B0008217930744F5C080D180C40ED51ED60171
:1036C0001A966C911A97161709F49DC0425F5F4FC6
:1036D00019966C91161315C0F70183859485009790
:1036E00091F0D6014D915C91DC01ED91FC9100844B
:1036F000F185E02D0B2D97012F5C3F4FB701099508
:1037000002C00196D5CFF701E85AFF4F208130E083
:1037100040E050E080E090E03297821793070CF091
:103720007FC0C080D180C40ED51ED60114967C9176
:10373000149715966C9117130FC0161318C082E0DA
:1037400080930A0386E180930B0310930C0389E0B6
:1037500093E00E94DC140BC0161779F3495F5F4FAA
:10376000D60116967C917111E8CF0196D6CFF7015C
:1037700083859485009709F453C097012F5C3F4FD0
:10378000D6014D915C91DC01ED91FC910484F585AD
:10379000E02D0B2DB701099543C0F701958980A94C
:1037A000890F858B3DC0D701D1968C91D1978239F5
:1037B00039F055968C9155978F5F55968C9330C004
:1037C000F70181859285892B59F181E080930A0365
:1037D0008DE180930B0309C090930C03BE016F5FD2
:1037E0007F4F8DE093E00E94972889E093E00E944C
:1037F000DC1416C0D701ED91FC910484F585E02D11
:10380000C70109950DC082E080930A0386E1809389
:103810000B0310930C0389E093E00E94DC145CCF4F
:103820006B960FB6F894DEBF0FBECDBFDF91CF9180
:103830001F910F91FF90EF90DF90CF90BF90AF90CE
:103840009F908F907F906F905F904F903F900895E2
:10385000CF93DF93BC018CE594E00E94E811EC016A
:1038600069E872E08CE594E00E94E8118C0F9D1FDE
:10387000DF91CF910895EF92FF920F931F93CF9313
:10388000DF936115710511F480E01CC041155105ED
:10389000C1F07B01EC018C819D818A01080F191F09
:1038A000B801CE010E94C610882371F328813981A6
:1038B0008C819D81B701820F931F0E94B0281D83C8
:1038C0000C8381E0DF91CF911F910F91FF90EF90DA
:1038D0000895CF93DF93CDB7DEB7CD58D1090FB69A
:1038E000F894DEBF0FBECDBF789484B5826084BDEE
:1038F00084B5816084BD85B5826085BD85B58160F4
:1039000085BD80916E00816080936E001092810071
:10391000809181008260809381008091810081602C
:1039200080938100809180008160809380008091ED
:10393000B10084608093B1008091B0008160809379
:10394000B00080917A00846080937A0080917A0040
:10395000826080937A0080917A00816080937A00FF
:1039600080917A00806880937A001092C100109252
:103970003D0510923E0510923F05109240051092B1
:10398000FB041092FC041092FD041092FE040E94AD
:1039900057146B017C014B015C0128EB820E2BE07C
:1039A000921EA11CB11C0E9457146C157D058E053A
:1039B0009F0528F086169706A806B906A0F78CE59D
:1039C00094E090933C0580933B050E94E70D0E9494
:1039D00057146093FB047093FC048093FD04909350
:1039E000FE046AE772E080913B0590913C050E94DD
:1039F000E8110E9457146B017C014B015C013AE015
:103A0000830E911CA11CB11C0E9457146C157D05DE
:103A10008E059F0528F086169706A806B906A0F71A
:103A200081E080930F050E94E70D8CE892E00E94F0
:103A3000281C62E084E00E94E11361E083E00E94C0
:103A4000E11361E08AE00E94E11360E08AE00E94F5
:103A5000B2138BE992E09093FB058093FA05BC01C9
:103A600086E096E00E94FC0280E890E0C857DF4FB5
:103A700099838883C858D04042E0BE0168577F4F81
:103A80008BE196E00E946203809187059091880502
:103A90009093F4058093F30587E895E00E945D0E0E
:103AA00084E795E00E945D0E89E695E00E945D0E38
:103AB00080916305909164059093F4058093F305DC
:103AC00083E695E00E945D0E80E595E00E945D0E24
:103AD00085E495E00E945D0E8EE194E09093790676
:103AE000809378068DE094E090937B0680937A062D
:103AF00082EA93E090938205809381058EE993E0BA
:103B000090938405809383058AE993E090938605DA
:103B1000809385058DED93E090935E0580935D0520
:103B2000C657DF4F19821882CA58D04042E0BE0102
:103B300066577F4F82E795E00E946203C457DF4FCC
:103B400019821882CC58D04042E0BE0164577F4FA2
:103B50008EE495E00E94620324961FAE2497609144
:103B6000F5057091F6056115710501F1CE01875AD1
:103B70009F4F0E942F04AC960FADAC970983033082
:103B800010F484E101C085E18A83402F50E069E5AB
:103B900070E06C0F7D1F6E5F7F4FCE0103960E9419
:103BA000972814E1101BDD24D39402C016E1D12C18
:103BB0006091F3057091F4056115710509F442C037
:103BC000CE01875A9F4F0E942F04AC960FADAC9741
:103BD000402F50E09A012F5F3F4F812F90E0281730
:103BE000390784F56D2D70E0E1E0F0E0EC0FFD1F8A
:103BF00086E1D89EE00DF11D11240083033010F4FE
:103C000022E001C026E036E1369FC001379F900DCB
:103C10001124E1E0F0E0EC0FFD1FE80FF91F218314
:103C2000029669E570E06C0F7D1F6E5F7F4FA1E02B
:103C3000B0E0AC0FBD1F8A0F9B1F0E949728D39442
:103C4000101B12506091F7057091F8056115710510
:103C500041F14091F905442321F1133010F1842FF3
:103C600090E00196212F30E08217930714F04EEF79
:103C7000410FB6E1DB9EC0011124E1E0F0E0EC0F62
:103C8000FD1FE80FF91F40832FEF2183029650E0BC
:103C9000E1E0F0E0EC0FFD1F8E0F9F1F0E949728C0
:103CA000D3946091FA057091FB056115710521F1BE
:103CB000FB0101900020E9F73197E61BF70B8E2FEF
:103CC0002496EFAF2497E53120F094E124969FAF3E
:103CD000249724964FAD2497481710F089E001C02F
:103CE00088E025968FAF259750E083E490E08C0F15
:103CF0009D1F02960E9497288091FC059091FD05DA
:103D0000892B11F40E94390E20E030E04DE855E097
:103D10008091FE0590E0281739072CF020E030E074
:103D20004FE855E02FC0E091FC05F091FD05C90179
:103D3000880F991FE80FF91F0190F081E02D828113
:103D400093818330984241F4309711F0329702C04A
:103D5000E0E0F0E0568745872F5F3F4FD9CFE091F5
:103D6000FF05F0910006C901880F991FE80FF91FA0
:103D70000190F081E02D828193818330984251F04F
:103D80002F5F3F4F80910106682F70E0261737079D
:103D900034F309C0309711F0329702C0E0E0F0E050
:103DA00050A3478FEDCF882341F089E496E00E942D
:103DB0000F0E8FE496E00E940F0E80919105909176
:103DC0009205A090FF05B0900006E090FC05F090F1
:103DD000FD0521E024963FAD2497311101C020E07C
:103DE000DC01ED91FC910480F581E02D80900106CD
:103DF000C090FE058E010D5B1F4FAE014F5F5F4F00
:103E00006D2D09958091910590919205DC01ED91C0
:103E1000FC9100A4F1A5E02D09958BEA92E00E94A7
:103E2000281C109280001092810010928500109240
:103E3000840088E09DE390938900809388008091BE
:103E400081008860809381008091810084608093EC
:103E5000810080916F00826080936F009CE7E92E63
:103E6000F12CEC0EFD1EB2E0EB0EF11C29E5C22E8A
:103E7000D12CCC0EDD1EE2E0CE0ED11C34E0832E20
:103E8000912CA12CB12C8BE895E00E94270588E0AD
:103E9000E0E7F6E0DE01A459BF4F01900D928A954C
:103EA000E1F788E0FE01E459FF4FDE01AC58BF4F57
:103EB00001900D928A95E1F788E0FE01EC58FF4FE2
:103EC000DE01A458BF4F01900D928A95E1F7CE0113
:103ED00084589F4F0E947E05882309F45DC085EDBC
:103EE00090E00E94CC0DC7010E94181189E394E074
:103EF0000E94281C8CE7282E312C2C0E3D1EF2E04F
:103F00002F0E311CEE968EAD9FADEE970E942705C9
:103F1000CE0184589F4F0E947E05882371F1EE9652
:103F20000EAD1FADEE97C8010E942705F801EB51B9
:103F3000FF4F88E0DE01119601900D928A95E1F71E
:103F400088E0FE013196DE01AD5BBF4F01900D921E
:103F50008A95E1F788E0FE01ED5BFF4FDE01A75A8D
:103F6000BF4F01900D928A95E1F746E050E0B6010F
:103F7000C1010E948A28892B91F082EA90E00E9478
:103F8000CC0D8CE790E08C0F9D1F02960E941811BB
:103F900089E394E00E94281C0E94A71274CF8091AC
:103FA0007D0510927D05882321F08EEB90E00E9424
:103FB000FD1184E00E9489138C018091000390918F
:103FC00001030817190751F00E9457146093FC026F
:103FD0007093FD028093FE029093FF020E9457149B
:103FE0004090FC025090FD026090FE027090FF0233
:103FF000DC01CB0184199509A609B709C397A1056E
:10400000B10508F45CC08091FA029091FB02081798
:10401000190709F454C01093FB020093FA0201300F
:10402000110509F04CC00E941324A50194010E94BF
:10403000DC252B013C012FEF421A520A620A720A58
:10404000CA57DF4F59824882C658D04042E0BE016D
:104050006A577F4F82E795E00E94620382E890E012
:104060000E94CC0D77FE05C0C301B2010E9456121A
:1040700007C02AE0B301A2018CE594E00E940D1272
:104080004091780550E06091790570917A05CE01F4
:104090008C579F4F0E949728CC57DF4F48815981FA
:1040A000C458D04060E070E02AE08CE594E00E94C3
:1040B0000D1269E872E08CE594E00E94E81110931B
:1040C0000103009300034091540550E060915505B1
:1040D00070915605CE018C579F4F0E949728CC5760
:1040E000DF4F08811981C458D04061E083E00E940D
:1040F000E1130115110511F460E004C00F3F110533
:1041000029F461E083E00E94B21343C0E1E9F0E0EA
:1041100084918330F9F048F48130B9F08230A1F510
:1041200084B5806284BD08BD34C08730E9F0883032
:1041300019F1843049F5809180008062809380007D
:1041400010938B0000938A0024C084B5806884BDDE
:1041500007BD1FC08091800080688093800010930D
:1041600089000093880015C08091B000806880931A
:10417000B0000093B3000DC08091B00080628093C6
:10418000B0000093B40005C0003811050CF0B9CFA1
:10419000B3CF6AE070E080E090E00E941D14B2CEE0
:1041A000DC0116968D919C911797DC01ED91FC91A5
:1041B00006A0F7A1E02D099404970C94D020DC010F
:1041C00016968D919C911797DC01ED91FC9104A0BE
:1041D000F5A1E02D099404970C94DF20DC011696DC
:1041E0008D919C911797DC01ED91FC9102A0F3A1B8
:1041F000E02D099404970C94EE20DC0116968D9125
:104200009C911797DC01ED91FC9100A0F1A1E02DAC
:10421000099404970C94FD20DC0116968D919C91D5
:104220001797DC01ED91FC91068CF78DE02D099438
:1042300004970C940C21DC0116968D919C91179794
:10424000DC01ED91FC91048CF58DE02D099404972F
:104250000C941B21DC0116968D919C911797DC0123
:10426000ED91FC91028CF38DE02D099404970C9450
:104270002A21DC0116968D919C911797DC01ED9116
:10428000FC91008CF18DE02D099404970C94392158
:10429000DC0116968D919C911797DC01ED91FC91B4
:1042A0000688F789E02D099402970C944821DC01D7
:1042B00016968D919C911797DC01ED91FC910488E5
:1042C000F589E02D099402970C945721DC0116968C
:1042D0008D919C911797DC01ED91FC910288F389F7
:1042E000E02D099402970C946621DC0116968D91BD
:1042F0009C911797DC01ED91FC910088F189E02DEC
:10430000099402970C947521CF93DF93FC0173837A
:10431000628383E098E295838483809142058F5F76
:10432000809342058EE091E091838083822F253136
:1043300008F084E1868310861782118642871386EF
:1043400014861686158696E0DF011F96ED011992F8
:104350009A95E9F7222331F0EF0190E00E9493262D
:1043600098878F83DF91CF9108958EE495E00E9426
:104370006F0682E795E00E9491068BE895E00C9429
:1043800033059F92AF92BF92CF92DF92EF92FF924E
:104390000F931F93CF93DF93CDB7DEB728970FB658
:1043A000F894DEBF0FBECDBFECE5F4E013821282BD
:1043B00088EE93E0A0E0B0E084839583A683B78382
:1043C00086E291E09183808385EC90E095878487F5
:1043D00084EC90E09787868780EC90E0918B808BCF
:1043E00081EC90E0938B828B82EC90E0958B848BB8
:1043F00086EC90E0978B868B118E128E138E148E26
:10440000E9EFF4E016821782108611861286138671
:104410001486158616861786108A118A128A138AC0
:10442000148A158A0BE815E08AE292E0D801119609
:104430009C938E938EE592E013969C938E931297A5
:104440008AE692E015969C938E93149784E690E00A
:104450001B969C938E931A971D961C921E921C97E6
:104460001F961C921E921E9781E050968C93509737
:1044700052961C921E92519754961C921E925397DC
:1044800088EF91E019969C938E9318971092E3050C
:104490001092E2051092E4051092E5051092E605EF
:1044A0001092E7051092E8051092EA051092E905CE
:1044B0001092EB051092ED051092EC051092EE05AE
:1044C0001092EF058FEF9FEF9093F1058093F00529
:1044D00086E0D82E5596DC92559792E0992E569606
:1044E0009C92569789E057968C9357978FEF5896E2
:1044F0008C93589759968C931092F4051092F3056B
:104500001092F6051092F5051092F8051092F70535
:104510001092F9051092FB051092FA051092FD0514
:104520001092FC051092FE05109200061092FF05F5
:104530001092010686EC92E09093030680930206A7
:10454000E12C28E2F22EF0920506E092040680911A
:1045500042058F5F8093420523E142E065EB72E004
:1045600086E096E00E94842122E042E06AEB72E05D
:104570008BE196E00E9484213BECA32E32E0B32E27
:10458000B0923106A0923006F0923306E0923206E5
:10459000809142058F5F8093420524E040E26FEBFB
:1045A00072E084E396E00E948421B0924A06A092D1
:1045B0004906F0924C06E0924B06809141052FEBA4
:1045C00032E03093500620934F0623E038E23093D8
:1045D0005206209351068E5F809341058EEB91E049
:1045E00090934E0680934D0680E28093530610927E
:1045F000540610926B0610926D0610926C06109283
:104600006F0610926E061093710600937006E2E733
:10461000F6E0DF011D92DA94E9F783E995E0F8010D
:104620009783868388E0E8E7F6E0DF011D928A95AC
:10463000E9F760ED72E086E096E00E94FC021886E1
:104640001F8242E0BE01695F7F4F8BE196E00E94CE
:104650006203D8011696ED91FC9117971487038792
:10466000E7E8F5E088ED92E091838083F382E282CF
:10467000809142058F5F8093420522E04EE16DED0F
:1046800072E082E795E00E94842102E715E0F801DC
:1046900091868EE891E0918380831A8219821E822E
:1046A0001D8242E0BE016B5F7F4FC8010E94620322
:1046B00086EA91E0D8018D939C93E7E6F5E042EE1F
:1046C000A42E42E0B42EB382A282C12C59E2D52E90
:1046D000D582C4828091420508E611E011830083EF
:1046E00027EE32E03187208794E09287E3E6F5E019
:1046F0002CEE32E031832083F382E2828E5F80935E
:10470000420522E04AE061EF72E08EE495E00E940B
:1047100084216EE4E62E65E0F62EF701918688E3AB
:1047200091E0918380831C821B821A82198242E06D
:10473000BE016F5F7F4FC7010E94620380E591E079
:10474000D7018D939C93E3E4F5E0B382A282D582F6
:10475000C482809142058F5F80934205118300835C
:1047600086EF92E09187808783E0828728960FB654
:10477000F894DEBF0FBECDBFDF91CF911F910F9197
:10478000FF90EF90DF90CF90BF90AF909F900895F3
:104790008F929F92AF92BF92CF92DF92EF92FF9251
:1047A000CF93DF93EC01688179818A819B816115C8
:1047B00071058105910521F464E279ED8BE597E0BF
:1047C0002DE133EF41E050E00E94DC2549015A0120
:1047D0009B01AC01A7EAB1E40E94FB256B017C01BF
:1047E000ACEEB4EFA50194010E940926DC01CB01D7
:1047F0008C0D9D1DAE1DBF1DB7FF03C00197A10904
:10480000B04888839983AA83BB83BC01CD019F777D
:10481000DF91CF91FF90EF90DF90CF90BF90AF905E
:104820009F908F9008958F929F92AF92BF92CF9258
:10483000DF92EF92FF9260910001709101018091EF
:10484000020190910301611571058105910521F423
:1048500064E279ED8BE597E02DE133EF41E050E044
:104860000E94DC2549015A019B01AC01A7EAB1E491
:104870000E94FB256B017C01ACEEB4EFA501940115
:104880000E940926DC01CB018C0D9D1DAE1DBF1DB4
:10489000B7FF03C00197A109B0488093000190932E
:1048A0000101A0930201B0930301BC01CD019F77E8
:1048B000FF90EF90DF90CF90BF90AF909F908F9040
:1048C0000895609300017093010180930201909319
:1048D0000301089591110C949624803219F08950A7
:1048E0008550C8F70895FB01DC0102C005900D92C8
:1048F00041505040D8F70895BB27FB015527AA2700
:10490000880F991FAA1FA41710F0A41B839550515C
:10491000B9F7A05DAA3308F0A95DA193009779F7D4
:10492000B111B1931192CB010C9499249927882746
:104930000895DC01FC01672F71917723E1F732972D
:1049400004C07C916D9370836291AE17BF07C8F36A
:104950000895E89409C097FB3EF490958095709572
:1049600061957F4F8F4F9F4F9923A9F0F92F96E9BB
:10497000BB279395F695879577956795B795F11130
:10498000F8CFFAF4BB0F11F460FF1BC06F5F7F4FCD
:104990008F4F9F4F16C0882311F096E911C07723DF
:1049A00021F09EE8872F762F05C0662371F096E8E8
:1049B000862F70E060E02AF09A95660F771F881FB7
:1049C000DAF7880F9695879597F908950E94F9244C
:1049D0000C946A250E945C2538F00E94632520F023
:1049E000952311F00C9453250C94592511240C9403
:1049F0009E250E947B2570F3959FC1F3950F50E093
:104A0000551F629FF001729FBB27F00DB11D639F80
:104A1000AA27F00DB11DAA1F649F6627B00DA11D26
:104A2000661F829F2227B00DA11D621F739FB00DCC
:104A3000A11D621F839FA00D611D221F749F33273C
:104A4000A00D611D231F849F600D211D822F762FD5
:104A50006A2F11249F5750409AF0F1F088234AF0B2
:104A6000EE0FFF1FBB1F661F771F881F915050401E
:104A7000A9F79E3F510580F00C9453250C949E2578
:104A80005F3FE4F3983ED4F3869577956795B795A5
:104A9000F795E7959F5FC1F7FE2B880F911D9695BF
:104AA000879597F9089597F99F6780E870E060E02F
:104AB00008959FEF80EC089500240A9416161706B7
:104AC00018060906089500240A94121613061406FF
:104AD00005060895092E0394000C11F4882352F062
:104AE000BB0F40F4BF2B11F460FF04C06F5F7F4F1A
:104AF0008F4F9F4F089557FD9058440F551F59F001
:104B00005F3F71F04795880F97FB991F61F09F3FBA
:104B100079F087950895121613061406551FF2CFE3
:104B20004695F1DF08C0161617061806991FF1CF33
:104B300086957105610508940895E894BB2766275A
:104B40007727CB0197F90895F999FECF92BD81BDE2
:104B5000F89A992780B50895262FF999FECF1FBAA4
:104B600092BD81BD20BD0FB6F894FA9AF99A0FBE96
:104B700001960895A1E21A2EAA1BBB1BFD010DC0D0
:104B8000AA1FBB1FEE1FFF1FA217B307E407F507FD
:104B900020F0A21BB30BE40BF50B661F771F881FD9
:104BA000991F1A9469F760957095809590959B016F
:104BB000AC01BD01CF010895052E97FB1EF40094B2
:104BC0000E94F32557FD07D00E94BA2507FC03D0A9
:104BD0004EF40C94F32550954095309521953F4F18
:104BE0004F4F5F4F089590958095709561957F4FD9
:104BF0008F4F9F4F08950E944526A59F900DB49F0B
:104C0000900DA49F800D911D11240895B7FF0C9461
:104C1000FB250E94FB25821B930B08952F923F9248
:104C20004F925F926F927F928F929F92AF92BF92BC
:104C3000CF92DF92EF92FF920F931F93CF93DF9368
:104C4000CDB7DEB7CA1BDB0B0FB6F894DEBF0FBEC5
:104C5000CDBF09942A88398848885F846E847D8412
:104C60008C849B84AA84B984C884DF80EE80FD8014
:104C70000C811B81AA81B981CE0FD11D0FB6F8948A
:104C8000DEBF0FBECDBFED010895A29FB001B39F5F
:104C9000C001A39F700D811D1124911DB29F700D45
:104CA000811D1124911D0895AA1BBB1B51E107C052
:104CB000AA1FBB1FA617B70710F0A61BB70B881FAC
:104CC000991F5A95A9F780959095BC01CD0108953B
:104CD000EE0FFF1F0590F491E02D09940F9308301B
:104CE00090F0982F872F762F652F542F432F322F38
:104CF00022270850F4CF220F331F441F551F661F71
:104D0000771F881F991F0A95B2F70F910895002405
:104D1000A7FD00942A173005400550056005700571
:104D20008005900508950F931F93CF93DF938230F2
:104D3000910510F482E090E0E0918106F091820606
:104D400020E030E0A0E0B0E0309719F140815181DF
:104D50000281138148175907C8F08417950769F431
:104D6000109731F012960C93129713961C9327C04C
:104D7000009381061093820622C02115310519F097
:104D80004217530718F49A01BD01EF01DF01F80142
:104D9000DBCF21153105F9F0281B390B2430310503
:104DA00080F48A819B816115710521F0FB01938359
:104DB000828304C09093820680938106FE0132961E
:104DC00044C0FE01E20FF31F8193919322503109F9
:104DD000398328833AC020917F0630918006232BA7
:104DE00041F4209106013091070130938006209311
:104DF0007F0620910401309105012115310541F410
:104E00002DB73EB74091080150910901241B350B85
:104E1000E0917F06F0918006E217F307A0F42E1BC5
:104E20003F0B2817390778F0AC014E5F5F4F24170E
:104E3000350748F04E0F5F1F5093800640937F0662
:104E40008193919302C0E0E0F0E0CF01DF91CF9138
:104E50001F910F910895CF93DF93009709F481C0BC
:104E6000FC01329713821282A0918106B0918206D2
:104E7000109781F420813181820F931F20917F064A
:104E8000309180062817390751F5F0938006E0939A
:104E90007F0667C0ED0120E030E0CE17DF0740F469
:104EA0004A815B819E0141155105F1F0EA01F5CF80
:104EB000D383C28340815181840F951FC817D907BE
:104EC00059F488819981840F951F0296918380837C
:104ED0008A819B81938382832115310529F4F09384
:104EE0008206E09381063DC0E901FB83EA83499194
:104EF0005991C40FD51FEC17FD0761F48081918192
:104F0000840F951F0296E90199838883828193819A
:104F10009B838A83E0E0F0E012968D919C91139739
:104F2000009719F0FD01DC01F7CF8D919C9111974D
:104F30009D012E5F3F4F820F931F20917F0630917E
:104F400080062817390769F4309729F410928206F1
:104F50001092810602C013821282B0938006A09341
:104F60007F06DF91CF910895A0E0B0E0EAEBF7E291
:104F70000C941226EC01009721F4CB010E94932699
:104F8000B4C0FC01E60FF71F9C0122503109E21763
:104F9000F30708F4A8C0D9010D911C9111970617C9
:104FA0001707B0F00530110508F49BC0C80104973D
:104FB0008617970708F495C002501109061B170BB6
:104FC000019311936D937C93CF010E942B2789C08D
:104FD0005B01A01AB10A4C01800E911EA0918106BE
:104FE000B0918206612C712CE12CF12C109709F400
:104FF00046C08D919C911197A815B905B1F56C012A
:1050000042E0C40ED11CCA14DB0478F14C018A18AA
:105010009B08640142E0C40ED11C1296BC9012970A
:105020001396AC91B5E0CB16D10440F0B282A383C5
:1050300091828082D9016D937C9309C00E5F1F4FCE
:10504000800F911FF90191838083EB2DFA2FE114DA
:10505000F10431F0D7011396FC93EE93129741C0FF
:10506000F0938206E09381063CC06816790608F446
:105070003C017D0112960D90BC91A02DB7CF80917F
:105080007F069091800688169906E1F466167706E9
:10509000C8F48091040190910501009741F48DB707
:1050A0009EB74091080150910901841B950BE817A8
:1050B000F907C8F4F0938006E0937F06F901718345
:1050C00060830FC0CB010E9493267C01009759F0AA
:1050D000A801BE010E949728CE010E942B27C7017C
:1050E00004C0CE0102C080E090E0CDB7DEB7EEE0B4
:1050F0000C942E2681E090E0F8940C94C62885FD4F
:105100000C949624806291110C94962481568A51B5
:10511000D8F70895FB01DC0104C08D91019080193E
:1051200021F441505040C8F7881B990B0895FB01AA
:10513000DC0102C001900D9241505040D8F7089513
:10514000DC0101C06D9341505040E0F70895FB0130
:10515000DC018D91019080190110D9F3990B08950C
:10516000FB01DC0101900D920020E1F70895FB01A5
:10517000DC014150504048F001900D920020C9F7E9
:1051800001C01D9241505040E0F7089511E0C5E57F
:10519000D1E004C0FE010E9468262196C635D107E1
:0651A000C9F7F894FFCFEF
:1051A60001000000000083068000000000001103DB
:1051B6001D03F902F502F202E802F0026203FC02A4
:1051C600C802000000009901A00D8001E6019B12B3
:1051D60079128D12000000005E066506F902F502DE
:1051E600F202E802AE026203FC02C80200000000FE
:1051F6006F067606F902F502F202E802AE026203D3
:10520600FC02C802000000007D050F03C402C102B3
:10521600B902000000004D065406F902F502F2023A
:10522600E802AE026203FC02C8020000000080062B
:105236008706F902F502F202E802AE026203FC02F8
:10524600C8020000000091069806F902F502F20273
:10525600E802AE026203FC02C80200000000260556
:105266000D03000000007C050B03B2029F0D9F0D8D
:10527600B0029F0D9F0DA702A702A702A702A702D1
:10528600A702A702A902A702A702A702A7029F0DCB
:105296009F0D9F0D00000000A206A906B3064A183E
:1052A60029181816C215A5154F17A71606130613A3
:1052B600521380163A135C150E134F16FF1236164C
:1052C6009C1593158A15000000004C038203960274
:1052D6008A027A02620227036102600260023305D3
:1052E6007205752166215721482139212A211B2162
:1052F6000C21FD20EE20DF20D020FEFF00008121C2
:10530600722163215421FCFF00004521362127210B
:1053160018210921FA20EB20DC20564D4450565F17
:10532600317C315F564D4450560D0A00536F6674FA
:105336007761726520737461727400426C7565746E
:105346006F6F7468204C6169746500424C45207229
:10535600656164790032613030003261303100328B
:10536600613035003A0031383030003138303100A4
:1053760041726475696E6F0041414130004141419F
:10538600310032393031004152564F0046464630E0
:0A5396000046464631004C45440035
:00000001FF
