:100000000C9400010C9428010C9428010C942801F4
:100010000C9428010C9428010C9428010C942801BC
:100020000C9428010C9428010C9428010C942801AC
:100030000C9428010C9428010C9428010C9428019C
:100040000C9463170C9428010C94BC0F0C94960F1D
:100050000C9428010C9428010C9428010C9428017C
:100060000C9428010C9428013C13BE16A8169F136B
:1000700093142F13D515AE14BE167B16BE16F815A5
:100080008116436F6E6E6563746564206576656E78
:10009000742C2063656E7472616C3A20004469733D
:1000A000636F6E6E6563746564206576656E742C2F
:1000B0002063656E7472616C3A20000007060000D0
:1000C000030241FE000000000000000000000000EC
:1000D000000000000000000000000000001F0610EB
:1000E0000000000000000000000001010000060008
:1000F00006000000000000000000000000001F06D5
:10010000101C0000000000000000000000000000C3
:1001100000000000000000001000039000FF001F1E
:10012000061038FFFF02580A05000000000000001A
:1001300000000010000000000001020102010200A6
:10014000050610540002000000000000000000003E
:10015000000000000000000000000000000000009F
:100160000019067000000000000000000000000000
:10017000000000000000000000000000000000007F
:1001800000001906701600000000000000000000CA
:10019000000000000000000000000000000000005F
:1001A00000000000000023002600290004040404CD
:1001B0000404040402020202020203030303030311
:1001C00001020408102040800102040810200102EE
:1001D00004081020000000080002010000030407CA
:1001E00000000000000000000000000024002700C4
:1001F0002A0000000000250028002B00941A8C1A09
:1002000011241FBECFEFD8E0DEBFCDBF25E0AAE9A5
:10021000B2E001C01D92AB3AB207E1F712E0A0E0F4
:10022000B1E0ECE4F7E402C005900D92AA39B10701
:10023000D9F710E0CFEFD0E004C02197FE010E9473
:100240005321CE3FD107C9F70E944B1C0C94992330
:100250000C940000089508958B519F4FFA01248754
:10026000211103C022E030E002C021E030E0220F83
:10027000331FFA01E20FF31F0784F089E02D309756
:1002800011F0BA01099408950F93DA01A901202F02
:10029000BC016B517F4FED91FC9111970288F3895E
:1002A000E02DCD010F910994FC01ED50FF4F01901D
:1002B000F081E02D309719F08B519F4F09940895EC
:1002C000FC01EF50FF4F0190F081E02D309719F0C5
:1002D0008B519F4F099408950895089508950895A6
:1002E000089580E0089580E0089580E090E008950A
:1002F00081E0089580E00895CF93DF93CDB7DEB716
:10030000DF91CF910895FC0180859185FC01E60F76
:10031000F71F80810895FC0182850895FC01808586
:10032000918508950F931F93CF93DF93EC018B0179
:10033000BA01E881F9810684F785E02D422F0995FD
:1003400081E08B87EF85F889309739F0BE01C801CD
:10035000DF91CF911F910F910994DF91CF911F9160
:100360000F910895FC0187819085FC01E60FF71F2E
:100370008081089580E00895FC0181850895FC0145
:10038000878190850895FC0186810895EF92FF9200
:100390000F93CF93DF93EA018B519F4F7C010F8323
:1003A000402F50E0B901CE0108960E946A2381E0F7
:1003B0008E8FE9A1FAA1309741F0BE01C701DF910C
:1003C000CF910F91FF90EF900994DF91CF910F9112
:1003D000FF90EF900895FA019C012B513F4FD901F6
:1003E000129656E001900D925A95E1F7FC01E35107
:1003F000FF4F0190F081E02D309711F0C901099471
:100400000895CF93DF93EC018E81481708F4842F71
:100410008987482F50E08F8198850E946A238D85B7
:100420009E85009751F0DC01ED91FC910190F081E7
:10043000E02DBE01DF91CF91099481E0DF91CF9152
:100440000895CF93DF93FC01E151FF4F0190F081BC
:10045000E02DEC01CB51DF4F309711F0CE01099523
:10046000229686E0FE0111928A95E9F7DF91CF91FD
:1004700008950C9416220C9416220C9416222AE04D
:1004800031E0FC013183208387819085009711F052
:100490000C9416220895CF93DF93EC010E943F0243
:1004A000CE01DF91CF910C941622FB010190002028
:1004B000E9F73197AF01461B570BDC01ED91FC9139
:1004C0000684F785E02D0994CF93DF93EC018DE945
:1004D00090E00E94D40BCE0102960E94060B8AEA9D
:1004E00093E0DF91CF910C94E40ACF93DF93EC017A
:1004F00082E890E00E94D40BCE0102960E94060B87
:100500008AEA93E0DF91CF910C94E40A25EC31E084
:10051000FC01318320830C94D712CF93DF93EC013D
:100520000E948602CE01DF91CF910C94162208958D
:10053000BF92CF92DF92EF92FF920F931F93CF93D0
:10054000DF9300D01F92CDB7DEB77C016B01FC01B9
:10055000718360831B82128AFB0101900020E9F7FE
:100560008F01061B170B0250110917FD25C0F7015B
:10057000B288FFE0FB1500F1F601E00FF11F80816A
:100580008D3219F40F5F1F4F14C0319790819983FA
:100590008A8340E150E060E070E0CE0101960E9465
:1005A000771EF701EB0DF11D6283F70182898F5FE2
:1005B000828B02501109D9CF0F900F900F90DF91CD
:1005C000CF911F910F91FF90EF90DF90CF90BF9050
:1005D00008952F923F924F925F926F927F928F92E7
:1005E0009F92AF92BF92CF92DF92EF92FF920F93C2
:1005F0001F93CF93DF93CDB7DEB7C855D1090FB6A0
:10060000F894DEBF0FBECDBF1C016FAF5EAF4DAF24
:1006100024962FAF249723961FAF0EAF23972996CA
:10062000BFAEAEAE2997B82CFC01E35AFF4F8FEF57
:100630009FEF918380832696EFAE26972796FFAE95
:1006400027972796AEADBFAD279720E030E0612C0D
:10065000912C6C2D70E063967FAF6EAF63976396BD
:100660008EAD9FAD63972817390704F5ED91FD9185
:100670008281938183309842B1F4309711F03297A0
:1006800002C0E0E0F0E08285882369F0939480FD69
:10069000639484FD639485FD639482FD639483FD7C
:1006A000639481FD63942F5F3F4FD9CF6EE0969E98
:1006B000C00111240E947E21F101E15BFF4F918373
:1006C000808329968EAD9FAD29972F969FAF8EAFD1
:1006D0002F976C0100E010E0712C512C412C812CE3
:1006E000AB2DB0E02B96BFAFAEAF2B972B96EEADF8
:1006F000FFAD2B970E171F07ACF5D601ED90FD90BF
:100700006D01F701A280B38060817181CE010196F5
:100710000E9498028B89833008F07394A114F8E248
:10072000BF0611F483941BC023E0A21628E2B20690
:10073000B1F4E114F10419F0F701329702C0E0E0DE
:10074000F0E08681882359F0439484FD539485FD1D
:10075000539482FD539483FD539481FD53940F5F12
:100760001F4FC4CF37E0439EC00111240E947E2159
:10077000F101EA5AFF4F91838083F997A4E9B5E02C
:10078000C1018596119217821D928E179F07D1F78E
:100790008101035F1F4F1093230300932203FFB6D1
:1007A000F89480919A02811127C0E6EBF1E08491E0
:1007B000EAECF1E09491E82FF0E0EE0FFF1FE85132
:1007C000FE4FA591B491EC91E92321F461E08AE018
:1007D0000E94171061E08AE00E9446108CB580618B
:1007E0008CBD8CB580648CBD61E08DE00E944610AC
:1007F00061E08BE00E94461080919A028F5F8093A7
:100800009A02FFBE109220031092210310929D02C3
:1008100010929E021092BE021092BF021092DF024E
:100820001092E00210920003109201031092A803AC
:100830001092A903109225031092260310924603EA
:100840001092470310926703109268031092880376
:100850001092890362E0D1011E968C910E9446108D
:1008600061E0F10185850E944610D10150968C917E
:100870008F3F19F060E00E9446100E94AD1761E0C2
:10088000F10185850E9417106EE170E080E090E034
:100890000E948210D10150968C918F3F81F464E6C2
:1008A00070E080E090E00E94821081E08093740507
:1008B0008EE08093750583E795E00E94DC17F101D7
:1008C00081859285892B29F081E0828BE45AFF4F44
:1008D00010827101FDE2EF0EF11CB701C8010E9408
:1008E0006F0C882341F0D1019F968C91813851F093
:1008F000843899F707C061E070E080E090E00E94E2
:100900008210EBCF1982BFADBB2331F0DD24D3942D
:10091000EDADFEADEF2B09F4D12C2496FFAD24975D
:10092000FF2341F0CC24C39423962EAD3FAD2397F3
:10093000232B09F4C12C2BEBE22E20E0F22E00E059
:1009400010E023966EAD7FAD23976E5F7F4F2196AB
:100950007FAF6EAF2197ADACBEAC72E0A70EB11CFD
:10096000650CF7013196449150E04E5F5F4FB7013F
:10097000CE0101960E94751F0130110581F48B860E
:100980009C864D866E86D10119968D919C911A9701
:10099000892B09F4F5C48A8582608A8758C00230A1
:1009A000110559F4DD2009F4EBC4888D8064888F2B
:1009B0008C8D80648C8F78A24AC00330110591F42D
:1009C000DD2019F08E8980648E8BCC2009F4D8C488
:1009D0008E8580648E878A8980648A8B8A8D806404
:1009E0008A8F35C00430110551F4F101818592855B
:1009F000892B09F4C5C48E8181608E8328C005309F
:100A0000110571F4DD2009F4BBC4ADADBEAD119686
:100A10008C9111978E834C914F8350E0B50113C098
:100A200006301105A1F4CC2009F4B7C42396EEAD2D
:100A3000FFAD239781818E8340814F8350E02196C3
:100A40006EAD7FAD2197CE0108960E946A2340E0EB
:100A5000BE016F5F7F4FC1010E94BC100F5F1F4F2F
:100A6000F1E2EF0EF11C0730110509F07ACF1EAA52
:100A70001DAA2D961FAE1EAE2D9722961FAE229751
:100A800011E066246394712C9E012F5F3F4F590142
:100A9000B101615B7F4F69967FAF6EAF69972D960D
:100AA0008EAD9FAD2D976396AEADBFAD63978A17A0
:100AB0009B070CF07EC22796EEADFFAD2797E19025
:100AC000F1902796FFAFEEAF2797D70112968D9042
:100AD0009C9013976D917C91CE0182960E94980212
:100AE000DCA88114B8E29B06E1F48CE08D0D8A83CA
:100AF00084E08E838F83D886D9867A866B86EFEFE3
:100B00006E1A7E0A88E28C871D8681E08E874D2DC5
:100B100050E0BE016C5D7F4FCE010F960E946A23AC
:100B2000B6C1F3E08F16F8E29F0609F0BAC1E114EE
:100B3000F10429F0270122E0421A510802C0412C99
:100B4000512CD2011A96BC91BDAFF201E280F38024
:100B50006996AEADBFAD69978D919C914C0122967F
:100B6000EFAD2297BEE0EB9F800C911C11248EE02C
:100B7000D4011D928A95E9F7F40151824082FDADBE
:100B8000FF2369F122962FAD22972F5F22962FAF78
:100B90002297F0FF04C0D40116961C931F5FBDADD1
:100BA000B4FF03C0F40117831F5FFDADF5FF04C060
:100BB000D40118961C931F5FBDADB2FF03C0F401B2
:100BC00011871F5FFDADF3FF04C0D4011A961C937B
:100BD0001F5FBDADB1FF03C0F40113871F5F8FE03E
:100BE0008D0D8A8384E0C82ECE82CF8283E08D0D66
:100BF000888789877A866B8688E28C8783E08D87F1
:100C000081E08E878DAD8E7F8F87C3010196888BA3
:100C1000998BD40113969C938E931297F30132967D
:100C20002596FFAFEEAF25974D2D50E0BE016C5DD0
:100C30007F4FCE0142960E946A2300E09E012B5C0A
:100C40003F4F42E0B501C1010E942F11FCE0FA8341
:100C5000CE821F82D201ED91FC910484F585E02DB6
:100C6000C2010995882319F08E8182608E83BDAD03
:100C7000B1FF03C08F8184608F83F10181859285EC
:100C8000892BC1F067E472E0C7010E947A23892BA7
:100C900089F06CE472E0C7010E947A23892B51F03D
:100CA00061E572E0C7010E947A23892B19F08F81D8
:100CB00088608F838DAD8C7031F08E8180648E83DF
:100CC0008F8180618F83FDADF4FF03C08E818061D1
:100CD0008E832DAD25FF03C08E8180628E83D2016D
:100CE000ED91FC910480F581E02DC2010995E82E7B
:100CF000D201ED91FC910084F185E02DC2010995AE
:100D0000F82EE886D201ED91FC910484F585E02D62
:100D1000C2010995882319F088858F5F8887F98635
:100D2000F40183818A8782818B87F2E0DF1205C01C
:100D30008DA18C878CA18D8702C01C861D8681E0C9
:100D40008E8700E09E012B5C3F4F42E0B501C10160
:100D50000E942F11C12CD12C2E2D30E061963FAF77
:100D60002EAF61976F2D70E067967FAF6EAF67977C
:100D700061968EAD9FAD6197C816D9060CF05EC026
:100D80007C01EC18FD089DE1E916F1041CF00CE172
:100D9000E02EF12C83E08E0D8A83A70160E070E0E5
:100DA000CE0106960E94732367968EAD9FAD67971E
:100DB0008C199D09E816F9060CF4C70118161906D6
:100DC0008CF52196BFAEAEAE2197D601AA19BB090C
:100DD0006596BFAFAEAF659721968EAD9FAD21975B
:100DE0008A199B098E159F05ECF465966EAD7FAD53
:100DF00065972196EEADFFAD21976E0F7F1FD20153
:100E0000ED91FC910284F385E02DC20109952196B4
:100E1000EEADFFAD2197858331962196FFAFEEAF02
:100E20002197DACF00E09E012B5C3F4F42E0B501F5
:100E3000C1010E942F11CE0CDF1C9ACF8DAD8073A3
:100E400009F4A8C08EE08A8386E48E8384E18F83D0
:100E500083E0888782E089872596FFAD2597FA870A
:100E600024962FAD24972B872596EEADFFAD2597C1
:100E7000D4011596FC93EE931497F3E06F0E711C5A
:100E800099E29C878D8781E08E871F86188A00E013
:100E90009E012B5C3F4F42E0B501C1010E942F1122
:100EA0007DC0811429E2920609F078C0E114F104B2
:100EB00021F032E0E31AF10802C0E12CF12C4CE001
:100EC0004A8384E08E838F83D701ED91FC91068065
:100ED000F781E02DC7010995882E888789877A8652
:100EE0006B86BFEF6B1A7B0A8DA18C878CA18D87D7
:100EF00081E08E8700E09E012B5C3F4F42E0B50110
:100F0000C1010E942F11C12CD12CE82DF0E0FEAFC1
:100F1000EDAF2DAD3EADC216D3060CF03FC049017A
:100F20008C189D083DE1831691041CF0BCE18B2ECA
:100F3000912C83E0880D8A832501B6016A197B090B
:100F400021967FAF6EAF2197C2018A199B09881540
:100F50009905A4F421966EAD7FAD2197640D751DA2
:100F6000D701ED91FC910084F185E02DC701099531
:100F7000F2018583FFEF4F1A5F0AE6CF00E09E0182
:100F80002B5C3F4F42E0B501C1010E942F11C80CFC
:100F9000D91CBFCF25966EAC7FAC25972D962EAD74
:100FA0003FAD2D972F5F3F4F2D963FAF2EAF2D9723
:100FB00076CDF101EF5AFF4F22963FAD2297308355
:100FC00084E08A831E8200E09E012B5C3F4F42E05A
:100FD000BE016F5F7F4FC1010E942F1118AE1FAA83
:100FE0002996AEACBFAC2997CC24C394D12CE2E0B7
:100FF0009E2EE12C210146E5440E511CF7E0FF2E08
:10100000A8E08A2EC60101972B966EAD7FAD2B9777
:10101000861797070CF08BC0D5016D907D905D0110
:10102000F30160817181CE0182960E949802D30102
:1010300012968D919C9113978115984209F073C077
:101040009CA98FEF810F8987A6019601220F331F7C
:101050002996EEADFFAD29972E0F3F1F7E2C872DD1
:101060008E192B966EAD7FAD2B9746175707F4F56B
:10107000F901A191B1919F0112966D917C91139705
:101080006330784299F5109721F0BD0162507109E3
:1010900002C060E070E0F201A081B181FD0187E053
:1010A000789EE00DF11D1124DF018F2D1D928A9590
:1010B000E9F7DB0116968C917183608382FF02C091
:1010C00012831F5F83FF02C013831F5F81FF02C073
:1010D00016831F5F84FF02C014831F5F85FF02C059
:1010E00015831F5F73944F5F5F4FB9CF8A82923031
:1010F00039F49DA19E839CA19F83B1E0B88706C06F
:1011000099A99E8398A99F83988693948A8700E0E3
:101110009E01295C3F4F43E0BE016F5F7F4FC101DD
:101120000E942F11E72CEFEFCE1ADE0A6BCFF101F0
:10113000E85AFF4FE0821AAE19AEA12CB12C612CF7
:10114000712C2296FFAD2297CF2ED12C21012FE4B6
:10115000420E511C2DE0F22E11E034E0832E6C146F
:101160007D0484F0C12CD12CA12CB12CF12C3101A7
:1011700036E5630E711C8DE0582E4424439494E0B0
:10118000892E8FC0D201ED91FC91EA0DFB1DA0814B
:10119000B1812281338184819581FA821E821F82EE
:1011A000188719861A868B863C872D879E878F879E
:1011B0001A968C9180FD1A8784FF03C09A859260ED
:1011C0009A8785FF03C09A8594609A8782FF03C03F
:1011D0009A8598609A8783FF03C09A8590619A8761
:1011E00081FF03C08A8580688A8700E09E01275CB2
:1011F0003F4F44E0BE016F5F7F4FC1010E942F113E
:10120000BFEF6B1A7B0AEEE0AE0EB11CA8CFD30184
:10121000ED91FC91EC0DFD1D00811181F8016281C1
:101220007381CE0182960E9498028CA95A828230E4
:10123000E9F58DA18E838CA18F83488619861A8645
:101240008B861C861D861E861F86D80116968C915D
:1012500081FF02C0B0E4BA8782FF03C09A85926022
:101260009A8783FF03C09A8594609A8784FF03C09E
:101270009A8598609A8785FF03C08A8580618A87EE
:1012800000E09E01275C3F4F44E0BE016F5F7F4F4F
:10129000C1010E942F11EFEFAE1ABE0AF7E0CF0E88
:1012A000D11CAE14BF040CF4B2CF07C089A98E8341
:1012B00088A98F8398869394C1CF1CAE1BAEE12C76
:1012C000F12C2B962EAD3FAD2B97E216F3066CF565
:1012D0002F96AEADBFAD2F97ED91FD912F96BFAF7D
:1012E000AEAF2F9760817181CE0182960E949802E5
:1012F0004CA983E0840F8A8350E0BE016C5D7F4F70
:10130000CE0106960E946A231A8A1B8A00E09E017B
:10131000255C3F4F45E0BE016F5F7F4FC1010E94DA
:101320002F11BFEFEB1AFB0ACCCF1BA21AA286E04B
:101330008A8383E08E8301E09E012E5D3F4F4FE064
:10134000BE016F5F7F4FC1010E942F11C85ADF4F4E
:101350000FB6F894DEBF0FBECDBFDF91CF911F91C6
:101360000F91FF90EF90DF90CF90BF90AF909F9044
:101370008F907F906F905F904F903F902F90089547
:1013800040E0BE016F5F7F4FC1010E94BC100F5F44
:101390001F4FE1E2EE0EF11CE4CA40E0BE016F5FB8
:1013A0007F4FC1010E94BC1062CB0895CF93DF93A1
:1013B000EC0187EF91E0998388838BE292E09B8335
:1013C0008A8387E392E09D838C838E819F81DC01F9
:1013D000ED91FC910084F185E02D0995FE01EC581A
:1013E000FF4F80819181009711F00E941622FE012B
:1013F000EF58FF4F80819181009711F00E941622D3
:10140000CE0187559F4F0E943F02CE0180579F4FCC
:101410000E943F02CE0185589F4F0E943F02CE019D
:101420000896DF91CF910C948602CF93DF93EC0165
:101430000E94D609CE01DF91CF910C941622089517
:10144000AF92BF92CF92DF92EF92FF920F931F93D2
:10145000CF93DF935C017A0169018B01C0E0D0E09A
:10146000CC15DD0579F0F5018081918101968E0D15
:101470009F1D8C0F9D1F0E94A620F80181938F0154
:101480002196EECFDF91CF911F910F91FF90EF90BA
:10149000DF90CF90BF90AF900895AF92BF92CF9260
:1014A000DF92EF92FF920F931F93CF93DF937C0114
:1014B000D62FC72F5A01690161E0FC01808191811B
:1014C0000E94AE200D2F1C2FC0E0D0E0CC15DD0512
:1014D00079F0F80161918F01F70180819181019686
:1014E0008A0D9B1D8C0F9D1F0E94AE202196EECF72
:1014F000DF91CF911F910F91FF90EF90DF90CF90F0
:10150000BF90AF90089523E431E0FC013183208344
:101510000C943F02CF93DF93EC010E94830ACE012B
:10152000DF91CF910C9416222BE531E0FC01318341
:1015300020830C94830ACF93DF93EC010E94940ADA
:10154000CE01DF91CF910C94162223E731E0FC010C
:10155000318320830C94940ACF93DF93EC010E9493
:10156000A50ACE01DF91CF910C941622EF92FF9243
:101570000F931F93CF93DF936115710511F480E0F2
:101580001CC041155105C1F07B01EC018C819D818E
:101590008A01080F191FB801CE010E94440F882349
:1015A00071F3288139818C819D81B701820F931F4E
:1015B0000E9483231D830C8381E0DF91CF911F91D3
:1015C0000F91FF90EF900895CF93DF93009779F0FC
:1015D000FC0101900020E9F73197AF01481B590B3E
:1015E000BC018CEB93E00E94D70DEC0102C0C0E07F
:1015F000D0E042E050E06BE772E08CEB93E00E94B9
:10160000D70D8C0F9D1FDF91CF910895CF92DF9260
:10161000EF92FF920F931F93CF93DF93CDB7DEB777
:101620006B970FB6F894DEBF0FBECDBF8C011F8A3B
:101630001E8A198E188E1B8E1A8E40E050E06DE7C0
:1016400072E0CE0146960E946B0F198A188A1B8A97
:101650001A8A1D8A1C8A40E050E06DE772E0CE01D4
:1016600040960E946B0F0A5F1F4F85E0E82EF12C19
:10167000CE0101966C01F80182918F01803140F416
:1016800041E050E069E572E0CE0146960E94B60A5C
:10169000F80180811B861A861D861C861F861E8681
:1016A00040E1B60190E00E947E1FF601019000200B
:1016B000E9F73197AF014C195D09B601CE010A96E1
:1016C0000E946B0F888999890097A9F06A857B85AC
:1016D0006115710571F04A895B892E853F85421736
:1016E000530738F00E9483238E859F859D8B8C8BBA
:1016F00010C00E9416228A859B85998B888B8C85C9
:101700009D859B8B8A8B8E859F859D8B8C8B1B8665
:101710001A868A859B850E9416224C895D89688974
:101720007989CE0146960E94B60AE114F10441F08F
:1017300041E050E06EE772E0CE0146960E94B60AA4
:10174000F1E0EF1AF10808F096CF0A8D1B8D011514
:10175000110519F41092AA0310C00131110510F0FF
:1017600001E110E06E897F89A8018AEA93E00E9476
:101770008A23F801E655FC4F1082888999890E94D6
:1017800016228E899F890E9416226B960FB6F894B6
:10179000DEBF0FBECDBFDF91CF911F910F91FF90A4
:1017A000EF90DF90CF9008950F931F93CF93DF9327
:1017B0008C01C0E0D0E0F801EC0FFD1F64916623BE
:1017C00041F08CEB93E00E946A0E892B11F0219678
:1017D000F2CFCE01DF91CF911F910F910895CF935A
:1017E000DF93EC018091F2049091F304892B59F47A
:1017F0008091720590E0880F991F0E947E2190933E
:10180000F3048093F2048091F4042091F204909107
:10181000F304E22FF92FE80FF11DE80FF11DD1833A
:10182000C0838091F4048F5F8093F404DF91CF91A3
:1018300008958091590490E0880F991F0E947E219D
:10184000FC019093F0048093EF0485EF94E0918382
:1018500080838BEF94E09383828380E195E095838E
:10186000848383E295E09783868389E295E091877C
:10187000808785E08093F1040895CF93DF93EC0196
:101880008091EF049091F004892B11F40E94190CBF
:101890008091F1042091EF049091F004E22FF92F50
:1018A000E80FF11DE80FF11DD183C0838091F10491
:1018B0008F5F8093F104DF91CF910895262F2695B5
:1018C00026952695820F911DFC01808990E0677016
:1018D00002C0959587956A95E2F781700895CF9239
:1018E000DF92EF92FF920F931F93CF93DF93CDB7C9
:1018F000DEB7C254D1090FB6F894DEBF0FBECDBF1C
:101900008C017B012091A90330E08091A80390E035
:1019100004962817390709F439C0E0912203F091A1
:101920002303218130E0F901EC52FE4F8491F9014B
:10193000E054FE4FD490F901E455FE4FC490CC2002
:1019400069F181110E94EE0FEC2DF0E0EE0FFF1F08
:10195000EE55FE4FA591B491EC91DE22F9F08BC0CB
:10196000E0912203F091230361E080810E9417102F
:101970002091A90330E08091A80390E004962817F5
:10198000390709F048C04A8141114FC0E091A803CE
:101990008091A9038E138BC080E0F8C08091200352
:1019A00090912103891371C01BA20E94D0178BA1B3
:1019B0008EBD00000DB407FEFDCF8EB589838CA1CE
:1019C0008EBD00000DB407FEFDCF8EB58A839BA1AE
:1019D000992349F0292F30E0482F50E04217530750
:1019E00014F48FEF890F803208F08FE1DE01139637
:1019F0009E012E5D3F4FF9019E2F921B981708F014
:101A0000AFCF93819EBD00000DB407FEFDCF9EB504
:101A10009D933196F1CF90912003809121039817E7
:101A200009F4B1CF0E94D017AECF8091A903682FDF
:101A300070E02091A80330E02C5F3F4F62177307DE
:101A4000C9F0837021E2829FC0011124FC01EC5D8A
:101A5000FC4F108250E04F5F5F4FBE016E5F7F4FC3
:101A60008B5D9C4F0E946A238091A9038F5F8093B6
:101A7000A9038CCFFFCF9091200380912103981769
:101A800009F484CF0E94D01781CFE82FE37091E250
:101A90009E9FF0011124E456FD4FDE0192960190C5
:101AA0000D929A95E1F78F5F809320037ECFE370CC
:101AB00081E28E9FF0011124EC5DFC4FD701019073
:101AC0000D928A95E1F78091A8038F5F8093A80318
:101AD0002091A90330E090E004962817390739F0E7
:101AE000909120038091210398130E94D017F70151
:101AF0008281863871F4F8017096C8014896119277
:101B00001782E817F907D9F7F80110A287818187B2
:101B100014C08738A0F0883839F5F7013396D8011A
:101B200050962BE0E20EF11C81918D9387811796E0
:101B30008C931797EE15FF05B9F781E027C085381C
:101B4000E1F7F70182859385F80193878287F70192
:101B500084859585F80195878487F7018685978523
:101B6000F80197878687E9CF893839F7F7018381AC
:101B70009481F80193878287F70185819681F80126
:101B800095878487F70187819085EACFCE5BDF4F09
:101B90000FB6F894DEBF0FBECDBFDF91CF911F917E
:101BA0000F91FF90EF90DF90CF9008950895CF921E
:101BB000DF92EF92FF920F931F93CF93DF936C010D
:101BC0007A018B01C0E0D0E0CE15DF0581F0D801AD
:101BD0006D918D01D601ED91FC910190F081E02D88
:101BE000C6010995892B11F02196EECF7E01C70120
:101BF000DF91CF911F910F91FF90EF90DF90CF90E9
:101C00000895FC01538D448D252F30E0842F90E002
:101C1000821B930B541710F0CF96089501970895E7
:101C2000FC01918D828D981761F0828DDF01A80FE4
:101C3000B11D5D968C91928D9F5F9F73928F90E006
:101C400008958FEF9FEF0895FC01918D828D981775
:101C500031F0828DE80FF11D858D90E008958FEFB2
:101C60009FEF0895FC01918D228D892F90E0805C7B
:101C70009F4F821B91098F73992708958CEB93E0F6
:101C80000E94320E21E0892B09F420E0822F089572
:101C9000FC01848DDF01A80FB11DA35ABF4F2C9109
:101CA000848D90E001968F739927848FA689B789D8
:101CB0002C93A089B1898C91837080648C93938DCF
:101CC000848D981306C00288F389E02D80818F7D72
:101CD00080830895EF92FF920F931F93CF93DF932A
:101CE000EC0181E0888F9B8D8C8D981305C0E8896D
:101CF000F989808185FD26C0F62E0B8D10E00F5FDF
:101D00001F4F0F731127E02E8C8DE8120CC00FB6F9
:101D100007FCFACFE889F989808185FFF5CFCE01EC
:101D20000E94480EF1CF8B8DFE01E80FF11DE35AA2
:101D3000FF4FF0829FB7F8940B8FEA89FB8980816F
:101D400080620AC09FB7F894EE89FF896083E889B2
:101D5000F98980818370806480839FBF81E090E0F7
:101D6000DF91CF911F910F91FF90EF900895CF9346
:101D7000DF93EC01888D8823C9F0EA89FB89808193
:101D800085FD05C0A889B9898C9186FD0FC00FB665
:101D900007FCF5CF808185FFF2CFA889B9898C91A6
:101DA00085FFEDCFCE010E94480EE7CFDF91CF91A6
:101DB000089580E090E0892B29F00E943E0E811169
:101DC0000C94000008950E946523EF92FF920F93F8
:101DD0001F93CF93DF93CDB7DEB765970FB6F89417
:101DE000DEBF0FBECDBF082F142FE42EF12CA701AC
:101DF000CE0102960E946A23E3E7F5E01E5F11839D
:101E00008DE082830383A701BE016E5F7F4F87E76A
:101E100095E00E946A2383E795E065960FB6F894F3
:101E2000DEBF0FBECDBFDF91CF911F910F91FF900D
:101E3000EF900C94DC170F931F93CF93DF93FC016B
:101E4000E85AFF4F408150E0A0E0B0E020E030E0F1
:101E50008C010A5A1F4F241735077CF4F801808142
:101E600091818A0F9B1F1796FC01C081D181C617F3
:101E7000D70729F02F5F3F4FEECF80E090E0DF9152
:101E8000CF911F910F9108950F931F93CF93DF93DD
:101E9000EC0188819981009729F02A813B812617DE
:101EA000370788F48B016F5F7F4F0E949F22009756
:101EB00061F0998388831B830A832C813D81232BC6
:101EC00011F4FC01108281E001C080E0DF91CF912C
:101ED0001F910F910895EF92FF920F931F93CF934D
:101EE000DF93EC017B018A01BA010E94440F288133
:101EF000398181110DC02115310519F0C9010E94E8
:101F00001622198218821D821C821B821A8206C028
:101F10001D830C83B701C9010E948323CE01DF9189
:101F2000CF911F910F91FF90EF9008951F920F9204
:101F30000FB60F9211242F933F934F935F936F939C
:101F40007F938F939F93AF93BF93EF93FF938CEB0C
:101F500093E00E94480EFF91EF91BF91AF919F9146
:101F60008F917F916F915F914F913F912F910F9042
:101F70000FBE0F901F9018951F920F920FB60F92E1
:101F800011242F938F939F93EF93FF93E091CC03B2
:101F9000F091CD038081E091D203F091D30382FDD3
:101FA00012C090818091D5038F5F8F732091D603EB
:101FB000821751F0E091D503F0E0E454FC4F958F87
:101FC0008093D50301C08081FF91EF919F918F9104
:101FD0002F910F900FBE0F901F901895833081F0B6
:101FE00028F4813099F08230A1F008958730A9F06B
:101FF0008830B9F08430D1F4809180008F7D03C0A7
:10200000809180008F7780938000089584B58F77CA
:1020100002C084B58F7D84BD08958091B0008F7714
:1020200003C08091B0008F7D8093B00008951F930E
:10203000CF93DF93282F30E0F901EC52FE4F8491CB
:10204000F901E054FE4FD491F901E455FE4FC491DB
:10205000CC23C1F0162F81110E94EE0FEC2FF0E07F
:10206000EE0FFF1FEE50FE4FA591B4919FB7F8946D
:10207000111104C08C91D095D82302C0EC91DE2BB5
:10208000DC939FBFDF91CF911F910895CF93DF9392
:1020900090E0FC01E054FE4F2491FC01E455FE4F1A
:1020A0008491882361F190E0880F991FFC01E85129
:1020B000FE4FC591D491FC01EE50FE4FA591B49115
:1020C000611109C09FB7F894888120958223888385
:1020D000EC912E230BC0623061F49FB7F894888195
:1020E000322F309583238883EC912E2B2C939FBF26
:1020F00006C08FB7F894E8812E2B28838FBFDF911D
:10210000CF9108958F929F92AF92BF92CF92DF921C
:10211000EF92FF926B017C010E943E174B015C0124
:10212000C114D104E104F104F1F00E943E17DC0176
:10213000CB0188199909AA09BB09883E9340A105DA
:10214000B10570F321E0C21AD108E108F10888EE68
:10215000880E83E0981EA11CB11CC114D104E104B7
:10216000F10419F7DDCFFF90EF90DF90CF90BF9093
:10217000AF909F908F900895EF92FF920F931F93CF
:10218000CF93DF93EC01CB01FB01A181EA2EF12C6F
:10219000411103C0A1E0B0E002C0AFEFBFEF8E017C
:1021A000035A1F4FF80120813181BC016F5F7F4FBF
:1021B000AE0DBF1DA60FB71FA617B70709F132272F
:1021C00023273227FB015191BF012527F901FF2762
:1021D00054E0F595E7955A95E1F72E273F27F90149
:1021E000FE2FEE27F295F07F2E273F27F901FF27DC
:1021F00055E0EE0FFF1F5A95E1F72E273F27DCCF62
:10220000F80131832083442331F0FC013683F80147
:102210002081FC0127830E94DC178E01035D1F4F84
:102220007E01FDE0EF0EF11CB801C7010E946F0CAA
:10223000882371F08FA58438B9F789A9815082303D
:1022400098F7DF91CF911F910F91FF90EF90089534
:1022500061E070E080E090E00E948210E5CFEF92B4
:10226000FF920F93CF93DF93EB01542F7901402F0F
:1022700026E02A83F70121812F705295507F522B3F
:102280005B8320812C830E94BC10898190E003979E
:10229000F70120813181820F931F91838083DF9129
:1022A000CF910F91FF90EF900895BF92CF92DF9260
:1022B000EF92FF920F931F93CF93DF93CDB7DEB7CB
:1022C00028970FB6F894DEBF0FBECDBFFC017B018F
:1022D0008F5A9F4FDC012C9130E040E050E080E0CD
:1022E00090E0BF01615B7F4F821793070CF074C0D1
:1022F000DB01CD90DC90C40ED51E425F5F4FD6014E
:102300000D911C91E016F10611F00196EDCFC1146C
:10231000D10409F461C0D60116960C91002309F48A
:102320005BC021E030E040E050E060E070E080E041
:1023300090E00E94592129833A834B835C836D830B
:102340007E838F839887CE01019624E935E0AE0124
:10235000475F5F4FDC016D91CD01D9016D939D0108
:1023600084179507B9F787017F0189E08093740589
:102370008BE18093750588E0E4E9F5E0A6E7B5E038
:1023800001900D928A95E1F783E795E00E94DC17B2
:10239000882311F1D801ED91FC910084F185E02DA5
:1023A000C8010995B82ED801ED91FC910680F781FE
:1023B000E02DC80109954B2DBC01F60186810E94D4
:1023C000E50E882349F0D60116968C91F701EE5A56
:1023D000FF4F808381E001C080E028960FB6F8941B
:1023E000DEBF0FBECDBFDF91CF911F910F91FF9048
:1023F000EF90DF90CF90BF900895CF92DF92EF9251
:10240000FF920F931F93CF93DF93FC01EF5AFF4F7F
:10241000E081EE2EF12C40E050E020E030E0DC01E5
:10242000A15BBF4F2E153F050CF0B3C00D911C9161
:102430001197040F151F425F5F4FF801C081D181D2
:102440006C177D0719F02F5F3F4FECCF0115110579
:1024500009F49FC0EB016C0186818823E9F0F60145
:10246000EE5AFF4F9081891317C0E881F9810084EB
:10247000F185E02DCB010995F82EE881F9810680E0
:10248000F781E02DCE0109954F2DBC01F801868121
:102490000E94E50EF82E02C0FF24F394D8011B968B
:1024A0008C918823B1F0E881F9810084F185E02DD9
:1024B000CE010995E82EE881F9810680F781E02DAB
:1024C000CE0109954E2DBC01F80183850E94E50ED1
:1024D000F822D80117968C911797882361F11C96E2
:1024E0008C91882341F1D601ED91FC910488F58906
:1024F000E02DBE01C60109958823E1F0F60185892A
:102500008150858BE881F9810084F185E02DCE0131
:102510000995E82EE881F9810680F781E02DCE014A
:1025200009954E2DBC01D80117968C910E94151863
:10253000F82201C0F12CF8018085882371F185858E
:10254000882359F1D601ED91FC910688F789E02D99
:10255000BE01C60109958823F9F0F60185898150ED
:10256000858BE881F9810084F185E02DCE01099504
:10257000D82EE881F9810680F781E02DCE010995FA
:102580004D2DBC01D80118968C910E941518F82287
:1025900004C0FF24F39401C0F12C8F2DDF91CF9163
:1025A0001F910F91FF90EF90DF90CF900895CF9300
:1025B000DF93EC010E94AD17FE01E15BFF4F8081CC
:1025C0009181009711F00E941622FE01EA5AFF4FF6
:1025D00080819181009711F00E941622FE01EF5A2E
:1025E000FF4F1082C85ADF4F1882DF91CF910895B4
:1025F0003F924F925F926F927F928F929F92AF9293
:10260000BF92CF92DF92EF92FF920F931F93CF93DF
:10261000DF93CDB7DEB76B970FB6F894DEBF0FBE72
:10262000CDBF7C014C018DE0880E911CB701635D2C
:102630007F4FC4010E946F0C882309F49FC3D70108
:102640009F96EC918E2F90E0FC01E158F109ED305E
:10265000F10508F093C3EC5CFF4F0C94532100E0AC
:1026600010E0C12CD12C5701B1E5AB0EB11C4701D4
:10267000EFE48E0E911C5FC2D701D2968C91D29757
:1026800053968C935397D0968C91D097833009F0C2
:1026900075C3D1968C91882339F064E170E080E0B5
:1026A00090E00E9482106AC3F701A184B284A11451
:1026B000B10409F44DC3D5018D919C910E94A620CF
:1026C000813009F045C36701BBE5CB0ED11CF60193
:1026D00080838701075A1F4FD8011D921C9221E069
:1026E00030E040E050E0BE01655E7F4FC5010E94D2
:1026F000200AF801408151814F5F5F4F5183408331
:102700002B8D30E0BE016F5F7F4FD70119968D9101
:102710009C911A970E94200A8B8D482F50E0F80157
:1027200020813181240F351F31832083D6019C9174
:102730008E5F8093740588E080937505FBC2F70176
:1027400081A9833008F01AC310A91A3009F49CC07B
:1027500030F4173059F0183009F44CC00FC31B3057
:1027600009F4A4C01C3009F4BDC008C382A98701C4
:10277000075A1F4F813019F4F80111821082D701D6
:102780009E968C919E9784508983F8014081518157
:1027900021E030E0BE016F5F7F4F19968D919C91D3
:1027A0001A970E944D0AD8014D915C9111974F5F85
:1027B0005F4F4D935C93298130E0B7016D5C7F4F93
:1027C000F701818592850E944D0A2981D8018D915A
:1027D0009C911197820F911D8D939C93F70181A974
:1027E000813021F48093740587E0A1C2823009F022
:1027F000C5C2AEC28130F1F55701BBE5AB0EB11CCD
:10280000F50180818F5F80836701F9E5CF0ED11CD0
:10281000D6014D915C9121E030E0BE01655E7F4FB5
:10282000F701818592850E94200AD6014D915C9125
:1028300011974F5F5F4F4D935C932B8D30E0BE013E
:102840006F5F7F4FF701818592850E94200A8B8DF3
:10285000482F50E0D6012D913C911197240F351F40
:102860002D933C93F50190818E5F809374051093B6
:10287000750560C2823009F081C264E170E080E0D9
:1028800090E00E94821064C2F701838594850097CE
:1028900009F474C2A7014E5C5F4FDC01ED91FC911D
:1028A0000684F785E02DB701099568C2F701038515
:1028B00014850115110509F461C262A973A980E0AC
:1028C00090E00E94AB1F2DEC3FEA46E65BE30E94DE
:1028D000E81F9B01AC01D801ED91FC910288F389BE
:1028E000E02D1DC0F701038514850115110509F4BC
:1028F00045C262A973A9072E000C880B990B0E9490
:10290000AD1F20E030E040E85EE30E94E81F9B013D
:10291000AC01D801ED91FC910088F189E02DB7015F
:10292000C80109952BC2F701ED5AFF4F108231966D
:10293000108231961082F70183859485009759F0B3
:10294000DC01ED91FC910190F081E02DA7014F5C3D
:102950005F4FB7010995F7018389D1C1D701D89697
:102960004C90D897D9965C90D997DA966C90DA9774
:10297000DB967C90DB97DC96AC90DC97DD96BC9088
:10298000DD97DE96CC90DE97DF96DC90DF9714968D
:102990000D911C91159706301105D0F11696ED9109
:1029A000FC911797E138BCE0FB0790F5D701D09672
:1029B0002C91237030E040E050E060E070E080E077
:1029C00090E0A0E00E94722119F1D701AD5ABF4FEB
:1029D0008C9181111DC081E08C9399E090937405D6
:1029E00093E1909375051093770500937605F09326
:1029F0007905E093780510927B0510927A05809313
:102A00007D0580E980937C0583E795E00E94DC17D3
:102A1000F701858D8170382E9201A301B501C601A1
:102A2000A0E00E94722131F4311004C081E0EC5A20
:102A3000FF4F8083C12CD12CA12CB12C2701F1E5B3
:102A40004F0E511C37018FE4680E711CD2018C911E
:102A500090E0A816B9060CF03FC0F3010081118187
:102A60000C0D1D1DD80117966C91662329F0C40129
:102A70000E945E0CF8018487D80118966C91662339
:102A800029F0C4010E945E0CF8018587D8011C96CC
:102A90008C911C97811103C01D962C9101C021E0DF
:102AA000F80140815181DA011C968C91281769F058
:102AB000F70183859485009741F0DC01ED91FC914D
:102AC0000284F385E02DB7010995BFEFAB1ABB0A6D
:102AD000EEE0CE0ED11CBACFF701EC5AFF4F808149
:102AE000882309F44BC1332009F448C13196808111
:102AF000811144C1D7011B968D919C911C97009721
:102B000009F43CC121E02083DC01ED91FC910680B9
:102B1000F781E02D6AC0D401ED91FC91E00FF11F27
:102B200040815181FA01848581110CC0BFEFCB1A1D
:102B3000DB0A025F1F4FF501808190E0C816D906BD
:102B400054F311C0D7011B968D919C911C9700974F
:102B500069F3DC01ED91FC910284F385E02D20E026
:102B6000B7010995E3CFF70183859485009741F07C
:102B7000DC01ED91FC910280F381E02DB701099514
:102B80008701045A1F4FF8018081882309F4E0C0AF
:102B900081E08093740587E08093750583E795E075
:102BA0000E94DC17D8011C92E9C0F70180A98111AD
:102BB00004C091E02289211101C090E0F701E45A9C
:102BC000FF4F9083D70152968C93379710828111D3
:102BD000D5C0F70183859485009709F4CFC0DC0147
:102BE000ED91FC910480F581E02DB7010995C6C0F7
:102BF000F701B6A4BA94BA9410A9EF5AFF4F2081F6
:102C000030E040E050E080E090E032978217930798
:102C100044F5C080D180C40ED51ED6011A966C91A1
:102C20001A97161709F49DC0425F5F4F19966C9171
:102C3000161315C0F70183859485009791F0D6018E
:102C40004D915C91DC01ED91FC910084F185E02DCA
:102C50000B2D97012F5C3F4FB701099502C00196DC
:102C6000D5CFF701E85AFF4F208130E040E050E037
:102C700080E090E03297821793070CF07FC0C0800D
:102C8000D180C40ED51ED60114967C91149715964A
:102C90006C9117130FC0161318C082E0809374054F
:102CA00086E1809375051093760583E795E00E9491
:102CB000DC170BC0161779F3495F5F4FD6011696E4
:102CC0007C917111E8CF0196D6CFF7018385948569
:102CD000009709F453C097012F5C3F4FD6014D91E7
:102CE0005C91DC01ED91FC910484F585E02D0B2DC8
:102CF000B701099543C0F701958980A9890F858B94
:102D00003DC0D701D1968C91D197823939F0559633
:102D10008C9155978F5F55968C9330C0F7018185C4
:102D20009285892B59F181E0809374058DE1809320
:102D3000750509C090937605BE016F5F7F4F87E7E9
:102D400095E00E946A2383E795E00E94DC1716C095
:102D5000D701ED91FC910484F585E02DC70109951B
:102D60000DC082E08093740586E180937505109311
:102D7000760583E795E00E94DC175CCF6B960FB673
:102D8000F894DEBF0FBECDBFDF91CF911F910F91A1
:102D9000FF90EF90DF90CF90BF90AF909F908F907B
:102DA0007F906F905F904F903F900895DC01ED9180
:102DB000FC9100A0F1A1E02D099421E0FC0185899E
:102DC000811101C020E0822F08950F931F93CF93AC
:102DD000DF93EC018B010E941B0FFC01892BD9F0C2
:102DE0008081918108171907B1F42481211103C052
:102DF0002581222381F0822F869586958695C80F9E
:102E0000D11D8DA190E0277002C0959587952A95D8
:102E1000E2F7817001C080E0DF91CF911F910F91A7
:102E20000895CF93DF93EC010E941B0F009769F088
:102E3000FC016381611103C06281662331F0CE0120
:102E40000D96DF91CF910C945E0C80E0DF91CF91D5
:102E50000895CF93DF93EC010E941B0F009751F070
:102E6000FC016681662331F0CE010D96DF91CF9192
:102E70000C945E0C80E0DF91CF9108953FB7F894F9
:102E80008091A1059091A205A091A305B091A40500
:102E900026B5A89B05C02F3F19F00196A11DB11DB5
:102EA0003FBFBA2FA92F982F8827820F911DA11DF0
:102EB000B11DBC01CD0142E0660F771F881F991F2D
:102EC0004A95D1F708951F920F920FB60F921124D1
:102ED0002F933F938F939F93AF93BF9380919D05C3
:102EE00090919E05A0919F05B091A00530919C0501
:102EF00023E0230F2D3720F40196A11DB11D05C03D
:102F000026E8230F0296A11DB11D20939C058093F6
:102F10009D0590939E05A0939F05B093A005809179
:102F2000A1059091A205A091A305B091A4050196D9
:102F3000A11DB11D8093A1059093A205A093A305A7
:102F4000B093A405BF91AF919F918F913F912F9125
:102F50000F900FBE0F901F901895E0912203F091F3
:102F6000230382818F3FD9F061E00E944610E091F7
:102F70002203F091230361E082810E941710E09107
:102F80002203F091230360E082810E941710E091F8
:102F90002203F091230361E082810C9417100895BD
:102FA00081E78CBD81E08DBDE0912203F091230388
:102FB00060E080810C941710FC014181403288F55B
:102FC00090912103692F70E02091200330E02C5F65
:102FD0003F4F6217730729F1BF01937021E2929F5F
:102FE000C0011124FC01E456FD4F108250E04F5FF8
:102FF0005F4F6F5F7F4F83569D4F0E946A23809182
:1030000021038F5F809321032091A90330E08091F9
:10301000A80390E004962817390729F00E94D017DA
:1030200002C080E0089581E00895EF92FF920F932F
:103030001F93CF93DF93CDB7DEB765970FB6F894A4
:10304000DEBF0FBECDBF453148F5142F082FE42E4B
:10305000F12CA701CE0102960E946A231E5F1093F5
:10306000740585E18093750500937605A701BE017F
:103070006E5F7F4F87E795E00E946A2383E795E0C4
:1030800065960FB6F894DEBF0FBECDBFDF91CF912E
:103090001F910F91FF90EF900C94DC1780E06596E4
:1030A0000FB6F894DEBF0FBECDBFDF91CF911F9159
:1030B0000F91FF90EF900895EF92FF920F931F935F
:1030C000CF93DF938C017A01D22F0E941B0F0097C0
:1030D000C9F0FC01C381C11103C0C281CC2391F0AE
:1030E0006C2FC8010D960E945E0C882359F04D2F5D
:1030F000B7018C2FDF91CF911F910F91FF90EF902F
:103100000C94151880E0DF91CF911F910F91FF90E3
:10311000EF900895E3E7F5E081E081838BE082831F
:10312000CF010C94DC17E3E7F5E081E081838CE0CC
:103130008283CF010C94DC17E3E7F5E081E0818323
:103140008AE08283CF010C94DC17CF93DF93EC01EC
:1031500082E08093740581E18093750581E080931E
:10316000760583E795E00E94DC17882341F0FE0195
:103170007D96A59611921782EC17FD07D9F7DF917E
:10318000CF910895CF93DF93FC018281938124E056
:10319000880F991F2A95E1F76AE070E00E943F21AD
:1031A0008085882369F0EB010184F285E02D30975A
:1031B000E1F0808191810E94A6208130B1F020C091
:1031C000CB01805A910981369F4378F585E0809341
:1031D00074058CE180937505109276051092770541
:1031E00060937805709379051AC085E08093740523
:1031F0008FE08093750510927705109276050BC0CD
:1032000085E08093740580E18093750510927705C1
:1032100084EB80937605D0937905C093780583E796
:1032200095E0DF91CF910C94DC17DF91CF91089559
:103230006F3E8FEF78074CF0653F8FEF78073CF0DB
:103240006B3F7F4F34F083E005C080E003C081E036
:1032500001C082E092E09093740592E1909375052D
:103260008093760583E795E00C94DC170E941B0F92
:10327000FC01892B91F09481911103C095819923D0
:1032800061F082E0809374058FE1809375059093DF
:10329000760583E795E00C94DC1780E00895CF93E2
:1032A000DF93EC010E941B0FFC01892B29F1948113
:1032B000911103C095819923F9F0892F8695869500
:1032C0008695C80FD11D2DA130E0892F877002C0CF
:1032D000359527958A95E2F720FF0EC082E080930E
:1032E000740584E1809375059093760583E795E0F6
:1032F000DF91CF910C94DC1780E0DF91CF9108959E
:103300000F931F93CF938C010E941B0F0097D1F056
:10331000FC01C681CC23B1F06C2FC8010D960E9430
:103320005E0C882379F082E08093740587E18093B6
:103330007505C093760583E795E0CF911F910F91B6
:103340000C94DC1780E0CF911F910F910895DC0160
:1033500016968D919C911797DC01ED91FC9106A03A
:10336000F7A1E02D099404970C94A719DC01169697
:103370008D919C911797DC01ED91FC9104A0F5A132
:10338000E02D099404970C94B619DC0116968D91E2
:103390009C911797DC01ED91FC9102A0F3A1E02D27
:1033A000099404970C94C519DC0116968D919C9193
:1033B0001797DC01ED91FC9100A0F1A1E02D09949B
:1033C00004970C94D419DC0116968D919C91179753
:1033D000DC01ED91FC91068CF78DE02D09940497AA
:1033E0000C94E319DC0116968D919C911797DC01E2
:1033F000ED91FC91048CF58DE02D099404970C94CB
:10340000F219DC0116968D919C911797DC01ED91D4
:10341000FC91028CF38DE02D099404970C94011A11
:10342000DC0116968D919C911797DC01ED91FC9132
:10343000008CF18DE02D099404970C94101ADC0196
:1034400016968D919C911797DC01ED91FC91068861
:10345000F789E02D099402970C941F1ADC01169647
:103460008D919C911797DC01ED91FC910488F58971
:10347000E02D099402970C942E1ADC0116968D917A
:103480009C911797DC01ED91FC910288F389E02D66
:10349000099402970C943D1ADC0116968D919C912B
:1034A0001797DC01ED91FC910088F189E02D0994DA
:1034B00002970C944C1ACF93DF93FC0173836283C1
:1034C00083E098E295838483809159048F5F809391
:1034D00059048AE091E091838083822F253108F09E
:1034E00084E18683108617821186428713861486AC
:1034F0001686158696E0DF011F96ED0119929A95C2
:10350000E9F7222331F0EF0190E00E947E219887B5
:103510008F83DF91CF91089585E694E00E94A50AFC
:103520008EE794E00C94D609AF92BF92DF92EF92AF
:10353000FF920F931F93CF93DF93CDB7DEB72A97F8
:103540000FB6F894DEBF0FBECDBFECEBF3E01382F5
:10355000128288EE93E0A0E0B0E084839583A68396
:10356000B78383E291E09183808385EC90E0958737
:10357000848784EC90E09787868780EC90E0918B3D
:10358000808B81EC90E0938B828B82EC90E0958B2A
:10359000848B86EC90E0978B868B118E128E138E27
:1035A000148E0EE714E087EF91E0D80111969C93FA
:1035B0008E938BE292E013969C938E93129787E3FF
:1035C00092E015969C938E93149784E690E01B9658
:1035D0009C938E931A971D961C921E921C971F9671
:1035E0001C921E921E9781E050968C935097529693
:1035F0001C921E92519754961C921E92539785ECE2
:1036000091E019969C938E9318971092D60410927D
:10361000D5041092D7041092D8041092D9041092B5
:10362000DA041092DB041092DD041092DC04109294
:10363000DE041092E0041092DF041092E104109274
:10364000E2048FEF9FEF9093E4048093E30486E01D
:10365000D82E5596DC92559782E056968C935697C5
:1036600089E057968C9357978FEF58968C9358977D
:1036700059968C931092E7041092E6041092E90494
:103680001092E8041092EB041092EA041092EC04F9
:103690001092EE041092ED041092F0041092EF04D8
:1036A0001092F1041092F3041092F2041092F404B8
:1036B00086E592E09093F6048093F504E12C98E27D
:1036C000F92EF092F804E092F704809159048F5F8C
:1036D0008093590423E142E067E472E089EF94E0CB
:1036E0000E945B1A22E042E06CE472E08EE095E01A
:1036F0000E945B1A2BE5A22E22E0B22EB092240586
:10370000A0922305F0922605E092250580915904A8
:103710008F5F8093590424E040E261E572E087E224
:1037200095E00E945B1AB0923D05A0923C05F09294
:103730003F05E0923E058091720521E532E030932D
:1037400043052093420523E038E23093450520935A
:1037500044058E5F809372058BE891E0909341055C
:103760008093400580E280934605109247051092B1
:103770005E051092600510925F051092620510922E
:1037800061051093640500936305E5E6F5E0DF014C
:103790001D92DA94E9F786E894E0F801978386832E
:1037A00088E0EBE6F5E0DF011D928A95E9F760E637
:1037B00072E089EF94E00E9455021A86198642E071
:1037C000BE01675F7F4F8EE095E00E940102D80145
:1037D0001696ED91FC91179714870387EAE7F4E0BA
:1037E00088E692E091838083F382E282809159049B
:1037F0008F5F8093590424E042E16DE672E085E634
:1038000094E00E945B1A05E614E084E0F8018187E9
:103810002BE531E031832083FE013596DF011D92D7
:103820008A95E9F719821A821B821C8244E0BE0144
:103830006F5F7F4FC8010E94010283E791E0F801AA
:1038400091838083EAE5F4E082E792E093838283C8
:1038500080E099E295838483809159048F5F8093FF
:10386000590485E391E09183808387E792E0918713
:10387000808783E082872A960FB6F894DEBF0FBE5A
:10388000CDBFDF91CF911F910F91FF90EF90DF900F
:10389000BF90AF900895CF93DF93CDB7DEB7CB56EF
:1038A000D1090FB6F894DEBF0FBECDBF789484B5B2
:1038B000826084BD84B5816084BD85B5826085BD2C
:1038C00085B5816085BD80916E00816080936E00BA
:1038D00010928100809181008260809381008091AC
:1038E000810081608093810080918000816080935D
:1038F00080008091B10084608093B1008091B0001D
:1039000081608093B00080917A00846080937A0017
:1039100080917A00826080937A0080917A00816041
:1039200080937A0080917A00806880937A00109268
:10393000C100E091CC03F091CD0382E08083E0915F
:10394000C803F091C9031082E091CA03F091CB0340
:1039500080E180831092D403E091D003F091D103F1
:1039600086E08083E091CE03F091CF038081806177
:103970008083E091CE03F091CF03808188608083C3
:10398000E091CE03F091CF03808180688083E09145
:10399000CE03F091CF0380818F7D808380E892E019
:1039A0000E94E40A8FE892E09093EE048093ED0485
:1039B00080917A0490917B049093E7048093E604CD
:1039C0008AE794E00E943D0C87E694E00E943D0C5B
:1039D0008CE594E00E943D0C85E792E090936C05A5
:1039E00080936B0584E692E090936E0580936D055D
:1039F00024961FAE24976091E8047091E904611544
:103A0000710501F1CE01875A9F4F0E949802AC9632
:103A10000FADAC970983033010F484E101C085E158
:103A20008A83402F50E069E570E06C0F7D1F6E5F68
:103A30007F4FCE0103960E946A2314E1101BDD2400
:103A4000D39402C016E1D12C6091E6047091E70492
:103A50006115710509F442C0CE01875A9F4F0E943B
:103A60009802AC960FADAC97402F50E09A012F5FB3
:103A70003F4F812F90E02817390784F56D2D70E0B6
:103A8000E1E0F0E0EC0FFD1F26E1D29EE00DF11D1C
:103A900011240083033010F422E001C026E036E157
:103AA000369FC001379F900D1124E1E0F0E0EC0F4C
:103AB000FD1FE80FF91F2183029669E570E06C0F86
:103AC0007D1F6E5F7F4FA1E0B0E0AC0FBD1F8A0F7E
:103AD0009B1F0E946A23D394101B12506091EA042A
:103AE0007091EB046115710541F14091EC044423A0
:103AF00021F1133010F1842F90E00196212F30E056
:103B00008217930714F04EEF410FB6E1DB9EC00120
:103B10001124E1E0F0E0EC0FFD1FE80FF91F4083F6
:103B20002FEF2183029650E021E030E02C0F3D1F63
:103B3000820F931F0E946A23D3946091ED047091C9
:103B4000EE046115710521F1FB0101900020E9F7F8
:103B50003197E61BF70B8E2F2496EFAF2497E531B4
:103B600020F094E124969FAF249724964FAD24979C
:103B7000481710F089E001C088E025968FAF25979F
:103B800050E083E490E08C0F9D1F02960E946A2310
:103B90008091EF049091F004892B11F40E94190C8C
:103BA00020E030E040E854E08091F10490E02817F4
:103BB00039072CF020E030E042E854E02FC0E091DB
:103BC000EF04F091F004C901880F991FE80FF91F65
:103BD0000190F081E02D828193818330984241F4FD
:103BE000309711F0329702C0E0E0F0E05687458749
:103BF0002F5F3F4FD9CFE091F204F091F304C90158
:103C0000880F991FE80FF91F0190F081E02D828144
:103C100093818330984251F02F5F3F4F8091F4049D
:103C2000682F70E02617370734F309C0309711F07A
:103C3000329702C0E0E0F0E050A3478FEDCF882339
:103C400041F08CE395E00E94EF0B82E495E00E9446
:103C5000EF0B8091840490918504A090F204B090C1
:103C6000F304E090EF04F090F00421E024963FADDF
:103C70002497311101C020E0DC01ED91FC9104801A
:103C8000F581E02D8090F404C090F1048E010D5B6D
:103C90001F4FAE014F5F5F4F6D2D099580918404DA
:103CA00090918504DC01ED91FC9100A4F1A5E02D3B
:103CB000099580E090E0A8ECB2E489839A83AB8315
:103CC000BC8344E0BE016F5F7F4F85E694E00E94B5
:103CD00001028091840490918504DC01ED91FC91B6
:103CE0000680F781E02D09950E94D90EF2CFA0E061
:103CF000B0E0EDE7FEE10C94FA205C016B017A0183
:103D00006115710519F0FB0191838083E114F104C1
:103D100029F0C7010297839708F0C9C0E5012196F1
:103D2000F5011081812F90E00E946C1F892B11F00A
:103D30005E01F4CF1D3229F42196F501118101E0D5
:103D400007C01B3221F4E5012296F501118100E044
:103D5000E114F104B1F0F0E1EF16F10429F4B0C080
:103D600010E3E114F10401F12AE0E216F104B1F1EB
:103D700080E1E816F10471F0E8E0EE16F104F1F4E8
:103D800013C0103341F588818F7D883549F719813B
:103D900022960260F0E1EF2EF12C88248A94982C70
:103DA000A82CAFE0BA2E20C078E0E72EF12C8824B2
:103DB0008A94982CA82CEFE1BE2E16C06FEF7FEFEF
:103DC000CB0197010F2C000C440B550B0E94CC200B
:103DD00049015A0109C08AE0E82EF12C69E9862ED2
:103DE000982CA82C69E1B62E40E060E070E0CB0191
:103DF00027010F2C000C66087708FE0150ED352EC8
:103E0000310E29E0231570F42FEB210F2A3118F41D
:103E100039EC332E06C02FE9210F2A3130F529EA7B
:103E2000322E310E232D30E02E153F05F4F44F3F96
:103E3000C9F086169706A806B90688F0A301920174
:103E40000E94BC20232D30E040E050E0620F731F41
:103E5000841F951F621773078407950710F44FEFAF
:103E600001C041E021961081C8CFC114D10451F0A6
:103E7000442311F0219703C001FF04C02297F601EB
:103E8000D183C08300FF07C09095809570956195A0
:103E90007F4F8F4F9F4F4F3F79F482E290E0909396
:103EA000A6058093A5053FEF2FEF9FEF0DC040E0E3
:103EB00030E020E090E008C0462F372F282F04C0C4
:103EC000103309F067CF5FCF642F732F822FCDB7E8
:103ED000DEB7E1E10C94162191110C94981F803209
:103EE00019F089508550C8F70895FB01DC0102C024
:103EF00005900D9241505040D8F70895BB27FB0123
:103F00005527AA27880F991FAA1FA41710F0A41BD2
:103F100083955051B9F7A05DAA3308F0A95DA1932C
:103F2000009779F7B111B1931192CB010C949B1FBB
:103F3000992788270895DC01FC01672F7191772369
:103F4000E1F7329704C07C916D9370836291AE1754
:103F5000BF07C8F30895E89409C097FB3EF4909515
:103F60008095709561957F4F8F4F9F4F9923A9F052
:103F7000F92F96E9BB279395F695879577956795E1
:103F8000B795F111F8CFFAF4BB0F11F460FF1BC025
:103F90006F5F7F4F8F4F9F4F16C0882311F096E9B8
:103FA00011C0772321F09EE8872F762F05C0662366
:103FB00071F096E8862F70E060E02AF09A95660F1F
:103FC000771F881FDAF7880F9695879597F90895D8
:103FD0000E94FB1F0C946C200E945E2038F00E940F
:103FE000652020F0952311F00C9455200C945B2053
:103FF00011240C94A0200E947D2070F3959FC1F3A2
:10400000950F50E0551F629FF001729FBB27F00D86
:10401000B11D639FAA27F00DB11DAA1F649F6627DB
:10402000B00DA11D661F829F2227B00DA11D621F2A
:10403000739FB00DA11D621F839FA00D611D221FE4
:10404000749F3327A00D611D231F849F600D211DC8
:10405000822F762F6A2F11249F5750409AF0F1F04B
:1040600088234AF0EE0FFF1FBB1F661F771F881FB4
:1040700091505040A9F79E3F510580F00C94552077
:104080000C94A0205F3FE4F3983ED4F38695779597
:104090006795B795F795E7959F5FC1F7FE2B880F5A
:1040A000911D9695879597F9089597F99F6780E8F0
:1040B00070E060E008959FEF80EC089500240A947A
:1040C0001616170618060906089500240A941216F3
:1040D0001306140605060895092E0394000C11F426
:1040E000882352F0BB0F40F4BF2B11F460FF04C0D3
:1040F0006F5F7F4F8F4F9F4F089557FD9058440F2C
:10410000551F59F05F3F71F04795880F97FB991F36
:1041100061F09F3F79F087950895121613061406F3
:10412000551FF2CF4695F1DF08C016161706180680
:10413000991FF1CF86957105610508940895E8945B
:10414000BB2766277727CB0197F90895F999FECF0A
:1041500092BD81BDF89A992780B50895262FF999C7
:10416000FECF1FBA92BD81BD20BD0FB6F894FA9A5A
:10417000F99A0FBE01960895DB018F939F930E94D9
:10418000EE20BF91AF91A29F800D911DA39F900D36
:10419000B29F900D11240895A1E21A2EAA1BBB1BF9
:1041A000FD010DC0AA1FBB1FEE1FFF1FA217B30703
:1041B000E407F50720F0A21BB30BE40BF50B661F19
:1041C000771F881F991F1A9469F7609570958095DD
:1041D00090959B01AC01BD01CF0108950E94302153
:1041E000A59F900DB49F900DA49F800D911D11244B
:1041F00008952F923F924F925F926F927F928F928B
:104200009F92AF92BF92CF92DF92EF92FF920F9365
:104210001F93CF93DF93CDB7DEB7CA1BDB0B0FB66F
:10422000F894DEBF0FBECDBF09942A88398848882C
:104230005F846E847D848C849B84AA84B984C884C2
:10424000DF80EE80FD800C811B81AA81B981CE0FB9
:10425000D11D0FB6F894DEBF0FBECDBFED0108959E
:10426000A29FB001B39FC001A39F700D811D1124B7
:10427000911DB29F700D811D1124911D0895AA1BDF
:10428000BB1B51E107C0AA1FBB1FA617B70710F041
:10429000A61BB70B881F991F5A95A9F78095909573
:1042A000BC01CD010895EE0FFF1F0590F491E02DA4
:1042B00009940F93083090F0982F872F762F652F51
:1042C000542F432F322F22270850F4CF220F331FB1
:1042D000441F551F661F771F881F991F0A95B2F745
:1042E0000F9108950024A7FD00942A17300540057A
:1042F0005005600570058005900508950F931F9384
:10430000CF93DF938230910510F482E090E0E0914A
:10431000A905F091AA0520E030E0A0E0B0E03097D8
:1043200019F1408151810281138148175907C8F062
:104330008417950769F4109731F012960C93129731
:1043400013961C9327C00093A9051093AA0522C0B9
:104350002115310519F04217530718F49A01BD01D0
:10436000EF01DF01F801DBCF21153105F9F0281B42
:10437000390B2430310580F48A819B8161157105E8
:1043800021F0FB019383828304C09093AA0580935C
:10439000A905FE01329644C0FE01E20FF31F81938E
:1043A000919322503109398328833AC02091A7057F
:1043B0003091A805232B41F4209102013091030193
:1043C0003093A8052093A7052091000130910101A9
:1043D0002115310541F42DB73EB7409104015091AC
:1043E0000501241B350BE091A705F091A805E21704
:1043F000F307A0F42E1B3F0B2817390778F0AC0108
:104400004E5F5F4F2417350748F04E0F5F1F5093E4
:10441000A8054093A7058193919302C0E0E0F0E0E6
:10442000CF01DF91CF911F910F910895CF93DF932B
:10443000009709F481C0FC01329713821282A09187
:10444000A905B091AA05109781F420813181820FCE
:10445000931F2091A7053091A8052817390751F51A
:10446000F093A805E093A70567C0ED0120E030E0D8
:10447000CE17DF0740F44A815B819E01411551054B
:10448000F1F0EA01F5CFD383C28340815181840FDB
:10449000951FC817D90759F488819981840F951FF2
:1044A0000296918380838A819B81938382832115E5
:1044B000310529F4F093AA05E093A9053DC0E9016F
:1044C000FB83EA8349915991C40FD51FEC17FD076F
:1044D00061F480819181840F951F0296E90199838F
:1044E0008883828193819B838A83E0E0F0E0129647
:1044F0008D919C911397009719F0FD01DC01F7CF86
:104500008D919C9111979D012E5F3F4F820F931FBC
:104510002091A7053091A8052817390769F430972D
:1045200029F41092AA051092A90502C013821282E2
:10453000B093A805A093A705DF91CF910895A0E0BF
:10454000B0E0E5EAF2E20C94FD20EC01009721F4E2
:10455000CB010E947E21B4C0FC01E60FF71F9C0135
:1045600022503109E217F30708F4A8C0D9010D91D0
:104570001C91119706171707B0F00530110508F4C4
:104580009BC0C80104978617970708F495C002508E
:104590001109061B170B019311936D937C93CF01A7
:1045A0000E94162289C05B01A01AB10A4C01800E3C
:1045B000911EA091A905B091AA05612C712CE12C46
:1045C000F12C109709F446C08D919C911197A81574
:1045D000B905B1F56C0142E0C40ED11CCA14DB046C
:1045E00078F14C018A189B08640142E0C40ED11C8A
:1045F0001296BC9012971396AC91B5E0CB16D104ED
:1046000040F0B282A38391828082D9016D937C9322
:1046100009C00E5F1F4F800F911FF90191838083A6
:10462000EB2DFA2FE114F10431F0D7011396FC932E
:10463000EE93129741C0F093AA05E093A9053CC000
:104640006816790608F43C017D0112960D90BC9124
:10465000A02DB7CF8091A7059091A805881699063F
:10466000E1F466167706C8F480910001909101018B
:10467000009741F48DB79EB7409104015091050118
:10468000841B950BE817F907C8F4F093A805E0938D
:10469000A705F901718360830FC0CB010E947E21C1
:1046A0007C01009759F0A801BE010E946A23CE0147
:1046B0000E941622C70104C0CE0102C080E090E033
:1046C000CDB7DEB7EEE00C94192181E090E0F894CC
:1046D0000C949923FB01DC0102C001900D92415022
:1046E0005040D8F70895DC0101C06D93415050400F
:1046F000E0F70895FB01DC018D9101908019011014
:10470000D9F3990B0895FB01DC0101900D92002073
:10471000E1F70895FB01DC014150504048F0019061
:104720000D920020C9F701C01D9241505040E0F7A2
:10473000089511E0CFEFD0E004C0FE010E945321A4
:0C4740002196C030D107C9F7F894FFCFD4
:10474C000000AB058000000000003F024B02C301DB
:10475C00BF01BC01B201BA01010255029201000075
:10476C000000006A0ED70D010EB70E320E100E248B
:10477C000E000000001F0A3D028E018B0183010018
:10478C00000000830A8A0AC301BF01BC01B2017890
:10479C000101025502920100000000940A9B0AC319
:1047AC0001BF01BC01B20178010102550292010066
:1047BC00000000A50AAC0AC301BF01BC01B201781C
:1047CC000101025502920100000000D509390200D6
:1047DC0000000097023B027C01D60DD60D7A01D663
:1047EC000DD60D71017101710171017101710171B0
:1047FC000173017101710171017101D60DD60DD6D4
:10480C000D0000000086028D02E902F812D7121882
:10481C0019C218A518FD115511DD16DD16291780C2
:10482C001911175C18E5164F19D61636199C1893E2
:10483C00188A1800000000EB0121026001540144A9
:10484C00012C01C6012B012A012A01D609150A4C9B
:10485C001A3D1A2E1A1F1A101A011AF219E319D43A
:10486C0019C519B619A719FEFF0000581A491A3AAA
:10487C001A2B1AFCFF00001C1A0D1AFE19EF19E076
:10488C0019D119C219B3193261303000326130318B
:10489C000032613035003138303000313830310081
:1048AC0041726475696E6F00414141300041414174
:1048BC00310031323334004A544E000D0A003A00B4
:1048CC00536F667477617265207374617274004DF6
:0A48DC00EFBFBD726BEFBFBD00001F
:00000001FF
